{
  "address": "0x794813E7591cC1A01F23d97F3eFD45CC08194899",
  "abi": [
    {
      "inputs": [
        {
          "internalType": "address",
          "name": "smartAccount",
          "type": "address"
        }
      ],
      "name": "AlreadyInitedForSmartAccount",
      "type": "error"
    },
    {
      "inputs": [
        {
          "internalType": "address",
          "name": "smartAccount",
          "type": "address"
        }
      ],
      "name": "NoOwnerRegisteredForSmartAccount",
      "type": "error"
    },
    {
      "inputs": [
        {
          "internalType": "address",
          "name": "account",
          "type": "address"
        }
      ],
      "name": "NotEOA",
      "type": "error"
    },
    {
      "inputs": [],
      "name": "WrongSignatureLength",
      "type": "error"
    },
    {
      "inputs": [],
      "name": "ZeroAddressNotAllowedAsOwner",
      "type": "error"
    },
    {
      "anonymous": false,
      "inputs": [
        {
          "indexed": true,
          "internalType": "address",
          "name": "smartAccount",
          "type": "address"
        },
        {
          "indexed": true,
          "internalType": "address",
          "name": "oldOwner",
          "type": "address"
        },
        {
          "indexed": true,
          "internalType": "address",
          "name": "newOwner",
          "type": "address"
        }
      ],
      "name": "OwnershipTransferred",
      "type": "event"
    },
    {
      "inputs": [],
      "name": "NAME",
      "outputs": [
        {
          "internalType": "string",
          "name": "",
          "type": "string"
        }
      ],
      "stateMutability": "view",
      "type": "function"
    },
    {
      "inputs": [],
      "name": "VERSION",
      "outputs": [
        {
          "internalType": "string",
          "name": "",
          "type": "string"
        }
      ],
      "stateMutability": "view",
      "type": "function"
    },
    {
      "inputs": [
        {
          "internalType": "address",
          "name": "smartAccount",
          "type": "address"
        }
      ],
      "name": "getOwner",
      "outputs": [
        {
          "internalType": "address",
          "name": "",
          "type": "address"
        }
      ],
      "stateMutability": "view",
      "type": "function"
    },
    {
      "inputs": [
        {
          "internalType": "address",
          "name": "eoaOwner",
          "type": "address"
        }
      ],
      "name": "initForSmartAccount",
      "outputs": [
        {
          "internalType": "address",
          "name": "",
          "type": "address"
        }
      ],
      "stateMutability": "nonpayable",
      "type": "function"
    },
    {
      "inputs": [
        {
          "internalType": "bytes32",
          "name": "dataHash",
          "type": "bytes32"
        },
        {
          "internalType": "bytes",
          "name": "moduleSignature",
          "type": "bytes"
        }
      ],
      "name": "isValidSignature",
      "outputs": [
        {
          "internalType": "bytes4",
          "name": "",
          "type": "bytes4"
        }
      ],
      "stateMutability": "view",
      "type": "function"
    },
    {
      "inputs": [
        {
          "internalType": "bytes32",
          "name": "dataHash",
          "type": "bytes32"
        },
        {
          "internalType": "bytes",
          "name": "moduleSignature",
          "type": "bytes"
        },
        {
          "internalType": "address",
          "name": "smartAccount",
          "type": "address"
        }
      ],
      "name": "isValidSignatureForAddress",
      "outputs": [
        {
          "internalType": "bytes4",
          "name": "",
          "type": "bytes4"
        }
      ],
      "stateMutability": "view",
      "type": "function"
    },
    {
      "inputs": [],
      "name": "renounceOwnership",
      "outputs": [],
      "stateMutability": "nonpayable",
      "type": "function"
    },
    {
      "inputs": [
        {
          "internalType": "address",
          "name": "owner",
          "type": "address"
        }
      ],
      "name": "transferOwnership",
      "outputs": [],
      "stateMutability": "nonpayable",
      "type": "function"
    },
    {
      "inputs": [
        {
          "components": [
            {
              "internalType": "address",
              "name": "sender",
              "type": "address"
            },
            {
              "internalType": "uint256",
              "name": "nonce",
              "type": "uint256"
            },
            {
              "internalType": "bytes",
              "name": "initCode",
              "type": "bytes"
            },
            {
              "internalType": "bytes",
              "name": "callData",
              "type": "bytes"
            },
            {
              "internalType": "uint256",
              "name": "callGasLimit",
              "type": "uint256"
            },
            {
              "internalType": "uint256",
              "name": "verificationGasLimit",
              "type": "uint256"
            },
            {
              "internalType": "uint256",
              "name": "preVerificationGas",
              "type": "uint256"
            },
            {
              "internalType": "uint256",
              "name": "maxFeePerGas",
              "type": "uint256"
            },
            {
              "internalType": "uint256",
              "name": "maxPriorityFeePerGas",
              "type": "uint256"
            },
            {
              "internalType": "bytes",
              "name": "paymasterAndData",
              "type": "bytes"
            },
            {
              "internalType": "bytes",
              "name": "signature",
              "type": "bytes"
            }
          ],
          "internalType": "struct UserOperation",
          "name": "userOp",
          "type": "tuple"
        },
        {
          "internalType": "bytes32",
          "name": "userOpHash",
          "type": "bytes32"
        }
      ],
      "name": "validateUserOp",
      "outputs": [
        {
          "internalType": "uint256",
          "name": "",
          "type": "uint256"
        }
      ],
      "stateMutability": "view",
      "type": "function"
    }
  ],
  "transactionHash": "0x40c58a8935c6260779b8dbf7221b212344c768657821ea79279186effc3d5b20",
  "args": [],
  "numDeployments": 1,
  "solcInputHash": "e5da018370244e2f55f20bef50c1a791",
  "bytecode": "0x60808060405234610016576108c4908161001c8239f35b600080fdfe6040608081526004908136101561001557600080fd5b6000803560e01c80631626ba7e146104065780632ede3bc014610384578063715018a614610314578063a3f4df7e146102c1578063f2fde38b1461020b578063f44c339d14610183578063fa5441611461012b578063ffa1ad74146100d45763fff35b721461008357600080fd5b346100cd576003199082823601126100cd5783359167ffffffffffffffff83116100d0576101609083360301126100cd57506020926100c6916024359101610543565b9051908152f35b80fd5b5080fd5b5090346100d057816003193601126100d057610127906100f2610446565b90600582527f302e322e30000000000000000000000000000000000000000000000000000000602083015251918291826104fa565b0390f35b5082346100d05760203660031901126100d0576001600160a01b0383816101506104e4565b16938481528060205220541691821561016d576020838551908152f35b8351633d3fff5360e21b81529182015260249150fd5b5091346102075760603660031901126102075760243567ffffffffffffffff8111610203576101b5903690830161047c565b90604435936001600160a01b03851685036100cd5750926101d991602094356105d8565b90517fffffffff000000000000000000000000000000000000000000000000000000009091168152f35b8380fd5b8280fd5b50919034610207576020366003190112610207576102276104e4565b803b6102a2576001600160a01b0380911692831561029457503384528360205281842054169083208273ffffffffffffffffffffffffffffffffffffffff19825416179055337fc8894f26f396ce8c004245c8b7cd1b92103a6e4302fcbab883987149ac01b7ec8480a480f35b82516307e179e960e31b8152fd5b826001600160a01b0360249351926377817ac360e01b84521690820152fd5b5090346100d057816003193601126100d057610127906102df610446565b90601f82527f4543445341204f776e657273686970205265676973747279204d6f64756c6500602083015251918291826104fa565b50809134610381578160031936011261038157338252816020526001600160a01b03818320541690822073ffffffffffffffffffffffffffffffffffffffff198154169055337fc8894f26f396ce8c004245c8b7cd1b92103a6e4302fcbab883987149ac01b7ec8380a480f35b50fd5b5091346102075760203660031901126102075761039f6104e4565b338452836020526001600160a01b03908184862054166103f05716908115610294575081602093338152808552209073ffffffffffffffffffffffffffffffffffffffff1982541617905551308152f35b8351632c4dfb7d60e21b81523381850152602490fd5b50346100cd57816003193601126100cd576024359067ffffffffffffffff82116100cd575060209261043e6101d9923690830161047c565b3391356105d8565b604051906040820182811067ffffffffffffffff82111761046657604052565b634e487b7160e01b600052604160045260246000fd5b81601f820112156104df5780359067ffffffffffffffff928383116104665760405193601f8401601f19908116603f011685019081118582101761046657604052828452602083830101116104df57816000926020809301838601378301015290565b600080fd5b600435906001600160a01b03821682036104df57565b6020808252825181830181905290939260005b82811061052f57505060409293506000838284010152601f8019910116010190565b81810186015184820160400152850161050d565b610140810135601e19823603018112156104df57810167ffffffffffffffff81358181116104df57602083019080360382136104df578301906040848303126104df57359182116104df576040916020806105a293019185010161047c565b910135916001600160a01b0392838116036104df573591821682036104df576105ca92610616565b6105d357600190565b600090565b906105e39291610616565b61060b577fffffffff0000000000000000000000000000000000000000000000000000000090565b630b135d3f60e11b90565b916001600160a01b038091169160009383855284602052826040862054169384156106c4575060418251106106b2577f19457468657265756d205369676e6564204d6573736167653a0a333200000000855280601c528261068561067d84603c89206107f6565b9190916106dc565b1684146106a8576106999161067d916107f6565b16146106a25790565b50600190565b5050505050600190565b604051632bb1a9c560e11b8152600490fd5b60249060405190633d3fff5360e21b82526004820152fd5b60058110156107e057806106ed5750565b6001810361073a5760405162461bcd60e51b815260206004820152601860248201527f45434453413a20696e76616c6964207369676e617475726500000000000000006044820152606490fd5b600281036107875760405162461bcd60e51b815260206004820152601f60248201527f45434453413a20696e76616c6964207369676e6174757265206c656e677468006044820152606490fd5b60031461079057565b60405162461bcd60e51b815260206004820152602260248201527f45434453413a20696e76616c6964207369676e6174757265202773272076616c604482015261756560f01b6064820152608490fd5b634e487b7160e01b600052602160045260246000fd5b90604181511460001461082457610820916020820151906060604084015193015160001a9061082e565b9091565b5050600090600290565b9291907f7fffffffffffffffffffffffffffffff5d576e7357a4501ddfe92f46681b20a083116108ab5791608094939160ff602094604051948552168484015260408301526060820152600093849182805260015afa1561089e5781516001600160a01b038116156106a2579190565b50604051903d90823e3d90fd5b5050505060009060039056fea164736f6c6343000811000a",
  "devdoc": {
    "author": "Fil Makarov - <filipp.makarov@biconomy.io>",
    "details": "Compatible with Biconomy Modular Interface v 0.1         - It allows to validate user operations signed by EOA private key.         - EIP-1271 compatible (ensures Smart Account can validate signed messages).         - One owner per Smart Account.         - Does not support outdated eth_sign flow for cheaper validations         (see https://support.metamask.io/hc/en-us/articles/14764161421467-What-is-eth-sign-and-why-is-it-a-risk-) !!!!!!! Only EOA owners supported, no Smart Account Owners         For Smart Contract Owners check SmartContractOwnership module instead",
    "kind": "dev",
    "methods": {
      "getOwner(address)": {
        "details": "Returns the owner of the Smart Account. Reverts for Smart Accounts without owners.",
        "params": {
          "smartAccount": "Smart Account address."
        },
        "returns": {
          "_0": "owner The owner of the Smart Account."
        }
      },
      "initForSmartAccount(address)": {
        "details": "Initializes the module for a Smart Account. Should be used at a time of first enabling the module for a Smart Account.",
        "params": {
          "eoaOwner": "The owner of the Smart Account. Should be EOA!"
        }
      },
      "isValidSignature(bytes32,bytes)": {
        "details": "Validates a signature for a message. To be called from a Smart Account.",
        "params": {
          "dataHash": "Exact hash of the data that was signed.",
          "moduleSignature": "Signature to be validated."
        },
        "returns": {
          "_0": "EIP1271_MAGIC_VALUE if signature is valid, 0xffffffff otherwise."
        }
      },
      "isValidSignatureForAddress(bytes32,bytes,address)": {
        "details": "Validates a signature for a message signed by address.Also try dataHash.toEthSignedMessageHash()",
        "params": {
          "dataHash": "hash of the data",
          "moduleSignature": "Signature to be validated.",
          "smartAccount": "expected signer Smart Account address."
        },
        "returns": {
          "_0": "EIP1271_MAGIC_VALUE if signature is valid, 0xffffffff otherwise."
        }
      },
      "renounceOwnership()": {
        "details": "Renounces ownership should be called by Smart Account."
      },
      "transferOwnership(address)": {
        "details": "Sets/changes an for a Smart Account. Should be called by Smart Account itself.",
        "params": {
          "owner": "The owner of the Smart Account."
        }
      },
      "validateUserOp((address,uint256,bytes,bytes,uint256,uint256,uint256,uint256,uint256,bytes,bytes),bytes32)": {
        "details": "validates userOperation",
        "params": {
          "userOp": "User Operation to be validated.",
          "userOpHash": "Hash of the User Operation to be validated."
        },
        "returns": {
          "_0": "sigValidationResult 0 if signature is valid, SIG_VALIDATION_FAILED otherwise."
        }
      }
    },
    "title": "ECDSA ownership Authorization module for Biconomy Smart Accounts.",
    "version": 1
  },
  "userdoc": {
    "kind": "user",
    "methods": {},
    "version": 1
  },
  "storageLayout": {
    "storage": [
      {
        "astId": 14190,
        "contract": "contracts/modules/EcdsaOwnershipRegistryModule.sol:EcdsaOwnershipRegistryModule",
        "label": "_smartAccountOwners",
        "offset": 0,
        "slot": "0",
        "type": "t_mapping(t_address,t_address)"
      }
    ],
    "types": {
      "t_address": {
        "encoding": "inplace",
        "label": "address",
        "numberOfBytes": "20"
      },
      "t_mapping(t_address,t_address)": {
        "encoding": "mapping",
        "key": "t_address",
        "label": "mapping(address => address)",
        "numberOfBytes": "32",
        "value": "t_address"
      }
    }
  }
}