{
  "address": "0x5FbDB2315678afecb367f032d93F642f64180aa3",
  "abi": [
    {
      "inputs": [
        {
          "internalType": "uint256",
          "name": "preOpGas",
          "type": "uint256"
        },
        {
          "internalType": "uint256",
          "name": "paid",
          "type": "uint256"
        },
        {
          "internalType": "uint48",
          "name": "validAfter",
          "type": "uint48"
        },
        {
          "internalType": "uint48",
          "name": "validUntil",
          "type": "uint48"
        },
        {
          "internalType": "bool",
          "name": "targetSuccess",
          "type": "bool"
        },
        {
          "internalType": "bytes",
          "name": "targetResult",
          "type": "bytes"
        }
      ],
      "name": "ExecutionResult",
      "type": "error"
    },
    {
      "inputs": [
        {
          "internalType": "uint256",
          "name": "opIndex",
          "type": "uint256"
        },
        {
          "internalType": "string",
          "name": "reason",
          "type": "string"
        }
      ],
      "name": "FailedOp",
      "type": "error"
    },
    {
      "inputs": [
        {
          "internalType": "address",
          "name": "sender",
          "type": "address"
        }
      ],
      "name": "SenderAddressResult",
      "type": "error"
    },
    {
      "inputs": [
        {
          "internalType": "address",
          "name": "aggregator",
          "type": "address"
        }
      ],
      "name": "SignatureValidationFailed",
      "type": "error"
    },
    {
      "inputs": [
        {
          "components": [
            {
              "internalType": "uint256",
              "name": "preOpGas",
              "type": "uint256"
            },
            {
              "internalType": "uint256",
              "name": "prefund",
              "type": "uint256"
            },
            {
              "internalType": "bool",
              "name": "sigFailed",
              "type": "bool"
            },
            {
              "internalType": "uint48",
              "name": "validAfter",
              "type": "uint48"
            },
            {
              "internalType": "uint48",
              "name": "validUntil",
              "type": "uint48"
            },
            {
              "internalType": "bytes",
              "name": "paymasterContext",
              "type": "bytes"
            }
          ],
          "internalType": "struct IEntryPoint.ReturnInfo",
          "name": "returnInfo",
          "type": "tuple"
        },
        {
          "components": [
            {
              "internalType": "uint256",
              "name": "stake",
              "type": "uint256"
            },
            {
              "internalType": "uint256",
              "name": "unstakeDelaySec",
              "type": "uint256"
            }
          ],
          "internalType": "struct IStakeManager.StakeInfo",
          "name": "senderInfo",
          "type": "tuple"
        },
        {
          "components": [
            {
              "internalType": "uint256",
              "name": "stake",
              "type": "uint256"
            },
            {
              "internalType": "uint256",
              "name": "unstakeDelaySec",
              "type": "uint256"
            }
          ],
          "internalType": "struct IStakeManager.StakeInfo",
          "name": "factoryInfo",
          "type": "tuple"
        },
        {
          "components": [
            {
              "internalType": "uint256",
              "name": "stake",
              "type": "uint256"
            },
            {
              "internalType": "uint256",
              "name": "unstakeDelaySec",
              "type": "uint256"
            }
          ],
          "internalType": "struct IStakeManager.StakeInfo",
          "name": "paymasterInfo",
          "type": "tuple"
        }
      ],
      "name": "ValidationResult",
      "type": "error"
    },
    {
      "inputs": [
        {
          "components": [
            {
              "internalType": "uint256",
              "name": "preOpGas",
              "type": "uint256"
            },
            {
              "internalType": "uint256",
              "name": "prefund",
              "type": "uint256"
            },
            {
              "internalType": "bool",
              "name": "sigFailed",
              "type": "bool"
            },
            {
              "internalType": "uint48",
              "name": "validAfter",
              "type": "uint48"
            },
            {
              "internalType": "uint48",
              "name": "validUntil",
              "type": "uint48"
            },
            {
              "internalType": "bytes",
              "name": "paymasterContext",
              "type": "bytes"
            }
          ],
          "internalType": "struct IEntryPoint.ReturnInfo",
          "name": "returnInfo",
          "type": "tuple"
        },
        {
          "components": [
            {
              "internalType": "uint256",
              "name": "stake",
              "type": "uint256"
            },
            {
              "internalType": "uint256",
              "name": "unstakeDelaySec",
              "type": "uint256"
            }
          ],
          "internalType": "struct IStakeManager.StakeInfo",
          "name": "senderInfo",
          "type": "tuple"
        },
        {
          "components": [
            {
              "internalType": "uint256",
              "name": "stake",
              "type": "uint256"
            },
            {
              "internalType": "uint256",
              "name": "unstakeDelaySec",
              "type": "uint256"
            }
          ],
          "internalType": "struct IStakeManager.StakeInfo",
          "name": "factoryInfo",
          "type": "tuple"
        },
        {
          "components": [
            {
              "internalType": "uint256",
              "name": "stake",
              "type": "uint256"
            },
            {
              "internalType": "uint256",
              "name": "unstakeDelaySec",
              "type": "uint256"
            }
          ],
          "internalType": "struct IStakeManager.StakeInfo",
          "name": "paymasterInfo",
          "type": "tuple"
        },
        {
          "components": [
            {
              "internalType": "address",
              "name": "aggregator",
              "type": "address"
            },
            {
              "components": [
                {
                  "internalType": "uint256",
                  "name": "stake",
                  "type": "uint256"
                },
                {
                  "internalType": "uint256",
                  "name": "unstakeDelaySec",
                  "type": "uint256"
                }
              ],
              "internalType": "struct IStakeManager.StakeInfo",
              "name": "stakeInfo",
              "type": "tuple"
            }
          ],
          "internalType": "struct IEntryPoint.AggregatorStakeInfo",
          "name": "aggregatorInfo",
          "type": "tuple"
        }
      ],
      "name": "ValidationResultWithAggregation",
      "type": "error"
    },
    {
      "anonymous": false,
      "inputs": [
        {
          "indexed": true,
          "internalType": "bytes32",
          "name": "userOpHash",
          "type": "bytes32"
        },
        {
          "indexed": true,
          "internalType": "address",
          "name": "sender",
          "type": "address"
        },
        {
          "indexed": false,
          "internalType": "address",
          "name": "factory",
          "type": "address"
        },
        {
          "indexed": false,
          "internalType": "address",
          "name": "paymaster",
          "type": "address"
        }
      ],
      "name": "AccountDeployed",
      "type": "event"
    },
    {
      "anonymous": false,
      "inputs": [],
      "name": "BeforeExecution",
      "type": "event"
    },
    {
      "anonymous": false,
      "inputs": [
        {
          "indexed": true,
          "internalType": "address",
          "name": "account",
          "type": "address"
        },
        {
          "indexed": false,
          "internalType": "uint256",
          "name": "totalDeposit",
          "type": "uint256"
        }
      ],
      "name": "Deposited",
      "type": "event"
    },
    {
      "anonymous": false,
      "inputs": [
        {
          "indexed": true,
          "internalType": "address",
          "name": "aggregator",
          "type": "address"
        }
      ],
      "name": "SignatureAggregatorChanged",
      "type": "event"
    },
    {
      "anonymous": false,
      "inputs": [
        {
          "indexed": true,
          "internalType": "address",
          "name": "account",
          "type": "address"
        },
        {
          "indexed": false,
          "internalType": "uint256",
          "name": "totalStaked",
          "type": "uint256"
        },
        {
          "indexed": false,
          "internalType": "uint256",
          "name": "unstakeDelaySec",
          "type": "uint256"
        }
      ],
      "name": "StakeLocked",
      "type": "event"
    },
    {
      "anonymous": false,
      "inputs": [
        {
          "indexed": true,
          "internalType": "address",
          "name": "account",
          "type": "address"
        },
        {
          "indexed": false,
          "internalType": "uint256",
          "name": "withdrawTime",
          "type": "uint256"
        }
      ],
      "name": "StakeUnlocked",
      "type": "event"
    },
    {
      "anonymous": false,
      "inputs": [
        {
          "indexed": true,
          "internalType": "address",
          "name": "account",
          "type": "address"
        },
        {
          "indexed": false,
          "internalType": "address",
          "name": "withdrawAddress",
          "type": "address"
        },
        {
          "indexed": false,
          "internalType": "uint256",
          "name": "amount",
          "type": "uint256"
        }
      ],
      "name": "StakeWithdrawn",
      "type": "event"
    },
    {
      "anonymous": false,
      "inputs": [
        {
          "indexed": true,
          "internalType": "bytes32",
          "name": "userOpHash",
          "type": "bytes32"
        },
        {
          "indexed": true,
          "internalType": "address",
          "name": "sender",
          "type": "address"
        },
        {
          "indexed": true,
          "internalType": "address",
          "name": "paymaster",
          "type": "address"
        },
        {
          "indexed": false,
          "internalType": "uint256",
          "name": "nonce",
          "type": "uint256"
        },
        {
          "indexed": false,
          "internalType": "bool",
          "name": "success",
          "type": "bool"
        },
        {
          "indexed": false,
          "internalType": "uint256",
          "name": "actualGasCost",
          "type": "uint256"
        },
        {
          "indexed": false,
          "internalType": "uint256",
          "name": "actualGasUsed",
          "type": "uint256"
        }
      ],
      "name": "UserOperationEvent",
      "type": "event"
    },
    {
      "anonymous": false,
      "inputs": [
        {
          "indexed": true,
          "internalType": "bytes32",
          "name": "userOpHash",
          "type": "bytes32"
        },
        {
          "indexed": true,
          "internalType": "address",
          "name": "sender",
          "type": "address"
        },
        {
          "indexed": false,
          "internalType": "uint256",
          "name": "nonce",
          "type": "uint256"
        },
        {
          "indexed": false,
          "internalType": "bytes",
          "name": "revertReason",
          "type": "bytes"
        }
      ],
      "name": "UserOperationRevertReason",
      "type": "event"
    },
    {
      "anonymous": false,
      "inputs": [
        {
          "indexed": true,
          "internalType": "address",
          "name": "account",
          "type": "address"
        },
        {
          "indexed": false,
          "internalType": "address",
          "name": "withdrawAddress",
          "type": "address"
        },
        {
          "indexed": false,
          "internalType": "uint256",
          "name": "amount",
          "type": "uint256"
        }
      ],
      "name": "Withdrawn",
      "type": "event"
    },
    {
      "anonymous": false,
      "inputs": [
        {
          "indexed": false,
          "internalType": "uint256",
          "name": "a",
          "type": "uint256"
        },
        {
          "indexed": false,
          "internalType": "uint256",
          "name": "b",
          "type": "uint256"
        }
      ],
      "name": "debug1",
      "type": "event"
    },
    {
      "anonymous": false,
      "inputs": [
        {
          "indexed": false,
          "internalType": "uint256",
          "name": "",
          "type": "uint256"
        }
      ],
      "name": "gasLeft",
      "type": "event"
    },
    {
      "anonymous": false,
      "inputs": [
        {
          "indexed": false,
          "internalType": "string",
          "name": "",
          "type": "string"
        }
      ],
      "name": "testEvent",
      "type": "event"
    },
    {
      "inputs": [],
      "name": "SIG_VALIDATION_FAILED",
      "outputs": [
        {
          "internalType": "uint256",
          "name": "",
          "type": "uint256"
        }
      ],
      "stateMutability": "view",
      "type": "function"
    },
    {
      "inputs": [
        {
          "internalType": "bytes",
          "name": "initCode",
          "type": "bytes"
        },
        {
          "internalType": "address",
          "name": "sender",
          "type": "address"
        },
        {
          "internalType": "bytes",
          "name": "paymasterAndData",
          "type": "bytes"
        }
      ],
      "name": "_validateSenderAndPaymaster",
      "outputs": [],
      "stateMutability": "view",
      "type": "function"
    },
    {
      "inputs": [
        {
          "internalType": "uint32",
          "name": "unstakeDelaySec",
          "type": "uint32"
        }
      ],
      "name": "addStake",
      "outputs": [],
      "stateMutability": "payable",
      "type": "function"
    },
    {
      "inputs": [
        {
          "internalType": "address",
          "name": "account",
          "type": "address"
        }
      ],
      "name": "balanceOf",
      "outputs": [
        {
          "internalType": "uint256",
          "name": "",
          "type": "uint256"
        }
      ],
      "stateMutability": "view",
      "type": "function"
    },
    {
      "inputs": [
        {
          "internalType": "address",
          "name": "account",
          "type": "address"
        }
      ],
      "name": "depositTo",
      "outputs": [],
      "stateMutability": "payable",
      "type": "function"
    },
    {
      "inputs": [
        {
          "internalType": "address",
          "name": "",
          "type": "address"
        }
      ],
      "name": "deposits",
      "outputs": [
        {
          "internalType": "uint112",
          "name": "deposit",
          "type": "uint112"
        },
        {
          "internalType": "bool",
          "name": "staked",
          "type": "bool"
        },
        {
          "internalType": "uint112",
          "name": "stake",
          "type": "uint112"
        },
        {
          "internalType": "uint32",
          "name": "unstakeDelaySec",
          "type": "uint32"
        },
        {
          "internalType": "uint48",
          "name": "withdrawTime",
          "type": "uint48"
        }
      ],
      "stateMutability": "view",
      "type": "function"
    },
    {
      "inputs": [
        {
          "internalType": "address",
          "name": "account",
          "type": "address"
        }
      ],
      "name": "getDepositInfo",
      "outputs": [
        {
          "components": [
            {
              "internalType": "uint112",
              "name": "deposit",
              "type": "uint112"
            },
            {
              "internalType": "bool",
              "name": "staked",
              "type": "bool"
            },
            {
              "internalType": "uint112",
              "name": "stake",
              "type": "uint112"
            },
            {
              "internalType": "uint32",
              "name": "unstakeDelaySec",
              "type": "uint32"
            },
            {
              "internalType": "uint48",
              "name": "withdrawTime",
              "type": "uint48"
            }
          ],
          "internalType": "struct IStakeManager.DepositInfo",
          "name": "info",
          "type": "tuple"
        }
      ],
      "stateMutability": "view",
      "type": "function"
    },
    {
      "inputs": [
        {
          "internalType": "address",
          "name": "sender",
          "type": "address"
        },
        {
          "internalType": "uint192",
          "name": "key",
          "type": "uint192"
        }
      ],
      "name": "getNonce",
      "outputs": [
        {
          "internalType": "uint256",
          "name": "nonce",
          "type": "uint256"
        }
      ],
      "stateMutability": "view",
      "type": "function"
    },
    {
      "inputs": [
        {
          "internalType": "bytes",
          "name": "initCode",
          "type": "bytes"
        }
      ],
      "name": "getSenderAddress",
      "outputs": [],
      "stateMutability": "nonpayable",
      "type": "function"
    },
    {
      "inputs": [
        {
          "components": [
            {
              "internalType": "address",
              "name": "sender",
              "type": "address"
            },
            {
              "internalType": "uint256",
              "name": "nonce",
              "type": "uint256"
            },
            {
              "internalType": "bytes",
              "name": "initCode",
              "type": "bytes"
            },
            {
              "internalType": "bytes",
              "name": "callData",
              "type": "bytes"
            },
            {
              "internalType": "uint256",
              "name": "callGasLimit",
              "type": "uint256"
            },
            {
              "internalType": "uint256",
              "name": "verificationGasLimit",
              "type": "uint256"
            },
            {
              "internalType": "uint256",
              "name": "preVerificationGas",
              "type": "uint256"
            },
            {
              "internalType": "uint256",
              "name": "maxFeePerGas",
              "type": "uint256"
            },
            {
              "internalType": "uint256",
              "name": "maxPriorityFeePerGas",
              "type": "uint256"
            },
            {
              "internalType": "bytes",
              "name": "paymasterAndData",
              "type": "bytes"
            },
            {
              "internalType": "bytes",
              "name": "signature",
              "type": "bytes"
            }
          ],
          "internalType": "struct UserOperation",
          "name": "userOp",
          "type": "tuple"
        }
      ],
      "name": "getUserOpHash",
      "outputs": [
        {
          "internalType": "bytes32",
          "name": "",
          "type": "bytes32"
        }
      ],
      "stateMutability": "view",
      "type": "function"
    },
    {
      "inputs": [
        {
          "components": [
            {
              "components": [
                {
                  "internalType": "address",
                  "name": "sender",
                  "type": "address"
                },
                {
                  "internalType": "uint256",
                  "name": "nonce",
                  "type": "uint256"
                },
                {
                  "internalType": "bytes",
                  "name": "initCode",
                  "type": "bytes"
                },
                {
                  "internalType": "bytes",
                  "name": "callData",
                  "type": "bytes"
                },
                {
                  "internalType": "uint256",
                  "name": "callGasLimit",
                  "type": "uint256"
                },
                {
                  "internalType": "uint256",
                  "name": "verificationGasLimit",
                  "type": "uint256"
                },
                {
                  "internalType": "uint256",
                  "name": "preVerificationGas",
                  "type": "uint256"
                },
                {
                  "internalType": "uint256",
                  "name": "maxFeePerGas",
                  "type": "uint256"
                },
                {
                  "internalType": "uint256",
                  "name": "maxPriorityFeePerGas",
                  "type": "uint256"
                },
                {
                  "internalType": "bytes",
                  "name": "paymasterAndData",
                  "type": "bytes"
                },
                {
                  "internalType": "bytes",
                  "name": "signature",
                  "type": "bytes"
                }
              ],
              "internalType": "struct UserOperation[]",
              "name": "userOps",
              "type": "tuple[]"
            },
            {
              "internalType": "contract IAggregator",
              "name": "aggregator",
              "type": "address"
            },
            {
              "internalType": "bytes",
              "name": "signature",
              "type": "bytes"
            }
          ],
          "internalType": "struct IEntryPoint.UserOpsPerAggregator[]",
          "name": "opsPerAggregator",
          "type": "tuple[]"
        },
        {
          "internalType": "address payable",
          "name": "beneficiary",
          "type": "address"
        }
      ],
      "name": "handleAggregatedOps",
      "outputs": [],
      "stateMutability": "nonpayable",
      "type": "function"
    },
    {
      "inputs": [
        {
          "components": [
            {
              "internalType": "address",
              "name": "sender",
              "type": "address"
            },
            {
              "internalType": "uint256",
              "name": "nonce",
              "type": "uint256"
            },
            {
              "internalType": "bytes",
              "name": "initCode",
              "type": "bytes"
            },
            {
              "internalType": "bytes",
              "name": "callData",
              "type": "bytes"
            },
            {
              "internalType": "uint256",
              "name": "callGasLimit",
              "type": "uint256"
            },
            {
              "internalType": "uint256",
              "name": "verificationGasLimit",
              "type": "uint256"
            },
            {
              "internalType": "uint256",
              "name": "preVerificationGas",
              "type": "uint256"
            },
            {
              "internalType": "uint256",
              "name": "maxFeePerGas",
              "type": "uint256"
            },
            {
              "internalType": "uint256",
              "name": "maxPriorityFeePerGas",
              "type": "uint256"
            },
            {
              "internalType": "bytes",
              "name": "paymasterAndData",
              "type": "bytes"
            },
            {
              "internalType": "bytes",
              "name": "signature",
              "type": "bytes"
            }
          ],
          "internalType": "struct UserOperation[]",
          "name": "ops",
          "type": "tuple[]"
        },
        {
          "internalType": "address payable",
          "name": "beneficiary",
          "type": "address"
        }
      ],
      "name": "handleOps",
      "outputs": [],
      "stateMutability": "nonpayable",
      "type": "function"
    },
    {
      "inputs": [
        {
          "internalType": "uint192",
          "name": "key",
          "type": "uint192"
        }
      ],
      "name": "incrementNonce",
      "outputs": [],
      "stateMutability": "nonpayable",
      "type": "function"
    },
    {
      "inputs": [
        {
          "internalType": "bytes",
          "name": "callData",
          "type": "bytes"
        },
        {
          "components": [
            {
              "components": [
                {
                  "internalType": "address",
                  "name": "sender",
                  "type": "address"
                },
                {
                  "internalType": "uint256",
                  "name": "nonce",
                  "type": "uint256"
                },
                {
                  "internalType": "uint256",
                  "name": "callGasLimit",
                  "type": "uint256"
                },
                {
                  "internalType": "uint256",
                  "name": "verificationGasLimit",
                  "type": "uint256"
                },
                {
                  "internalType": "uint256",
                  "name": "preVerificationGas",
                  "type": "uint256"
                },
                {
                  "internalType": "address",
                  "name": "paymaster",
                  "type": "address"
                },
                {
                  "internalType": "uint256",
                  "name": "maxFeePerGas",
                  "type": "uint256"
                },
                {
                  "internalType": "uint256",
                  "name": "maxPriorityFeePerGas",
                  "type": "uint256"
                }
              ],
              "internalType": "struct EntryPoint.MemoryUserOp",
              "name": "mUserOp",
              "type": "tuple"
            },
            {
              "internalType": "bytes32",
              "name": "userOpHash",
              "type": "bytes32"
            },
            {
              "internalType": "uint256",
              "name": "prefund",
              "type": "uint256"
            },
            {
              "internalType": "uint256",
              "name": "contextOffset",
              "type": "uint256"
            },
            {
              "internalType": "uint256",
              "name": "preOpGas",
              "type": "uint256"
            }
          ],
          "internalType": "struct EntryPoint.UserOpInfo",
          "name": "opInfo",
          "type": "tuple"
        },
        {
          "internalType": "bytes",
          "name": "context",
          "type": "bytes"
        }
      ],
      "name": "innerHandleOp",
      "outputs": [
        {
          "internalType": "uint256",
          "name": "actualGasCost",
          "type": "uint256"
        }
      ],
      "stateMutability": "nonpayable",
      "type": "function"
    },
    {
      "inputs": [
        {
          "internalType": "address",
          "name": "",
          "type": "address"
        },
        {
          "internalType": "uint192",
          "name": "",
          "type": "uint192"
        }
      ],
      "name": "nonceSequenceNumber",
      "outputs": [
        {
          "internalType": "uint256",
          "name": "",
          "type": "uint256"
        }
      ],
      "stateMutability": "view",
      "type": "function"
    },
    {
      "inputs": [
        {
          "components": [
            {
              "internalType": "address",
              "name": "sender",
              "type": "address"
            },
            {
              "internalType": "uint256",
              "name": "nonce",
              "type": "uint256"
            },
            {
              "internalType": "bytes",
              "name": "initCode",
              "type": "bytes"
            },
            {
              "internalType": "bytes",
              "name": "callData",
              "type": "bytes"
            },
            {
              "internalType": "uint256",
              "name": "callGasLimit",
              "type": "uint256"
            },
            {
              "internalType": "uint256",
              "name": "verificationGasLimit",
              "type": "uint256"
            },
            {
              "internalType": "uint256",
              "name": "preVerificationGas",
              "type": "uint256"
            },
            {
              "internalType": "uint256",
              "name": "maxFeePerGas",
              "type": "uint256"
            },
            {
              "internalType": "uint256",
              "name": "maxPriorityFeePerGas",
              "type": "uint256"
            },
            {
              "internalType": "bytes",
              "name": "paymasterAndData",
              "type": "bytes"
            },
            {
              "internalType": "bytes",
              "name": "signature",
              "type": "bytes"
            }
          ],
          "internalType": "struct UserOperation",
          "name": "op",
          "type": "tuple"
        },
        {
          "internalType": "address",
          "name": "target",
          "type": "address"
        },
        {
          "internalType": "bytes",
          "name": "targetCallData",
          "type": "bytes"
        }
      ],
      "name": "simulateHandleOp",
      "outputs": [],
      "stateMutability": "nonpayable",
      "type": "function"
    },
    {
      "inputs": [
        {
          "components": [
            {
              "internalType": "address",
              "name": "sender",
              "type": "address"
            },
            {
              "internalType": "uint256",
              "name": "nonce",
              "type": "uint256"
            },
            {
              "internalType": "bytes",
              "name": "initCode",
              "type": "bytes"
            },
            {
              "internalType": "bytes",
              "name": "callData",
              "type": "bytes"
            },
            {
              "internalType": "uint256",
              "name": "callGasLimit",
              "type": "uint256"
            },
            {
              "internalType": "uint256",
              "name": "verificationGasLimit",
              "type": "uint256"
            },
            {
              "internalType": "uint256",
              "name": "preVerificationGas",
              "type": "uint256"
            },
            {
              "internalType": "uint256",
              "name": "maxFeePerGas",
              "type": "uint256"
            },
            {
              "internalType": "uint256",
              "name": "maxPriorityFeePerGas",
              "type": "uint256"
            },
            {
              "internalType": "bytes",
              "name": "paymasterAndData",
              "type": "bytes"
            },
            {
              "internalType": "bytes",
              "name": "signature",
              "type": "bytes"
            }
          ],
          "internalType": "struct UserOperation",
          "name": "userOp",
          "type": "tuple"
        }
      ],
      "name": "simulateValidation",
      "outputs": [],
      "stateMutability": "nonpayable",
      "type": "function"
    },
    {
      "inputs": [],
      "name": "unlockStake",
      "outputs": [],
      "stateMutability": "nonpayable",
      "type": "function"
    },
    {
      "inputs": [
        {
          "internalType": "address payable",
          "name": "withdrawAddress",
          "type": "address"
        }
      ],
      "name": "withdrawStake",
      "outputs": [],
      "stateMutability": "nonpayable",
      "type": "function"
    },
    {
      "inputs": [
        {
          "internalType": "address payable",
          "name": "withdrawAddress",
          "type": "address"
        },
        {
          "internalType": "uint256",
          "name": "withdrawAmount",
          "type": "uint256"
        }
      ],
      "name": "withdrawTo",
      "outputs": [],
      "stateMutability": "nonpayable",
      "type": "function"
    },
    {
      "stateMutability": "payable",
      "type": "receive"
    }
  ],
  "transactionHash": "0x53652e26b775967cf0b72d18aa2d91e51d5bcd116f38e85774d36b93fe18dba5",
  "args": [],
  "numDeployments": 1,
  "solcInputHash": "644daa79a100685eea6955cd2b79ae47",
  "bytecode": "0x60a08060405234620000895760016002556101b98181016001600160401b038111838210176200007357829162004a78833903906000f0801562000067576080526040516149e990816200008f8239608051818181611032015281816131ef01526134580152f35b6040513d6000823e3d90fd5b634e487b7160e01b600052604160045260246000fd5b600080fdfe60806040526004361015610023575b361561001957600080fd5b6100216143fd565b005b60003560e01c80630396cb60146101b35780630bd28e3b146101aa5780631b2e01b8146101a15780631d732756146101985780631fad948c1461018f578063205c28781461018657806335567e1a1461017d5780634b1d7cf5146101745780635287ce121461016b57806370a08231146101625780638f41ec5a14610159578063957122ab146101505780639b249f6914610147578063a61935311461013e578063b760faf914610135578063bb9fe6bf1461012c578063c23a5cea14610123578063d6383f941461011a578063ee219423146101115763fc7e286d0361000e5761010c611657565b61000e565b5061010c6114b2565b5061010c61138e565b5061010c611256565b5061010c611134565b5061010c611113565b5061010c6110f2565b5061010c610fce565b5061010c610e67565b5061010c610e4a565b5061010c610df7565b5061010c610ce0565b5061010c6109e0565b5061010c61096e565b5061010c61084d565b5061010c610723565b5061010c6105aa565b5061010c6103bc565b5061010c610327565b50602036600319011261030c5760043563ffffffff811680820361030c576103077fa5ae833d0bb1dcd632d98a8b70973e8516812898e19bf27b70071ebc8dc52c0191610246610216336001600160a01b03166000526000602052604060002090565b91610222811515614503565b61023f610236600185015463ffffffff1690565b63ffffffff1690565b111561454f565b54926102e96001600160701b03946102b461026634888460781c16611abd565b9661027288151561459b565b61027e818911156145e7565b61029b8161028a6104cd565b941684906001600160701b03169052565b6001602084015287166001600160701b03166040830152565b63ffffffff83166060820152600060808201526102e4336001600160a01b03166000526000602052604060002090565b614633565b6040805194855263ffffffff90911660208501523393918291820190565b0390a2005b600080fd5b602435906001600160c01b038216820361030c57565b503461030c57602036600319011261030c576004356001600160c01b038116810361030c57610376903360005260016020526040600020906001600160c01b0316600052602052604060002090565b6103808154611cbc565b9055005b6001600160a01b0381160361030c57565b602435906103a282610384565b565b60c435906103a282610384565b35906103a282610384565b503461030c57604036600319011261030c5760206104156004356103df81610384565b6001600160a01b036103ef610311565b9116600052600183526040600020906001600160c01b0316600052602052604060002090565b54604051908152f35b50634e487b7160e01b600052604160045260246000fd5b60a0810190811067ffffffffffffffff82111761045157604052565b61045961041e565b604052565b610100810190811067ffffffffffffffff82111761045157604052565b67ffffffffffffffff811161045157604052565b6060810190811067ffffffffffffffff82111761045157604052565b90601f8019910116810190811067ffffffffffffffff82111761045157604052565b604051906103a282610435565b6040519060c0820182811067ffffffffffffffff82111761045157604052565b604051906040820182811067ffffffffffffffff82111761045157604052565b60209067ffffffffffffffff8111610538575b601f01601f19160190565b61054061041e565b61052d565b9291926105518261051a565b9161055f60405193846104ab565b82948184528183011161030c578281602093846000960137010152565b9181601f8401121561030c5782359167ffffffffffffffff831161030c576020838186019501011161030c57565b503461030c576101c036600319011261030c5767ffffffffffffffff60043581811161030c573660238201121561030c576105ef903690602481600401359101610545565b903660231901610180811261030c576101006040519161060e83610435565b1261030c5760405161061f8161045e565b610627610395565b815260443560208201526064356040820152608435606082015260a43560808201526106516103a4565b60a082015260e43560c08201526101043560e082015281526101243560208201526101443560408201526101643560608201526101843560808201526101a43591821161030c576106c5926106ad6106b593369060040161057c565b929091611fea565b6040519081529081906020820190565b0390f35b90604060031983011261030c5760043567ffffffffffffffff9283821161030c578060238301121561030c57816004013593841161030c5760248460051b8301011161030c57602401919060243561072081610384565b90565b503461030c57610732366106c9565b509061073c61495f565b61074582611785565b907f4c2aaf95bd72b0b4730a09397fa14d7c339e8b90471d39e1ec89baed0628ed24604051806107a78160609060208152600960208201527f72756e6e2068657265000000000000000000000000000000000000000000000060408201520190565b0390a160005b83811061081b57506000907fbb47ee3e183a558b1a2ff0874b079f3fc5478b7454eacf2bfc5af2ff5878f9728280a1815b8483106107ef576100216001600255565b60019061081261080085888661180e565b61080a86886117ec565b519086611bc9565b019201916107de565b8061084761084061082e600194876117ec565b5161083a84898861180e565b846129e1565b90836125fe565b016107ad565b503461030c57604036600319011261030c5760043561086b81610384565b6024359060009133835282602052604083206001600160701b03815416928383116109295784836001600160a01b038295936108d984966108bf6108b387986109269c611a99565b6001600160701b031690565b6001600160701b03166001600160701b0319825416179055565b604080516001600160a01b03831681526020810185905233917fd1c19fbcd4551a5edfb66d43d2e337c04837afda3482b42bdf569a8fccdae5fb91a2165af161092061183f565b506148c7565b80f35b60405162461bcd60e51b815260206004820152601960248201527f576974686472617720616d6f756e7420746f6f206c61726765000000000000006044820152606490fd5b503461030c57604036600319011261030c57602060043561098e81610384565b6001600160a01b0361099e610311565b9116600052600182526109c8816040600020906001600160c01b0316600052602052604060002090565b546040805192901b67ffffffffffffffff1916178152f35b503461030c576109ef366106c9565b6109f761495f565b6000805b838210610bce57610a0c9150611785565b7fbb47ee3e183a558b1a2ff0874b079f3fc5478b7454eacf2bfc5af2ff5878f972600080a16000805b848110610b4157505060008093815b818110610a8557610a7b868660007f575ff3acadd5ab348fe1855e217e0f3678f8d767d7494c9f9fefbee2e17cca4d8180a261186f565b6100216001600255565b610adc610a9382848a611cd8565b610ab1610aa5610aa560208401611d3e565b6001600160a01b031690565b7f575ff3acadd5ab348fe1855e217e0f3678f8d767d7494c9f9fefbee2e17cca4d600080a280611d08565b906000915b808310610af957505050610af490611cbc565b610a44565b90919497610b34610b2e610b3a92610b288c8b610b2182610b1b8e8b8d61180e565b926117ec565b5191611bc9565b90611abd565b99611cbc565b95611cbc565b9190610ae1565b610b4c818688611cd8565b6020610b64610b5b8380611d08565b92909301611d3e565b916001600160a01b0360009316905b828410610b8c5750505050610b8790611cbc565b610a35565b90919294610b3481610bc185610bba610ba8610bc6968d6117ec565b51610bb48c8b8a61180e565b856129e1565b908b612777565b611cbc565b929190610b73565b610bd9828587611cd8565b90610be48280611d08565b92610bf4610aa560208301611d3e565b916001600160a01b038316610c0c6001821415611d48565b610c2d575b505050610c2791610c2191611abd565b91611cbc565b906109fb565b909592610c466040999693999895989788810190611921565b92908a3b1561030c5789938b918a51938492839263e3563a4f60e01b845260049e8f850193610c7494611e9e565b03815a93600094fa9081610cc7575b50610cb157865163086a9f7560e41b81526001600160a01b038a16818a0190815281906020010390fd5b0390fd5b9497509295509093509181610c21610c27610c11565b80610cd4610cda9261047b565b80610e3f565b38610c83565b503461030c57602036600319011261030c576106c56001600160a01b03600435610d0981610384565b608060409283928351610d1b81610435565b600093818580935282602082015282878201528260608201520152168152806020522090610da365ffffffffffff6001835194610d5786610435565b80546001600160701b038082168852607082901c60ff161515602089015260789190911c1685870152015463ffffffff8116606086015260201c16608084019065ffffffffffff169052565b5191829182919091608065ffffffffffff8160a08401956001600160701b03808251168652602082015115156020870152604082015116604086015263ffffffff6060820151166060860152015116910152565b503461030c57602036600319011261030c576001600160a01b03600435610e1d81610384565b16600052600060205260206001600160701b0360406000205416604051908152f35b600091031261030c57565b503461030c57600036600319011261030c57602060405160018152f35b503461030c57606036600319011261030c57600467ffffffffffffffff813581811161030c57610e9a903690840161057c565b905060243591610ea983610384565b60443590811161030c57610ec0903690850161057c565b929091159081610fc4575b50610f77576014821015610f01575b610cad8360405191829162461bcd60e51b8352820160409060208152600060208201520190565b610f11610f1d92610f17926122d3565b906122e1565b60601c90565b3b15610f2a573880610eda565b610cad9060405191829162461bcd60e51b8352820160609060208152601b60208201527f41413330207061796d6173746572206e6f74206465706c6f796564000000000060408201520190565b610cad8360405191829162461bcd60e51b8352820160609060208152601960208201527f41413230206163636f756e74206e6f74206465706c6f7965640000000000000060408201520190565b90503b1538610ecb565b503461030c57602036600319011261030c5760043567ffffffffffffffff811161030c57611002602491369060040161057c565b604051632b870d1b60e11b815291829161101f9160048401612457565b036020826001600160a01b0392816000857f0000000000000000000000000000000000000000000000000000000000000000165af19182156110ab575b60009261107b575b50604051633653dc0360e11b815291166004820152fd5b61109d91925060203d81116110a4575b61109581836104ab565b810190612442565b9038611064565b503d61108b565b6110b3611a75565b61105c565b908161016091031261030c5790565b602060031982011261030c576004359067ffffffffffffffff821161030c57610720916004016110b8565b503461030c57602061110b611106366110c7565b61218f565b604051908152f35b50602036600319011261030c5761002160043561112f81610384565b6144ab565b503461030c57600080600319360112611253573381528060205260408120600181019063ffffffff82541690811561120e576111bb6111956111d393611187611182855460ff9060701c1690565b614731565b65ffffffffffff421661477d565b845469ffffffffffff000000001916602082901b69ffffffffffff000000001617909455565b80546eff000000000000000000000000000019169055565b60405165ffffffffffff91909116815233907ffa9b3c14cc825c412c9ed81b3ba365a5b459439403f18829e572ed53a4180f0a90602090a280f35b60405162461bcd60e51b815260206004820152600a60248201527f6e6f74207374616b6564000000000000000000000000000000000000000000006044820152606490fd5b80fd5b503461030c57602036600319011261030c5760043561127481610384565b6109266001600160a01b0361129c336001600160a01b03166000526000602052604060002090565b926113386112b86108b386546001600160701b039060781c1690565b946112c4861515614797565b611310600182016112fd65ffffffffffff6112e9835465ffffffffffff9060201c1690565b166112f58115156147e3565b42101561482f565b805469ffffffffffffffffffff19169055565b7fffffff0000000000000000000000000000ffffffffffffffffffffffffffffff8154169055565b604080516001600160a01b03831681526020810186905233917fb7c918e0e249f999e965cafeb6c664271b3f4317d296461500e71da39f0cbda391a2600080809581948294165af161138861183f565b5061487b565b503461030c57606036600319011261030c5767ffffffffffffffff60043581811161030c576113c19036906004016110b8565b602435916113ce83610384565b60443590811161030c576113e9610cad91369060040161057c565b6113f1611702565b6113fa8561252b565b61140d611407828761283c565b906142c5565b9461141d82600092438452611aca565b9643825281936060956001600160a01b03831661147e575b5050505060800151936114646040611456602084015165ffffffffffff1690565b92015165ffffffffffff1690565b90604051968796630116f59360e71b885260048801611f33565b839550839496506114986040949293945180948193611f25565b03925af19060806114a761183f565b929190388080611435565b503461030c576114c1366110c7565b6114c9611702565b6114d28261252b565b6114dc818361283c565b825160a001519193916114fc906001600160a01b03166143bc565b6143bc565b906115136114f785516001600160a01b0390511690565b9461151c61229b565b5061154b61152f60409586810190611921565b9060006014831061164f5750610f116114f792610f17926122d3565b91611555916142c5565b80516001600160a01b0316906001600160a01b038216600181149160808801519787810151918860208201516115909065ffffffffffff1690565b91015165ffffffffffff169160600151926115a96104da565b9a8b5260208b0152841515898b015265ffffffffffff1660608a015265ffffffffffff16608089015260a088015215159081611646575b506116015750610cad925194859463e0cff05f60e01b8652600486016123e8565b9190610cad93611610846143bc565b61162a61161b6104fa565b6001600160a01b039096168652565b602085015251633ebb2d3960e21b815295869560048701612363565b905015386115e0565b9150506143bc565b503461030c57602036600319011261030c576001600160a01b0360043561167d81610384565b16600052600060205260a0604060002065ffffffffffff60018254920154604051926001600160701b0390818116855260ff8160701c161515602086015260781c16604084015263ffffffff8116606084015260201c166080820152f35b60209067ffffffffffffffff81116116f5575b60051b0190565b6116fd61041e565b6116ee565b6040519061170f82610435565b604051608083610100830167ffffffffffffffff811184821017611778575b60405260009283815283602082015283604082015283606082015283838201528360a08201528360c08201528360e082015281528260208201528260408201528260608201520152565b61178061041e565b61172e565b9061178f826116db565b61179c60405191826104ab565b82815280926117ad601f19916116db565b019060005b8281106117be57505050565b6020906117c9611702565b828285010152016117b2565b50634e487b7160e01b600052603260045260246000fd5b6020918151811015611801575b60051b010190565b6118096117d5565b6117f9565b9190811015611832575b60051b8101359061015e198136030182121561030c570190565b61183a6117d5565b611818565b3d1561186a573d906118508261051a565b9161185e60405193846104ab565b82523d6000602084013e565b606090565b6001600160a01b031680156118dc57600080809381935af161188f61183f565b501561189757565b60405162461bcd60e51b815260206004820152601f60248201527f41413931206661696c65642073656e6420746f2062656e6566696369617279006044820152606490fd5b60405162461bcd60e51b815260206004820152601860248201527f4141393020696e76616c69642062656e656669636961727900000000000000006044820152606490fd5b903590601e198136030182121561030c570180359067ffffffffffffffff821161030c5760200191813603831361030c57565b9081602091031261030c575190565b908060209392818452848401376000828201840152601f01601f1916010190565b60005b8381106119975750506000910152565b8181015183820152602001611987565b906020916119c081518092818552858086019101611984565b601f01601f1916010190565b906119e660809161072096946101c0808652850191611963565b9360e081516001600160a01b0380825116602087015260208201516040870152604082015160608701526060820151858701528482015160a087015260a08201511660c086015260c081015182860152015161010084015260208101516101208401526040810151610140840152606081015161016084015201516101808201526101a08184039101526119a7565b506040513d6000823e3d90fd5b50634e487b7160e01b600052601160045260246000fd5b91908203918211611aa657565b6103a2611a82565b906113888201809211611aa657565b91908201809211611aa657565b905a91816020611ae36060830151936060810190611921565b90611b03856040519586948594630eb993ab60e11b8652600486016119cc565b03816000305af160009181611b99575b50611b92575060206000803e60005163deaddead60e01b14611b5157611b4b611b40610720945a90611a99565b608084015190611abd565b91613bc7565b60408051631101335b60e11b8152600060048201526024810191909152600f60448201526e41413935206f7574206f662067617360881b6064820152608490fd5b9250505090565b611bbb91925060203d8111611bc2575b611bb381836104ab565b810190611954565b9038611b13565b503d611ba9565b909291925a93806020611be56060830151946060810190611921565b90611c05866040519586948594630eb993ab60e11b8652600486016119cc565b03816000305af160009181611c9c575b50611c95575060206000803e60005163deaddead60e01b14611c5457611c4e611c4361072095965a90611a99565b608083015190611abd565b92613e09565b60408051631101335b60e11b8152600481018590526024810191909152600f60448201526e41413935206f7574206f662067617360881b6064820152608490fd5b9450505050565b611cb591925060203d8111611bc257611bb381836104ab565b9038611c15565b6001906000198114611ccc570190565b611cd4611a82565b0190565b9190811015611cfb575b60051b81013590605e198136030182121561030c570190565b611d036117d5565b611ce2565b903590601e198136030182121561030c570180359067ffffffffffffffff821161030c57602001918160051b3603831361030c57565b3561072081610384565b15611d4f57565b60405162461bcd60e51b815260206004820152601760248201527f4141393620696e76616c69642061676772656761746f720000000000000000006044820152606490fd5b9035601e198236030181121561030c57016020813591019167ffffffffffffffff821161030c57813603831361030c57565b61072091611de481611dd7846103b1565b6001600160a01b03169052565b60208201356020820152611e7f611e30611e15611e046040860186611d94565b610160806040880152860191611963565b611e226060860186611d94565b908583036060870152611963565b6080840135608084015260a084013560a084015260c084013560c084015260e084013560e08401526101008085013590840152610120611e7281860186611d94565b9185840390860152611963565b91611e906101409182810190611d94565b929091818503910152611963565b949391929083604087016040885252606086019360608160051b8801019482600090815b848310611ee15750505050505084602061072095968503910152611963565b909192939497605f198b8203018552883561015e1984360301811215611f215760019184611f0f9201611dc6565b98602090810196950193019190611ec2565b8280fd5b908092918237016000815290565b92909361072096959260c0958552602085015265ffffffffffff8092166040850152166060830152151560808201528160a082015201906119a7565b15611f7657565b60405162461bcd60e51b815260206004820152601760248201527f4141393220696e7465726e616c2063616c6c206f6e6c790000000000000000006044820152606490fd5b906040610720926000815281602082015201906119a7565b6040906107209392815281602082015201906119a7565b909291925a937f8bafd438967218dcf8e097f56a1544922f1f8a08d318ab43722a7f5a35ea9ea26040518061202488829190602083019252565b0390a1612032303314611f6f565b815194604086015195606081017f5fab9043bcae3a0b1683d15f3266be4de10e488938fe20ab7236865aa816753661208e61207661207184518c611abd565b611aae565b60408051878152602081019290925290918291820190565b0390a16113885a91518901011161217e576107209660009580516120cc575b505050906120c6915a9003608084015101943691610545565b91613fee565b6120ee916120ea916120e585516001600160a01b031690565b61491e565b1590565b6120fa575b80806120ad565b6120c692919450612109614930565b90815161211d575b505060019390916120f3565b7f1c4fada7374c0a9ee8841fc38afe82932dc0f8e69012e927f061a8bae611a2016001600160a01b03602087015192612174602061216283516001600160a01b031690565b92015195604051938493169683611fd3565b0390a33880612111565b63deaddead60e01b60005260206000fd5b6121a561219f6040830183611921565b90614913565b906121b661219f6060830183611921565b906122526121cb61219f610120840184611921565b60405194859360208501956101008201359260e08301359260c08101359260a0820135926080830135926001600160a01b0360208201359135168c9693909a999895926101209895926001600160a01b036101408a019d168952602089015260408801526060870152608086015260a085015260c084015260e08301526101008201520152565b0391612266601f19938481018352826104ab565b5190206040805160208101928352309181019190915246606082015260809283018152909161229590826104ab565b51902090565b604051906040820182811067ffffffffffffffff8211176122c6575b60405260006020838281520152565b6122ce61041e565b6122b7565b9060141161030c5790601490565b6bffffffffffffffffffffffff19903581811693926014811061230357505050565b60140360031b82901b16169150565b9060c060a061072093805184526020810151602085015260408101511515604085015265ffffffffffff80606083015116606086015260808201511660808501520151918160a082015201906119a7565b92946123c46103a2956123b26101009599986123a061238c602097610140808c528b0190612312565b9b878a019060208091805184520151910152565b80516060890152602001516080880152565b805160a08701526020015160c0860152565b6001600160a01b0381511660e0850152015191019060208091805184520151910152565b6124316103a29461241f61240a60a0959998969960e0865260e0860190612312565b98602085019060208091805184520151910152565b80516060840152602001516080830152565b019060208091805184520151910152565b9081602091031261030c575161072081610384565b916020610720938181520191611963565b9061248a6001600160a01b039161072097959694606085526060850191611963565b941660208201526040818503910152611963565b60009060033d116124ab57565b905060046000803e60005160e01c90565b600060443d1061072057604051600319913d83016004833e815167ffffffffffffffff918282113d60248401111761251a57818401948551938411612522573d8501016020848701011161251a5750610720929101602001906104ab565b949350505050565b50949350505050565b6125386040820182611921565b61255061254484611d3e565b93610120810190611921565b9290303b1561030c5760009361257b91604051968795869563957122ab60e01b875260048701612468565b0381305afa90816125eb575b506103a257600161259661249e565b6308c379a0146125af575b6125a757565b6103a2611a75565b6125b76124bc565b806125c3575b506125a1565b805160009250156125bd57604051631101335b60e11b8152908190610cad9060048301611fbb565b80610cd46125f89261047b565b38612587565b9190612609906127a1565b6001600160a01b0392918316612728576126d957612626906127a1565b911661268a576126335750565b60408051631101335b60e11b815260048101929092526024820152602160448201527f41413332207061796d61737465722065787069726564206f72206e6f742064756064820152606560f81b608482015260a490fd5b60408051631101335b60e11b8152600481018490526024810191909152601460448201527f41413334207369676e6174757265206572726f720000000000000000000000006064820152608490fd5b60408051631101335b60e11b8152600481018590526024810191909152601760448201527f414132322065787069726564206f72206e6f74206475650000000000000000006064820152608490fd5b60408051631101335b60e11b8152600481018690526024810191909152601460448201527f41413234207369676e6174757265206572726f720000000000000000000000006064820152608490fd5b929190612783906127a1565b90926001600160a01b0380809516911603612728576126d957612626905b80156127e7576127b090614277565b6001600160a01b0365ffffffffffff8060408401511642119081156127d7575b5091511691565b90506020830151164210386127d0565b50600090600090565b156127f757565b60405162461bcd60e51b815260206004820152601860248201527f41413934206761732076616c756573206f766572666c6f7700000000000000006044820152606490fd5b916000915a9381519061284f8282612bd4565b6128588161218f565b60208401526128966effffffffffffffffffffffffffffff60808401516060850151176040850151176101008401359060e0850135171711156127f0565b61289f82612c7c565b6128aa818584612d30565b97906128ce6120ea6128c387516001600160a01b031690565b60208801519061436a565b612992576128db43600052565b6001600160a01b036128f960a060609701516001600160a01b031690565b16612978575b505a810360a0840135106129295760809360c092604087015260608601525a900391013501910152565b60408051631101335b60e11b8152600060048201526024810191909152601e60448201527f41413430206f76657220766572696669636174696f6e4761734c696d697400006064820152608490fd5b909350816129899297508584613768565b959092386128ff565b60408051631101335b60e11b8152600060048201526024810191909152601a60448201527f4141323520696e76616c6964206163636f756e74206e6f6e63650000000000006064820152608490fd5b9290916000925a82516129f48184612bd4565b6129fd8361218f565b6020850152612a3b6effffffffffffffffffffffffffffff60808301516060840151176040840151176101008601359060e0870135171711156127f0565b612a4481612c7c565b612a508186868b612fb9565b9890612a746120ea612a6986516001600160a01b031690565b60208701519061436a565b612b3957612a8143600052565b6001600160a01b03612a9f60a060609601516001600160a01b031690565b16612b1e575b505a840360a086013510612ad15750604085015260608401526080919060c0905a900391013501910152565b60408051631101335b60e11b815260048101929092526024820152601e60448201527f41413430206f76657220766572696669636174696f6e4761734c696d697400006064820152608490fd5b90925081612b30929850868685613952565b96909138612aa5565b60408051631101335b60e11b8152600481018490526024810191909152601a60448201527f4141323520696e76616c6964206163636f756e74206e6f6e63650000000000006064820152608490fd5b15612b8f57565b60405162461bcd60e51b815260206004820152601d60248201527f4141393320696e76616c6964207061796d6173746572416e64446174610000006044820152606490fd5b612c3990612bf1612be482611d3e565b6001600160a01b03168452565b602081013560208401526080810135604084015260a0810135606084015260c0810135608084015260e081013560c084015261010081013560e0840152610120810190611921565b908115612c7157612c63610f17610f118460a094612c5e60146103a299981015612b88565b6122d3565b6001600160a01b0316910152565b505060a06000910152565b60a08101516001600160a01b031615612cb15760c060035b60ff60408401519116606084015102016080830151019101510290565b60c06001612c94565b612cd260409295949395606083526060830190611dc6565b9460208201520152565b906103a2602f60405180947f414132332072657665727465643a2000000000000000000000000000000000006020830152612d208151809260208686019101611984565b810103600f8101855201836104ab565b916000926000925a93612dbe6020835193612d5285516001600160a01b031690565b95612d6a612d636040830183611921565b908461319a565b60a08601516001600160a01b031690612d8243600052565b8580936001600160a01b03809416159889612f65575b6060015190860151604051633a871cdd60e01b8152978896879586939060048501612cba565b03938a1690f1829181612f45575b50612f3c5750600190612ddd61249e565b6308c379a014612f01575b50612eb2575b612dfb575b50505a900391565b612e18906001600160a01b03166000526000602052604060002090565b612e2c6108b382546001600160701b031690565b808311612e6357612e5c926001600160701b039103166001600160701b03166001600160701b0319825416179055565b3880612df3565b60408051631101335b60e11b8152600060048201526024810191909152601760448201527f41413231206469646e2774207061792070726566756e640000000000000000006064820152608490fd5b60408051631101335b60e11b8152600060048201526024810191909152601660448201527f4141323320726576657274656420286f72204f4f4729000000000000000000006064820152608490fd5b612f096124bc565b9081612f155750612de8565b610cad91612f239150612cdc565b604051631101335b60e11b815291829160048301611fbb565b9550612dee9050565b612f5e91925060203d8111611bc257611bb381836104ab565b9038612dcc565b9450612f976108b3612f8a8c6001600160a01b03166000526000602052604060002090565b546001600160701b031690565b8b811115612fae5750856060835b96915050612d98565b606087918d03612fa5565b90926000936000935a94612ff56020835193612fdc85516001600160a01b031690565b95612d6a612fed6040830183611921565b90848c613400565b03938a1690f182918161317a575b50613171575060019061301461249e565b6308c379a014613134575b506130e5575b613033575b5050505a900391565b613050906001600160a01b03166000526000602052604060002090565b916130656108b384546001600160701b031690565b90818311613098575082546dffffffffffffffffffffffffffff19169190036001600160701b031617905538808061302a565b60408051631101335b60e11b815260048101929092526024820152601760448201527f41413231206469646e2774207061792070726566756e640000000000000000006064820152608490fd5b60408051631101335b60e11b8152600481018690526024810191909152601660448201527f4141323320726576657274656420286f72204f4f4729000000000000000000006064820152608490fd5b61313c6124bc565b9081613148575061301f565b86916131549150612cdc565b604051631101335b60e11b8152918291610cad9160048401611fd3565b96506130259050565b61319391925060203d8111611bc257611bb381836104ab565b9038613003565b9091806131a657505050565b8151516001600160a01b031692833b6133b157825160600151604051632b870d1b60e11b815290602082806131df878760048401612457565b038160006001600160a01b0395867f00000000000000000000000000000000000000000000000000000000000000001690f19182156133a4575b600092613384575b5080821695861561333557168095036132e6573b1561329757610f17610f117fd51a9c61267aa6196961883ecf5ff2da6619c37dac0fa92122513fb32c032d2d9361326b936122d3565b602083810151935160a00151604080516001600160a01b039485168152939091169183019190915290a3565b60408051631101335b60e11b8152600060048201526024810191909152602060448201527f4141313520696e6974436f6465206d757374206372656174652073656e6465726064820152608490fd5b60408051631101335b60e11b8152600060048201526024810191909152602060448201527f4141313420696e6974436f6465206d7573742072657475726e2073656e6465726064820152608490fd5b60408051631101335b60e11b8152600060048201526024810191909152601b60448201527f4141313320696e6974436f6465206661696c6564206f72204f4f4700000000006064820152608490fd5b61339d91925060203d81116110a45761109581836104ab565b9038613221565b6133ac611a75565b613219565b60408051631101335b60e11b8152600060048201526024810191909152601f60448201527f414131302073656e64657220616c726561647920636f6e7374727563746564006064820152608490fd5b9290918161340f575b50505050565b8251516001600160a01b031693843b61362057835160600151604051632b870d1b60e11b81529060208280613448888860048401612457565b038160006001600160a01b0395867f00000000000000000000000000000000000000000000000000000000000000001690f1918215613613575b6000926135f3575b508082169687156135a45716809603613555573b156135085750610f17610f117fd51a9c61267aa6196961883ecf5ff2da6619c37dac0fa92122513fb32c032d2d936134d5936122d3565b602083810151935160a00151604080516001600160a01b039485168152939091169183019190915290a338808080613409565b60408051631101335b60e11b815260048101929092526024820152602060448201527f4141313520696e6974436f6465206d757374206372656174652073656e6465726064820152608490fd5b60408051631101335b60e11b8152600481018490526024810191909152602060448201527f4141313420696e6974436f6465206d7573742072657475726e2073656e6465726064820152608490fd5b60408051631101335b60e11b8152600481018690526024810191909152601b60448201527f4141313320696e6974436f6465206661696c6564206f72204f4f4700000000006064820152608490fd5b61360c91925060203d81116110a45761109581836104ab565b903861348a565b61361b611a75565b613482565b60408051631101335b60e11b815260048101929092526024820152601f60448201527f414131302073656e64657220616c726561647920636f6e7374727563746564006064820152608490fd5b1561367457565b60405162461bcd60e51b815260206004820152601f60248201527f4141343120746f6f206c6974746c6520766572696669636174696f6e476173006044820152606490fd5b919060408382031261030c57825167ffffffffffffffff811161030c5783019080601f8301121561030c578151916136f08361051a565b916136fe60405193846104ab565b8383526020848301011161030c5760209261371e91848085019101611984565b92015190565b906103a2602f60405180947f414133332072657665727465643a2000000000000000000000000000000000006020830152612d208151809260208686019101611984565b93919260609460009460009380519261379a60a08a8601519561378c88881161366d565b01516001600160a01b031690565b916137b8836001600160a01b03166000526000602052604060002090565b946137cd6108b387546001600160701b031690565b96858810613903576001600160a01b0360208a98946138108a966001600160701b038b6138309e03166001600160701b03166001600160701b0319825416179055565b0151604051637a32e3bf60e11b8152998a98899788939060048501612cba565b0395169103f19081839184936138dd575b506138d657505060019061385361249e565b6308c379a0146138b4575b5061386557565b60408051631101335b60e11b8152600060048201526024810191909152601660448201527f4141333320726576657274656420286f72204f4f4729000000000000000000006064820152608490fd5b6138bc6124bc565b90816138c8575061385e565b610cad91612f239150613724565b9450925050565b9092506138fc91503d8085833e6138f481836104ab565b8101906136b9565b9138613841565b60408051631101335b60e11b8152600060048201526024810191909152601e60448201527f41413331207061796d6173746572206465706f73697420746f6f206c6f7700006064820152608490fd5b91949293909360609560009560009382519061397960a08b8401519361378c84861161366d565b93613997856001600160a01b03166000526000602052604060002090565b6139ab6108b382546001600160701b031690565b878110613aba57926001600160a01b0360208a989693946138108a966001600160701b038d6139f29e9c9a03166001600160701b03166001600160701b0319825416179055565b0395169103f1908183918493613a9c575b50613a94575050600190613a1561249e565b6308c379a014613a75575b50613a285750565b60408051631101335b60e11b815260048101929092526024820152601660448201527f4141333320726576657274656420286f72204f4f4729000000000000000000006064820152608490fd5b613a7d6124bc565b9081613a895750613a20565b613154925050613724565b955093505050565b909250613ab391503d8085833e6138f481836104ab565b9138613a03565b60408051631101335b60e11b8152600481018c90526024810191909152601e60448201527f41413331207061796d6173746572206465706f73697420746f6f206c6f7700006064820152608490fd5b60031115613b1357565b634e487b7160e01b600052602160045260246000fd5b929190613b47604091600286526060602087015260608601906119a7565b930152565b939291906003811015613b1357604091613b479186526060602087015260608601906119a7565b906103a2603660405180947f4141353020706f73744f702072657665727465643a20000000000000000000006020830152613bb78151809260208686019101611984565b81010360168101855201836104ab565b929190925a93600091805191613bdc83614230565b9260a0810195613bf387516001600160a01b031690565b6001600160a01b0393908481169081613d1057505050613c1a82516001600160a01b031690565b985b5a90030193840297604084019089825110613cc1577f49628fd1471006c1482da88028e9ce4dbb080b815c9b0344d39e5a8e6ec1419f94613c666020928c613cbc95510390614406565b015194896020613c8e613c8086516001600160a01b031690565b9a516001600160a01b031690565b9401519785604051968796169a16988590949392606092608083019683521515602083015260408201520152565b0390a4565b60408051631101335b60e11b8152600060048201526024810191909152602060448201527f414135312070726566756e642062656c6f772061637475616c476173436f73746064820152608490fd5b9a918051613d20575b5050613c1c565b6060850151600099509091803b15613e05579189918983613d5a9560405180978196829563a9a2340960e01b84528c029060048401613b29565b0393f19081613df2575b50613ded576001613d7361249e565b6308c379a014613dce575b613d8a575b3880613d19565b60408051631101335b60e11b8152600060048201526024810191909152601260448201527110504d4c081c1bdcdd13dc081c995d995c9d60721b6064820152608490fd5b613dd66124bc565b80613de15750613d7e565b612f23610cad91613b73565b613d83565b80610cd4613dff9261047b565b38613d64565b8980fd5b9392915a90600092805190613e1d82614230565b9360a0830196613e3488516001600160a01b031690565b6001600160a01b0395908681169081613ef757505050613e5b84516001600160a01b031690565b915b5a9003019485029860408301908a825110613eaa57507f49628fd1471006c1482da88028e9ce4dbb080b815c9b0344d39e5a8e6ec1419f949392613c66613cbc938c602094510390614406565b60408051631101335b60e11b815260048101929092526024820152602060448201527f414135312070726566756e642062656c6f772061637475616c476173436f73746064820152608490fd5b93918051613f07575b5050613e5d565b606087015160009a509091803b15613fea57918a918a83613f419560405180978196829563a9a2340960e01b84528c029060048401613b29565b0393f19081613fd7575b50613fd2576001613f5a61249e565b6308c379a014613fb5575b613f71575b3880613f00565b60408051631101335b60e11b8152600481018d90526024810191909152601260448201527110504d4c081c1bdcdd13dc081c995d995c9d60721b6064820152608490fd5b613fbd6124bc565b80613fc85750613f65565b6131548d91613b73565b613f6a565b80610cd4613fe49261047b565b38613f4b565b8a80fd5b909392915a9480519161400083614230565b9260a081019561401787516001600160a01b031690565b6001600160a01b039381851691826140d85750505061403d82516001600160a01b031690565b985b5a90030193840297604084019089825110613cc1577f49628fd1471006c1482da88028e9ce4dbb080b815c9b0344d39e5a8e6ec1419f946140896020928c613cbc95510390614406565b61409288613b09565b0151948960206140ac613c8086516001600160a01b031690565b940151604080519182529815602082015297880152606087015290821695909116939081906080820190565b9a9181516140e8575b505061403f565b8784026140f48a613b09565b60028a14614166576060860151823b1561030c5761412e93600080948d6040519788968795869363a9a2340960e01b855260048501613b4c565b0393f18015614159575b614146575b505b38806140e1565b80610cd46141539261047b565b3861413d565b614161611a75565b614138565b6060860151823b1561030c5761419893600080948d6040519788968795869363a9a2340960e01b855260048501613b4c565b0393f1908161421d575b506142185760016141b161249e565b6308c379a014614205575b1561413f5760408051631101335b60e11b8152600060048201526024810191909152601260448201527110504d4c081c1bdcdd13dc081c995d995c9d60721b6064820152608490fd5b61420d6124bc565b80613de157506141bc565b61413f565b80610cd461422a9261047b565b386141a2565b60e060c08201519101518082146142545748018082101561424f575090565b905090565b5090565b604051906142658261048f565b60006040838281528260208201520152565b61427f614258565b5065ffffffffffff808260a01c1680156142be575b604051926142a18461048f565b6001600160a01b038116845260d01c602084015216604082015290565b5080614294565b6142da6142e0916142d4614258565b50614277565b91614277565b906001600160a01b03918282511692831561435f575b65ffffffffffff928391826040816020850151169301511693836040816020840151169201511690808410614357575b5080851161434f575b506040519561433d8761048f565b16855216602084015216604082015290565b93503861432f565b925038614326565b8151811693506142f6565b6001600160a01b0316600052600160205267ffffffffffffffff6143a88260401c6040600020906001600160c01b0316600052602052604060002090565b918254926143b584611cbc565b9055161490565b906001600160a01b036143cd61229b565b9216600052600060205263ffffffff600160406000206001600160701b03815460781c1685520154166020830152565b6103a2336144ab565b6001600160a01b0316600052600060205260406000206001600160701b038082541692830180931161449e575b808311614459576103a292166001600160701b03166001600160701b0319825416179055565b60405162461bcd60e51b815260206004820152601060248201527f6465706f736974206f766572666c6f77000000000000000000000000000000006044820152606490fd5b6144a6611a82565b614433565b6001600160a01b03906144be3482614406565b168060005260006020527f2da466a7b24304f47e87fa2e1e5a81b9831ce54fec19055ce277ca2f39ba42c460206001600160701b0360406000205416604051908152a2565b1561450a57565b60405162461bcd60e51b815260206004820152601a60248201527f6d757374207370656369667920756e7374616b652064656c61790000000000006044820152606490fd5b1561455657565b60405162461bcd60e51b815260206004820152601c60248201527f63616e6e6f7420646563726561736520756e7374616b652074696d65000000006044820152606490fd5b156145a257565b60405162461bcd60e51b815260206004820152601260248201527f6e6f207374616b652073706563696669656400000000000000000000000000006044820152606490fd5b156145ee57565b60405162461bcd60e51b815260206004820152600e60248201527f7374616b65206f766572666c6f770000000000000000000000000000000000006044820152606490fd5b9065ffffffffffff608060016103a29461466d6001600160701b0386511682906001600160701b03166001600160701b0319825416179055565b602085015115156eff000000000000000000000000000082549160701b16806eff00000000000000000000000000001983161783557fffffff000000000000000000000000000000ffffffffffffffffffffffffffff7cffffffffffffffffffffffffffff000000000000000000000000000000604089015160781b16921617178155019263ffffffff60608201511663ffffffff1985541617845501511669ffffffffffff0000000082549160201b169069ffffffffffff000000001916179055565b1561473857565b60405162461bcd60e51b815260206004820152601160248201527f616c726561647920756e7374616b696e670000000000000000000000000000006044820152606490fd5b91909165ffffffffffff80809416911601918211611aa657565b1561479e57565b60405162461bcd60e51b815260206004820152601460248201527f4e6f207374616b6520746f2077697468647261770000000000000000000000006044820152606490fd5b156147ea57565b60405162461bcd60e51b815260206004820152601d60248201527f6d7573742063616c6c20756e6c6f636b5374616b6528292066697273740000006044820152606490fd5b1561483657565b60405162461bcd60e51b815260206004820152601b60248201527f5374616b65207769746864726177616c206973206e6f742064756500000000006044820152606490fd5b1561488257565b60405162461bcd60e51b815260206004820152601860248201527f6661696c656420746f207769746864726177207374616b6500000000000000006044820152606490fd5b156148ce57565b60405162461bcd60e51b815260206004820152601260248201527f6661696c656420746f20776974686472617700000000000000000000000000006044820152606490fd5b816040519182372090565b9060009283809360208451940192f190565b3d610800808211614957575b50604051906020818301016040528082526000602083013e90565b90503861493c565b600280541461496e5760028055565b60405162461bcd60e51b815260206004820152601f60248201527f5265656e7472616e637947756172643a207265656e7472616e742063616c6c006044820152606490fdfea2646970667358221220a4cae12315469b550fcf4021985bdfa0b74f92d6c920ec7694f4d84fe52523cc64736f6c63430008110033608080604052346100165761019d908161001c8239f35b600080fdfe6080604052600436101561001257600080fd5b6000803560e01c63570e1a361461002857600080fd5b346100ab5760203660031901126100ab5760043567ffffffffffffffff918282116100ab57366023830112156100ab5781600401359283116100ab5736602484840101116100ab576100a761008084602485016100c5565b60405173ffffffffffffffffffffffffffffffffffffffff90911681529081906020820190565b0390f35b80fd5b50634e487b7160e01b600052604160045260246000fd5b90806014116101485767ffffffffffffffff91601319820183811161015a575b60405193600b8401601f19908116603f011685019081118582101761014d575b60405280845260208401903684840111610148576020946000600c819682946014880187378301015251923560601c5af190600051911561014257565b60009150565b600080fd5b6101556100ae565b610105565b6101626100ae565b6100e556fea2646970667358221220add77755b62d8efb61f4322a22e2f5f604e71decda467ccfc90f23a87612ec2564736f6c63430008110033",
  "devdoc": {
    "errors": {
      "FailedOp(uint256,string)": [
        {
          "params": {
            "opIndex": "- index into the array of ops to the failed one (in simulateValidation, this is always zero)",
            "reason": "- revert reason      The string starts with a unique code \"AAmn\", where \"m\" is \"1\" for factory, \"2\" for account and \"3\" for paymaster issues,      so a failure can be attributed to the correct entity.   Should be caught in off-chain handleOps simulation and not happen on-chain.   Useful for mitigating DoS attempts against batchers or for troubleshooting of factory/account/paymaster reverts."
          }
        }
      ],
      "ValidationResult((uint256,uint256,bool,uint48,uint48,bytes),(uint256,uint256),(uint256,uint256),(uint256,uint256))": [
        {
          "params": {
            "factoryInfo": "stake information about the factory (if any)",
            "paymasterInfo": "stake information about the paymaster (if any)",
            "returnInfo": "gas and time-range returned values",
            "senderInfo": "stake information about the sender"
          }
        }
      ],
      "ValidationResultWithAggregation((uint256,uint256,bool,uint48,uint48,bytes),(uint256,uint256),(uint256,uint256),(uint256,uint256),(address,(uint256,uint256)))": [
        {
          "params": {
            "aggregatorInfo": "signature aggregation info (if the account requires signature aggregator)      bundler MUST use it to verify the signature, or reject the UserOperation",
            "factoryInfo": "stake information about the factory (if any)",
            "paymasterInfo": "stake information about the paymaster (if any)",
            "returnInfo": "gas and time-range returned values",
            "senderInfo": "stake information about the sender"
          }
        }
      ]
    },
    "kind": "dev",
    "methods": {
      "addStake(uint32)": {
        "params": {
          "unstakeDelaySec": "the new lock duration before the deposit can be withdrawn."
        }
      },
      "getDepositInfo(address)": {
        "returns": {
          "info": "- full deposit information of given account"
        }
      },
      "getNonce(address,uint192)": {
        "params": {
          "key": "the high 192 bit of the nonce",
          "sender": "the account address"
        },
        "returns": {
          "nonce": "a full nonce to pass for next UserOp with this sender."
        }
      },
      "getSenderAddress(bytes)": {
        "params": {
          "initCode": "the constructor code to be passed into the UserOperation."
        }
      },
      "handleAggregatedOps(((address,uint256,bytes,bytes,uint256,uint256,uint256,uint256,uint256,bytes,bytes)[],address,bytes)[],address)": {
        "params": {
          "beneficiary": "the address to receive the fees",
          "opsPerAggregator": "the operations to execute, grouped by aggregator (or address(0) for no-aggregator accounts)"
        }
      },
      "handleOps((address,uint256,bytes,bytes,uint256,uint256,uint256,uint256,uint256,bytes,bytes)[],address)": {
        "params": {
          "beneficiary": "the address to receive the fees",
          "ops": "the operations to execute"
        }
      },
      "simulateHandleOp((address,uint256,bytes,bytes,uint256,uint256,uint256,uint256,uint256,bytes,bytes),address,bytes)": {
        "params": {
          "op": "the UserOperation to simulate",
          "target": "if nonzero, a target address to call after userop simulation. If called, the targetSuccess and targetResult        are set to the return from that call.",
          "targetCallData": "callData to pass to target address"
        }
      },
      "simulateValidation((address,uint256,bytes,bytes,uint256,uint256,uint256,uint256,uint256,bytes,bytes))": {
        "details": "this method always revert. Successful result is ValidationResult error. other errors are failures.The node must also verify it doesn't use banned opcodes, and that it doesn't reference storage outside the account's data.",
        "params": {
          "userOp": "the user operation to validate."
        }
      },
      "withdrawStake(address)": {
        "params": {
          "withdrawAddress": "the address to send withdrawn value."
        }
      },
      "withdrawTo(address,uint256)": {
        "params": {
          "withdrawAddress": "the address to send withdrawn value.",
          "withdrawAmount": "the amount to withdraw."
        }
      }
    },
    "version": 1
  },
  "userdoc": {
    "errors": {
      "ExecutionResult(uint256,uint256,uint48,uint48,bool,bytes)": [
        {
          "notice": "return value of simulateHandleOp"
        }
      ],
      "FailedOp(uint256,string)": [
        {
          "notice": "a custom revert error of handleOps, to identify the offending op.  NOTE: if simulateValidation passes successfully, there should be no reason for handleOps to fail on it."
        }
      ],
      "SenderAddressResult(address)": [
        {
          "notice": "return value of getSenderAddress"
        }
      ],
      "SignatureValidationFailed(address)": [
        {
          "notice": "error case when a signature aggregator fails to verify the aggregated signature it had created."
        }
      ],
      "ValidationResult((uint256,uint256,bool,uint48,uint48,bytes),(uint256,uint256),(uint256,uint256),(uint256,uint256))": [
        {
          "notice": "Successful result from simulateValidation."
        }
      ],
      "ValidationResultWithAggregation((uint256,uint256,bool,uint48,uint48,bytes),(uint256,uint256),(uint256,uint256),(uint256,uint256),(address,(uint256,uint256)))": [
        {
          "notice": "Successful result from simulateValidation, if the account returns a signature aggregator"
        }
      ]
    },
    "events": {
      "AccountDeployed(bytes32,address,address,address)": {
        "notice": "account \"sender\" was deployed."
      },
      "BeforeExecution()": {
        "notice": "an event emitted by handleOps(), before starting the execution loop. any event emitted before this event, is part of the validation."
      },
      "SignatureAggregatorChanged(address)": {
        "notice": "signature aggregator used by the following UserOperationEvents within this bundle."
      },
      "StakeLocked(address,uint256,uint256)": {
        "notice": "Emitted when stake or unstake delay are modified"
      },
      "StakeUnlocked(address,uint256)": {
        "notice": "Emitted once a stake is scheduled for withdrawal"
      },
      "UserOperationRevertReason(bytes32,address,uint256,bytes)": {
        "notice": "An event emitted if the UserOperation \"callData\" reverted with non-zero length"
      }
    },
    "kind": "user",
    "methods": {
      "SIG_VALIDATION_FAILED()": {
        "notice": "for simulation purposes, validateUserOp (and validatePaymasterUserOp) must return this value in case of signature failure, instead of revert."
      },
      "_validateSenderAndPaymaster(bytes,address,bytes)": {
        "notice": "Called only during simulation. This function always reverts to prevent warm/cold storage differentiation in simulation vs execution."
      },
      "addStake(uint32)": {
        "notice": "add to the account's stake - amount and delay any pending unstake is first cancelled."
      },
      "balanceOf(address)": {
        "notice": "return the deposit (for gas payment) of the account"
      },
      "depositTo(address)": {
        "notice": "add to the deposit of the given account"
      },
      "deposits(address)": {
        "notice": "maps paymaster to their deposits and stakes"
      },
      "getNonce(address,uint192)": {
        "notice": "Return the next nonce for this sender. Within a given key, the nonce values are sequenced (starting with zero, and incremented by one on each userop) But UserOp with different keys can come with arbitrary order."
      },
      "getSenderAddress(bytes)": {
        "notice": "Get counterfactual sender address.  Calculate the sender contract address that will be generated by the initCode and salt in the UserOperation. this method always revert, and returns the address in SenderAddressResult error"
      },
      "getUserOpHash((address,uint256,bytes,bytes,uint256,uint256,uint256,uint256,uint256,bytes,bytes))": {
        "notice": "generate a request Id - unique identifier for this request. the request ID is a hash over the content of the userOp (except the signature), the entrypoint and the chainid."
      },
      "handleAggregatedOps(((address,uint256,bytes,bytes,uint256,uint256,uint256,uint256,uint256,bytes,bytes)[],address,bytes)[],address)": {
        "notice": "Execute a batch of UserOperation with Aggregators"
      },
      "handleOps((address,uint256,bytes,bytes,uint256,uint256,uint256,uint256,uint256,bytes,bytes)[],address)": {
        "notice": "Execute a batch of UserOperations. no signature aggregator is used. if any account requires an aggregator (that is, it returned an aggregator when performing simulateValidation), then handleAggregatedOps() must be used instead."
      },
      "incrementNonce(uint192)": {
        "notice": "Manually increment the nonce of the sender. This method is exposed just for completeness.. Account does NOT need to call it, neither during validation, nor elsewhere, as the EntryPoint will update the nonce regardless. Possible use-case is call it with various keys to \"initialize\" their nonces to one, so that future UserOperations will not pay extra for the first transaction with a given key."
      },
      "innerHandleOp(bytes,((address,uint256,uint256,uint256,uint256,address,uint256,uint256),bytes32,uint256,uint256,uint256),bytes)": {
        "notice": "inner function to handle a UserOperation. Must be declared \"external\" to open a call context, but it can only be called by handleOps."
      },
      "nonceSequenceNumber(address,uint192)": {
        "notice": "The next valid sequence number for a given nonce key."
      },
      "simulateHandleOp((address,uint256,bytes,bytes,uint256,uint256,uint256,uint256,uint256,bytes,bytes),address,bytes)": {
        "notice": "simulate full execution of a UserOperation (including both validation and target execution) this method will always revert with \"ExecutionResult\". it performs full validation of the UserOperation, but ignores signature error. an optional target address is called after the userop succeeds, and its value is returned (before the entire call is reverted) Note that in order to collect the the success/failure of the target call, it must be executed with trace enabled to track the emitted events."
      },
      "simulateValidation((address,uint256,bytes,bytes,uint256,uint256,uint256,uint256,uint256,bytes,bytes))": {
        "notice": "Simulate a call to account.validateUserOp and paymaster.validatePaymasterUserOp."
      },
      "unlockStake()": {
        "notice": "attempt to unlock the stake. the value can be withdrawn (using withdrawStake) after the unstake delay."
      },
      "withdrawStake(address)": {
        "notice": "withdraw from the (unlocked) stake. must first call unlockStake and wait for the unstakeDelay to pass"
      },
      "withdrawTo(address,uint256)": {
        "notice": "withdraw from the deposit."
      }
    },
    "version": 1
  },
  "storageLayout": {
    "storage": [
      {
        "astId": 2648,
        "contract": "@account-abstraction/contracts/core/EntryPoint.sol:EntryPoint",
        "label": "deposits",
        "offset": 0,
        "slot": "0",
        "type": "t_mapping(t_address,t_struct(DepositInfo)3422_storage)"
      },
      {
        "astId": 2512,
        "contract": "@account-abstraction/contracts/core/EntryPoint.sol:EntryPoint",
        "label": "nonceSequenceNumber",
        "offset": 0,
        "slot": "1",
        "type": "t_mapping(t_address,t_mapping(t_uint192,t_uint256))"
      },
      {
        "astId": 3774,
        "contract": "@account-abstraction/contracts/core/EntryPoint.sol:EntryPoint",
        "label": "_status",
        "offset": 0,
        "slot": "2",
        "type": "t_uint256"
      }
    ],
    "types": {
      "t_address": {
        "encoding": "inplace",
        "label": "address",
        "numberOfBytes": "20"
      },
      "t_bool": {
        "encoding": "inplace",
        "label": "bool",
        "numberOfBytes": "1"
      },
      "t_mapping(t_address,t_mapping(t_uint192,t_uint256))": {
        "encoding": "mapping",
        "key": "t_address",
        "label": "mapping(address => mapping(uint192 => uint256))",
        "numberOfBytes": "32",
        "value": "t_mapping(t_uint192,t_uint256)"
      },
      "t_mapping(t_address,t_struct(DepositInfo)3422_storage)": {
        "encoding": "mapping",
        "key": "t_address",
        "label": "mapping(address => struct IStakeManager.DepositInfo)",
        "numberOfBytes": "32",
        "value": "t_struct(DepositInfo)3422_storage"
      },
      "t_mapping(t_uint192,t_uint256)": {
        "encoding": "mapping",
        "key": "t_uint192",
        "label": "mapping(uint192 => uint256)",
        "numberOfBytes": "32",
        "value": "t_uint256"
      },
      "t_struct(DepositInfo)3422_storage": {
        "encoding": "inplace",
        "label": "struct IStakeManager.DepositInfo",
        "members": [
          {
            "astId": 3413,
            "contract": "@account-abstraction/contracts/core/EntryPoint.sol:EntryPoint",
            "label": "deposit",
            "offset": 0,
            "slot": "0",
            "type": "t_uint112"
          },
          {
            "astId": 3415,
            "contract": "@account-abstraction/contracts/core/EntryPoint.sol:EntryPoint",
            "label": "staked",
            "offset": 14,
            "slot": "0",
            "type": "t_bool"
          },
          {
            "astId": 3417,
            "contract": "@account-abstraction/contracts/core/EntryPoint.sol:EntryPoint",
            "label": "stake",
            "offset": 15,
            "slot": "0",
            "type": "t_uint112"
          },
          {
            "astId": 3419,
            "contract": "@account-abstraction/contracts/core/EntryPoint.sol:EntryPoint",
            "label": "unstakeDelaySec",
            "offset": 0,
            "slot": "1",
            "type": "t_uint32"
          },
          {
            "astId": 3421,
            "contract": "@account-abstraction/contracts/core/EntryPoint.sol:EntryPoint",
            "label": "withdrawTime",
            "offset": 4,
            "slot": "1",
            "type": "t_uint48"
          }
        ],
        "numberOfBytes": "64"
      },
      "t_uint112": {
        "encoding": "inplace",
        "label": "uint112",
        "numberOfBytes": "14"
      },
      "t_uint192": {
        "encoding": "inplace",
        "label": "uint192",
        "numberOfBytes": "24"
      },
      "t_uint256": {
        "encoding": "inplace",
        "label": "uint256",
        "numberOfBytes": "32"
      },
      "t_uint32": {
        "encoding": "inplace",
        "label": "uint32",
        "numberOfBytes": "4"
      },
      "t_uint48": {
        "encoding": "inplace",
        "label": "uint48",
        "numberOfBytes": "6"
      }
    }
  }
}