{
  "address": "0x9fE46736679d2D9a65F0992F2272dE9f3c7fa6e0",
  "abi": [
    {
      "inputs": [],
      "stateMutability": "nonpayable",
      "type": "constructor"
    },
    {
      "inputs": [],
      "name": "DER_Split_Error",
      "type": "error"
    },
    {
      "inputs": [
        {
          "internalType": "address",
          "name": "validationModule",
          "type": "address"
        }
      ],
      "name": "WrongValidationModule",
      "type": "error"
    },
    {
      "inputs": [],
      "name": "expmod_Error",
      "type": "error"
    },
    {
      "inputs": [],
      "name": "k256Decompress_Invalid_Length_Error",
      "type": "error"
    },
    {
      "inputs": [],
      "name": "k256DeriveY_Invalid_Prefix_Error",
      "type": "error"
    },
    {
      "inputs": [],
      "name": "recoverV_Error",
      "type": "error"
    },
    {
      "inputs": [
        {
          "internalType": "address",
          "name": "_owner",
          "type": "address"
        }
      ],
      "name": "initForSmartAccount",
      "outputs": [
        {
          "internalType": "address",
          "name": "",
          "type": "address"
        }
      ],
      "stateMutability": "nonpayable",
      "type": "function"
    },
    {
      "inputs": [
        {
          "internalType": "bytes32",
          "name": "dataHash",
          "type": "bytes32"
        },
        {
          "internalType": "bytes",
          "name": "moduleSignature",
          "type": "bytes"
        }
      ],
      "name": "isValidSignature",
      "outputs": [
        {
          "internalType": "bytes4",
          "name": "",
          "type": "bytes4"
        }
      ],
      "stateMutability": "view",
      "type": "function"
    },
    {
      "inputs": [
        {
          "internalType": "bytes32",
          "name": "dataHash",
          "type": "bytes32"
        },
        {
          "internalType": "bytes",
          "name": "moduleSignature",
          "type": "bytes"
        },
        {
          "internalType": "address",
          "name": "smartAccount",
          "type": "address"
        }
      ],
      "name": "isValidSignatureForAddress",
      "outputs": [
        {
          "internalType": "bytes4",
          "name": "",
          "type": "bytes4"
        }
      ],
      "stateMutability": "view",
      "type": "function"
    },
    {
      "inputs": [
        {
          "internalType": "bytes",
          "name": "authenticationData",
          "type": "bytes"
        },
        {
          "internalType": "address",
          "name": "smartAccount",
          "type": "address"
        },
        {
          "internalType": "bytes32",
          "name": "digest",
          "type": "bytes32"
        }
      ],
      "name": "sign",
      "outputs": [
        {
          "components": [
            {
              "internalType": "bytes32",
              "name": "r",
              "type": "bytes32"
            },
            {
              "internalType": "bytes32",
              "name": "s",
              "type": "bytes32"
            },
            {
              "internalType": "uint256",
              "name": "v",
              "type": "uint256"
            }
          ],
          "internalType": "struct SignatureRSV",
          "name": "",
          "type": "tuple"
        }
      ],
      "stateMutability": "view",
      "type": "function"
    },
    {
      "inputs": [
        {
          "components": [
            {
              "internalType": "address",
              "name": "sender",
              "type": "address"
            },
            {
              "internalType": "uint256",
              "name": "nonce",
              "type": "uint256"
            },
            {
              "internalType": "bytes",
              "name": "initCode",
              "type": "bytes"
            },
            {
              "internalType": "bytes",
              "name": "callData",
              "type": "bytes"
            },
            {
              "internalType": "uint256",
              "name": "callGasLimit",
              "type": "uint256"
            },
            {
              "internalType": "uint256",
              "name": "verificationGasLimit",
              "type": "uint256"
            },
            {
              "internalType": "uint256",
              "name": "preVerificationGas",
              "type": "uint256"
            },
            {
              "internalType": "uint256",
              "name": "maxFeePerGas",
              "type": "uint256"
            },
            {
              "internalType": "uint256",
              "name": "maxPriorityFeePerGas",
              "type": "uint256"
            },
            {
              "internalType": "bytes",
              "name": "paymasterAndData",
              "type": "bytes"
            },
            {
              "internalType": "bytes",
              "name": "signature",
              "type": "bytes"
            }
          ],
          "internalType": "struct UserOperation",
          "name": "userOp",
          "type": "tuple"
        },
        {
          "internalType": "bytes32",
          "name": "userOpHash",
          "type": "bytes32"
        }
      ],
      "name": "validateUserOp",
      "outputs": [
        {
          "internalType": "uint256",
          "name": "",
          "type": "uint256"
        }
      ],
      "stateMutability": "view",
      "type": "function"
    }
  ],
  "transactionHash": "0xcd343264cbf3f03e26ebcb262612e6a18af7766ff5abd2c27650b386c301da0a",
  "args": [],
  "numDeployments": 1,
  "solcInputHash": "daebca65735187f17c67dfc7dd9d0c06",
  "bytecode": "0x608080604052346100165761118c908161001c8239f35b600080fdfe60806040526004361015610013575b600080fd5b6000803560e01c9081631626ba7e1461007a575080632ede3bc0146100715780635bef82e114610068578063f44c339d1461005f5763fff35b721461005757600080fd5b61000e61048c565b5061000e610440565b5061000e6103ba565b5061000e610205565b346100e55760403660031901126100e5576024359067ffffffffffffffff82116100e55760206100ba6100b036600486016101ad565b3390600435610e83565b6040517fffffffff000000000000000000000000000000000000000000000000000000009091168152f35b80fd5b50634e487b7160e01b600052604160045260246000fd5b6020810190811067ffffffffffffffff82111761011b57604052565b6101236100e8565b604052565b60e0810190811067ffffffffffffffff82111761011b57604052565b6040810190811067ffffffffffffffff82111761011b57604052565b90601f8019910116810190811067ffffffffffffffff82111761011b57604052565b60209067ffffffffffffffff81116101a0575b601f01601f19160190565b6101a86100e8565b610195565b81601f8201121561000e578035906101c482610182565b926101d26040519485610160565b8284526020838301011161000e57816000926020809301838601378301015290565b6001600160a01b0381160361000e57565b503461000e57602036600319011261000e57600435610223816101f4565b60ff6003541661037557604090600080835161023e816100ff565b818152845161027081610262602082019460208652898084015260608301906107cd565b03601f198101835282610160565b51907301000000000000000000000000000000000000015afa9061029261072e565b9115610331576103239061030a6102ba6102b46102ae866104d9565b95610834565b506104fc565b6102d7836001600160a01b03166000526001602052604060002090565b906001600160a01b03167fffffffffffffffffffffffff0000000000000000000000000000000000000000825416179055565b6001600160a01b03166000526002602052604060002090565b5551308152602090f35b0390f35b825162461bcd60e51b815260206004820152601360248201527f72616e646f6d42797465733a206661696c6564000000000000000000000000006044820152606490fd5b60405162461bcd60e51b815260206004820152601260248201527f416c7265616479496e697469616c697a656400000000000000000000000000006044820152606490fd5b503461000e57606036600319011261000e5760043567ffffffffffffffff80821161000e573660238301121561000e57816004013590811161000e573691016024011161000e5761032d61041c602435610413816101f4565b60443590610964565b60408051825181526020808401519082015291810151908201529081906060820190565b503461000e57606036600319011261000e5760243567ffffffffffffffff811161000e576100ba61047760209236906004016101ad565b60443590610484826101f4565b600435610e83565b503461000e5760031960403682011261000e576004359067ffffffffffffffff821161000e5761016090823603011261000e576104d160209160243590600401610df7565b604051908152f35b6020815191015190602081106104ed575090565b6000199060200360031b1b1690565b602181510361061157610513602182015191610623565b5160f81c6000600282141580610606575b6105f4578060405160208101906020825260206040820152602060608201526401000003d01980600781808a80098a090860808301527f3fffffffffffffffffffffffffffffffffffffffffffffffffffffffbfffff0c60a083015260c082015260c0815261059281610128565b519060055afa916105a161072e565b92156105e2576105c66105c06105b96105cf956104d9565b93846106f0565b60011690565b6105d25761075e565b90565b906105dc906106fd565b9061075e565b60405163102875ed60e01b8152600490fd5b60405163ab4be04160e01b8152600490fd5b506003821415610524565b604051636446a2c560e11b8152600490fd5b8051156106305760200190565b634e487b7160e01b600052603260045260246000fd5b8051600210156106305760220190565b8051600110156106305760210190565b8051600310156106305760230190565b8051600410156106305760240190565b908151811015610630570160200190565b50634e487b7160e01b600052601160045260246000fd5b60040190816004116106bc57565b6106c4610697565b565b90600182018092116106bc57565b90600482018092116106bc57565b90600282018092116106bc57565b919082018092116106bc57565b6401000003d019908103919082116106bc57565b6000198101919082116106bc57565b60200390602082116106bc57565b3d15610759573d9061073f82610182565b9161074d6040519384610160565b82523d6000602084013e565b606090565b6001600160a01b039160405190602082019283526040820152604081526060810181811067ffffffffffffffff82111761079d575b6040525190201690565b6107a56100e8565b610793565b60005b8381106107bd5750506000910152565b81810151838201526020016107ad565b906020916107e6815180928185528580860191016107aa565b601f01601f1916010190565b81601f8201121561000e57805161080881610182565b926108166040519485610160565b8184526020828401011161000e576105cf91602080850191016107aa565b90604090815160209061085b816102628482019760048952878084015260608301906107cd565b60008095819251907301000000000000000000000000000000000000055afa9061088361072e565b91156108e357815182019184818385019403126108df57818101519067ffffffffffffffff918281116108db5784846108be928401016107f2565b958101519182116108d7576105cf9495965001016107f2565b8680fd5b8780fd5b8580fd5b60649084519062461bcd60e51b82526004820152601b60248201527f67656e207369676e696e67206b6579706169723a206661696c656400000000006044820152fd5b604051906060820182811067ffffffffffffffff821117610957575b60405260006040838281528260208201520152565b61095f6100e8565b610942565b61096c610926565b506001600160a01b0380600092168252602060018152604091828420541692600282528083610a01610a30828420546109a3610926565b50835190878201528681526109b781610144565b8351908a888301528782526109cb82610144565b610a2485516109d9816100ff565b878152610a14875196879460808d87019a6109f48c60049052565b87015260a08601906107cd565b601f1995868683030160608701526107cd565b90848483030160808501526107cd565b03908101835282610160565b51907301000000000000000000000000000000000000065afa91610a5261072e565b9215610a6f57505090610a676105cf92610ae2565b928391610cf1565b60649250519062461bcd60e51b82526004820152600c60248201527f7369676e3a206661696c656400000000000000000000000000000000000000006044820152fd5b908160031b917f1fffffffffffffffffffffffffffffffffffffffffffffffffffffffffffffff8116036106bc57565b90610aeb610926565b916008815110610c9d576001600160f81b0319600360fc1b81610b1e610b1085610623565b516001600160f81b03191690565b1603610c9d57600160f91b8082610b37610b1086610646565b1603610c9d57610b5b610b55610b4f610b1086610656565b60f81c90565b60ff1690565b91610b6e610b55610b4f610b1087610666565b9260218411610c9d57610b80846106ae565b90610b9c610b55610b4f610b10610b96866106c6565b8a610686565b9360218511610c9d57610bc2610bb5610b10858a610686565b6001600160f81b03191690565b03610c9d5780610bda610bd586886106f0565b6106d4565b03610c9d57610bea8651916106e2565b03610c9d57610bf8906106e2565b9060049060218514610caf575b60218414610c6a575b50906020809286010151940101519160208110610c53575b5060208110610c3b575b509083526020830152565b610c47610c4c91610720565b610ab2565b1c38610c30565b610c47610c6291949294610720565b1c9138610c26565b610c7a610b108488969496610686565b16610c9d576020610c94610c8e82946106c6565b92610711565b93919250610c0e565b6040516386cd05c560e01b8152600490fd5b939084610cbe610b1088610676565b16610cd55750610ccf600591610711565b93610c05565b6040516386cd05c560e01b8152fd5b506040513d6000823e3d90fd5b9160408101601b8152815191602081016020610d2b825160405196888860609194939260808201958252601b602083015260408201520152565b856000968792838052039060015afa15610de0575b83516001600160a01b038097169687911603610d5f575b505050505050565b610db194610d958593601c602096525192516040519384938460609194939260808201958252601c602083015260408201520152565b838052039060015afa15610dd3575b516001600160a01b031690565b03610dc157388080808080610d57565b604051634532600d60e01b8152600490fd5b610ddb610ce4565b610da4565b610de8610ce4565b610d40565b356105cf816101f4565b90610140820135601e198336030181121561000e57820180359267ffffffffffffffff9081851161000e576020830194803603861361000e5783019460408487031261000e573591821161000e57610e6a6040610e62610e6f94602080610e759a01918801016101ad565b9401356101f4565b610ded565b91610ec1565b610e7e57600190565b600090565b90610e8e9291610ec1565b610eb6577fffffffff0000000000000000000000000000000000000000000000000000000090565b630b135d3f60e11b90565b91906001600160a01b0380921660005260016020528160406000205416927f19457468657265756d205369676e6564204d6573736167653a0a33320000000060005280601c5282610f21610f1984603c60002061108e565b919091610f6e565b168414610f4557610f3591610f199161108e565b1614610f4057600090565b600190565b50505050600190565b60051115610f5857565b634e487b7160e01b600052602160045260246000fd5b610f7781610f4e565b80610f7f5750565b610f8881610f4e565b60018103610fd55760405162461bcd60e51b815260206004820152601860248201527f45434453413a20696e76616c6964207369676e617475726500000000000000006044820152606490fd5b610fde81610f4e565b6002810361102b5760405162461bcd60e51b815260206004820152601f60248201527f45434453413a20696e76616c6964207369676e6174757265206c656e677468006044820152606490fd5b80611037600392610f4e565b1461103e57565b60405162461bcd60e51b815260206004820152602260248201527f45434453413a20696e76616c6964207369676e6174757265202773272076616c604482015261756560f01b6064820152608490fd5b9060418151146000146110bc576110b8916020820151906060604084015193015160001a906110c6565b9091565b5050600090600290565b9291907f7fffffffffffffffffffffffffffffff5d576e7357a4501ddfe92f46681b20a0831161114a5791608094939160ff602094604051948552168484015260408301526060820152600093849182805260015afa1561113d575b81516001600160a01b03811615611137579190565b50600190565b611145610ce4565b611122565b5050505060009060039056fea2646970667358221220d8292a7f5015f3e5eaf54576d58db9388426c53e65e05257c8fbd5224cef092a64736f6c63430008110033",
  "devdoc": {
    "kind": "dev",
    "methods": {},
    "version": 1
  },
  "userdoc": {
    "kind": "user",
    "methods": {},
    "version": 1
  },
  "storageLayout": {
    "storage": [
      {
        "astId": 3239,
        "contract": "contracts/modules/KeyManagementContractRegistryModule/KeyManagement.sol:KeyManagement",
        "label": "_modules",
        "offset": 0,
        "slot": "0",
        "type": "t_mapping(t_address,t_address)"
      },
      {
        "astId": 3243,
        "contract": "contracts/modules/KeyManagementContractRegistryModule/KeyManagement.sol:KeyManagement",
        "label": "publicAddress",
        "offset": 0,
        "slot": "1",
        "type": "t_mapping(t_address,t_address)"
      },
      {
        "astId": 3247,
        "contract": "contracts/modules/KeyManagementContractRegistryModule/KeyManagement.sol:KeyManagement",
        "label": "privateSecret",
        "offset": 0,
        "slot": "2",
        "type": "t_mapping(t_address,t_bytes32)"
      },
      {
        "astId": 3249,
        "contract": "contracts/modules/KeyManagementContractRegistryModule/KeyManagement.sol:KeyManagement",
        "label": "_initialized",
        "offset": 0,
        "slot": "3",
        "type": "t_bool"
      }
    ],
    "types": {
      "t_address": {
        "encoding": "inplace",
        "label": "address",
        "numberOfBytes": "20"
      },
      "t_bool": {
        "encoding": "inplace",
        "label": "bool",
        "numberOfBytes": "1"
      },
      "t_bytes32": {
        "encoding": "inplace",
        "label": "bytes32",
        "numberOfBytes": "32"
      },
      "t_mapping(t_address,t_address)": {
        "encoding": "mapping",
        "key": "t_address",
        "label": "mapping(address => address)",
        "numberOfBytes": "32",
        "value": "t_address"
      },
      "t_mapping(t_address,t_bytes32)": {
        "encoding": "mapping",
        "key": "t_address",
        "label": "mapping(address => bytes32)",
        "numberOfBytes": "32",
        "value": "t_bytes32"
      }
    }
  }
}