{
  "address": "0x2FEA42877B35F44b9A020a72C2839541c2F7A6Cc",
  "abi": [
    {
      "inputs": [
        {
          "internalType": "contract IEntryPoint",
          "name": "_entryPoint",
          "type": "address"
        },
        {
          "internalType": "contract IERC20",
          "name": "_wrappedNative",
          "type": "address"
        },
        {
          "internalType": "contract ILuminexRouterV1",
          "name": "_luminexRouterV1",
          "type": "address"
        },
        {
          "components": [
            {
              "internalType": "uint48",
              "name": "refundPostopCost",
              "type": "uint48"
            },
            {
              "internalType": "uint256",
              "name": "minSwapAmount",
              "type": "uint256"
            }
          ],
          "internalType": "struct TokenPaymaster.TokenPaymasterConfig",
          "name": "_tokenPaymasterConfig",
          "type": "tuple"
        },
        {
          "internalType": "address",
          "name": "_owner",
          "type": "address"
        }
      ],
      "stateMutability": "nonpayable",
      "type": "constructor"
    },
    {
      "anonymous": false,
      "inputs": [
        {
          "components": [
            {
              "internalType": "uint48",
              "name": "refundPostopCost",
              "type": "uint48"
            },
            {
              "internalType": "uint256",
              "name": "minSwapAmount",
              "type": "uint256"
            }
          ],
          "indexed": false,
          "internalType": "struct TokenPaymaster.TokenPaymasterConfig",
          "name": "tokenPaymasterConfig",
          "type": "tuple"
        }
      ],
      "name": "ConfigUpdated",
      "type": "event"
    },
    {
      "anonymous": false,
      "inputs": [
        {
          "indexed": true,
          "internalType": "address",
          "name": "previousOwner",
          "type": "address"
        },
        {
          "indexed": true,
          "internalType": "address",
          "name": "newOwner",
          "type": "address"
        }
      ],
      "name": "OwnershipTransferred",
      "type": "event"
    },
    {
      "anonymous": false,
      "inputs": [
        {
          "indexed": true,
          "internalType": "address",
          "name": "sender",
          "type": "address"
        },
        {
          "indexed": false,
          "internalType": "uint256",
          "name": "value",
          "type": "uint256"
        }
      ],
      "name": "Received",
      "type": "event"
    },
    {
      "anonymous": false,
      "inputs": [
        {
          "indexed": true,
          "internalType": "address",
          "name": "user",
          "type": "address"
        },
        {
          "indexed": false,
          "internalType": "address",
          "name": "token",
          "type": "address"
        },
        {
          "indexed": false,
          "internalType": "uint256",
          "name": "actualTokenCharge",
          "type": "uint256"
        },
        {
          "indexed": false,
          "internalType": "uint256",
          "name": "actualGasCost",
          "type": "uint256"
        }
      ],
      "name": "UserOperationSponsored",
      "type": "event"
    },
    {
      "inputs": [
        {
          "internalType": "address",
          "name": "token",
          "type": "address"
        }
      ],
      "name": "addERC20Support",
      "outputs": [],
      "stateMutability": "nonpayable",
      "type": "function"
    },
    {
      "inputs": [
        {
          "internalType": "uint32",
          "name": "unstakeDelaySec",
          "type": "uint32"
        }
      ],
      "name": "addStake",
      "outputs": [],
      "stateMutability": "payable",
      "type": "function"
    },
    {
      "inputs": [],
      "name": "countTokenSupport",
      "outputs": [
        {
          "internalType": "uint256",
          "name": "",
          "type": "uint256"
        }
      ],
      "stateMutability": "view",
      "type": "function"
    },
    {
      "inputs": [],
      "name": "deposit",
      "outputs": [],
      "stateMutability": "payable",
      "type": "function"
    },
    {
      "inputs": [],
      "name": "entryPoint",
      "outputs": [
        {
          "internalType": "contract IEntryPoint",
          "name": "",
          "type": "address"
        }
      ],
      "stateMutability": "view",
      "type": "function"
    },
    {
      "inputs": [
        {
          "internalType": "address",
          "name": "token",
          "type": "address"
        },
        {
          "internalType": "uint256",
          "name": "amountIn",
          "type": "uint256"
        }
      ],
      "name": "estimateNativeToToken",
      "outputs": [
        {
          "internalType": "uint256",
          "name": "amountOut",
          "type": "uint256"
        }
      ],
      "stateMutability": "view",
      "type": "function"
    },
    {
      "inputs": [
        {
          "internalType": "address",
          "name": "token",
          "type": "address"
        },
        {
          "internalType": "uint256",
          "name": "amountIn",
          "type": "uint256"
        }
      ],
      "name": "estimateTokenToNative",
      "outputs": [
        {
          "internalType": "uint256",
          "name": "amountOut",
          "type": "uint256"
        }
      ],
      "stateMutability": "view",
      "type": "function"
    },
    {
      "inputs": [],
      "name": "getDeposit",
      "outputs": [
        {
          "internalType": "uint256",
          "name": "",
          "type": "uint256"
        }
      ],
      "stateMutability": "view",
      "type": "function"
    },
    {
      "inputs": [],
      "name": "getListTokenSupport",
      "outputs": [
        {
          "internalType": "address[]",
          "name": "result",
          "type": "address[]"
        }
      ],
      "stateMutability": "view",
      "type": "function"
    },
    {
      "inputs": [
        {
          "internalType": "uint256",
          "name": "",
          "type": "uint256"
        }
      ],
      "name": "listTokenSupport",
      "outputs": [
        {
          "internalType": "address",
          "name": "",
          "type": "address"
        }
      ],
      "stateMutability": "view",
      "type": "function"
    },
    {
      "inputs": [],
      "name": "luminexRouterV1",
      "outputs": [
        {
          "internalType": "address",
          "name": "",
          "type": "address"
        }
      ],
      "stateMutability": "view",
      "type": "function"
    },
    {
      "inputs": [
        {
          "internalType": "uint256",
          "name": "",
          "type": "uint256"
        }
      ],
      "name": "ordinalToToken",
      "outputs": [
        {
          "internalType": "address",
          "name": "",
          "type": "address"
        }
      ],
      "stateMutability": "view",
      "type": "function"
    },
    {
      "inputs": [],
      "name": "owner",
      "outputs": [
        {
          "internalType": "address",
          "name": "",
          "type": "address"
        }
      ],
      "stateMutability": "view",
      "type": "function"
    },
    {
      "inputs": [
        {
          "internalType": "enum IPaymaster.PostOpMode",
          "name": "mode",
          "type": "uint8"
        },
        {
          "internalType": "bytes",
          "name": "context",
          "type": "bytes"
        },
        {
          "internalType": "uint256",
          "name": "actualGasCost",
          "type": "uint256"
        }
      ],
      "name": "postOp",
      "outputs": [],
      "stateMutability": "nonpayable",
      "type": "function"
    },
    {
      "inputs": [
        {
          "internalType": "address",
          "name": "token",
          "type": "address"
        }
      ],
      "name": "removeERC20Support",
      "outputs": [],
      "stateMutability": "nonpayable",
      "type": "function"
    },
    {
      "inputs": [],
      "name": "renounceOwnership",
      "outputs": [],
      "stateMutability": "nonpayable",
      "type": "function"
    },
    {
      "inputs": [
        {
          "components": [
            {
              "internalType": "uint48",
              "name": "refundPostopCost",
              "type": "uint48"
            },
            {
              "internalType": "uint256",
              "name": "minSwapAmount",
              "type": "uint256"
            }
          ],
          "internalType": "struct TokenPaymaster.TokenPaymasterConfig",
          "name": "_tokenPaymasterConfig",
          "type": "tuple"
        }
      ],
      "name": "setTokenPaymasterConfig",
      "outputs": [],
      "stateMutability": "nonpayable",
      "type": "function"
    },
    {
      "inputs": [],
      "name": "tokenPaymasterConfig",
      "outputs": [
        {
          "internalType": "uint48",
          "name": "refundPostopCost",
          "type": "uint48"
        },
        {
          "internalType": "uint256",
          "name": "minSwapAmount",
          "type": "uint256"
        }
      ],
      "stateMutability": "view",
      "type": "function"
    },
    {
      "inputs": [
        {
          "internalType": "address",
          "name": "",
          "type": "address"
        }
      ],
      "name": "tokenSupport",
      "outputs": [
        {
          "internalType": "bool",
          "name": "",
          "type": "bool"
        }
      ],
      "stateMutability": "view",
      "type": "function"
    },
    {
      "inputs": [
        {
          "internalType": "address",
          "name": "",
          "type": "address"
        }
      ],
      "name": "tokenToOrdinal",
      "outputs": [
        {
          "internalType": "uint256",
          "name": "",
          "type": "uint256"
        }
      ],
      "stateMutability": "view",
      "type": "function"
    },
    {
      "inputs": [],
      "name": "totalToken",
      "outputs": [
        {
          "internalType": "uint256",
          "name": "",
          "type": "uint256"
        }
      ],
      "stateMutability": "view",
      "type": "function"
    },
    {
      "inputs": [
        {
          "internalType": "address",
          "name": "newOwner",
          "type": "address"
        }
      ],
      "name": "transferOwnership",
      "outputs": [],
      "stateMutability": "nonpayable",
      "type": "function"
    },
    {
      "inputs": [],
      "name": "unlockStake",
      "outputs": [],
      "stateMutability": "nonpayable",
      "type": "function"
    },
    {
      "inputs": [
        {
          "components": [
            {
              "internalType": "address",
              "name": "sender",
              "type": "address"
            },
            {
              "internalType": "uint256",
              "name": "nonce",
              "type": "uint256"
            },
            {
              "internalType": "bytes",
              "name": "initCode",
              "type": "bytes"
            },
            {
              "internalType": "bytes",
              "name": "callData",
              "type": "bytes"
            },
            {
              "internalType": "uint256",
              "name": "callGasLimit",
              "type": "uint256"
            },
            {
              "internalType": "uint256",
              "name": "verificationGasLimit",
              "type": "uint256"
            },
            {
              "internalType": "uint256",
              "name": "preVerificationGas",
              "type": "uint256"
            },
            {
              "internalType": "uint256",
              "name": "maxFeePerGas",
              "type": "uint256"
            },
            {
              "internalType": "uint256",
              "name": "maxPriorityFeePerGas",
              "type": "uint256"
            },
            {
              "internalType": "bytes",
              "name": "paymasterAndData",
              "type": "bytes"
            },
            {
              "internalType": "bytes",
              "name": "signature",
              "type": "bytes"
            }
          ],
          "internalType": "struct UserOperation",
          "name": "userOp",
          "type": "tuple"
        },
        {
          "internalType": "bytes32",
          "name": "userOpHash",
          "type": "bytes32"
        },
        {
          "internalType": "uint256",
          "name": "maxCost",
          "type": "uint256"
        }
      ],
      "name": "validatePaymasterUserOp",
      "outputs": [
        {
          "internalType": "bytes",
          "name": "context",
          "type": "bytes"
        },
        {
          "internalType": "uint256",
          "name": "validationData",
          "type": "uint256"
        }
      ],
      "stateMutability": "nonpayable",
      "type": "function"
    },
    {
      "inputs": [
        {
          "internalType": "address payable",
          "name": "recipient",
          "type": "address"
        },
        {
          "internalType": "uint256",
          "name": "amount",
          "type": "uint256"
        }
      ],
      "name": "withdrawEth",
      "outputs": [],
      "stateMutability": "nonpayable",
      "type": "function"
    },
    {
      "inputs": [
        {
          "internalType": "address payable",
          "name": "withdrawAddress",
          "type": "address"
        }
      ],
      "name": "withdrawStake",
      "outputs": [],
      "stateMutability": "nonpayable",
      "type": "function"
    },
    {
      "inputs": [
        {
          "internalType": "address payable",
          "name": "withdrawAddress",
          "type": "address"
        },
        {
          "internalType": "uint256",
          "name": "amount",
          "type": "uint256"
        }
      ],
      "name": "withdrawTo",
      "outputs": [],
      "stateMutability": "nonpayable",
      "type": "function"
    },
    {
      "inputs": [
        {
          "internalType": "contract IERC20",
          "name": "token",
          "type": "address"
        },
        {
          "internalType": "address",
          "name": "to",
          "type": "address"
        },
        {
          "internalType": "uint256",
          "name": "amount",
          "type": "uint256"
        }
      ],
      "name": "withdrawToken",
      "outputs": [],
      "stateMutability": "nonpayable",
      "type": "function"
    },
    {
      "inputs": [],
      "name": "wrappedNative",
      "outputs": [
        {
          "internalType": "address",
          "name": "",
          "type": "address"
        }
      ],
      "stateMutability": "view",
      "type": "function"
    },
    {
      "stateMutability": "payable",
      "type": "receive"
    }
  ],
  "transactionHash": "0xc469f63d35bb50a56b4e4ca985bbd3f812d6a8c53144c067b7e68d4e68369454",
  "args": [
    "0x90cf31349Bc09Fb7eBBcdEbFaB61940030ecd696",
    "0x0165878A594ca255338adfa4d48449f69242Eb8F",
    "0x576BB16ee7d78A10df846905613cdaaD957BB9f9",
    {
      "refundPostopCost": 40000,
      "minSwapAmount": "1000000000000000000"
    },
    "0xf39Fd6e51aad88F6F4ce6aB8827279cffFb92266"
  ],
  "numDeployments": 1,
  "solcInputHash": "2bc17cfc3b3f12cf72698439c45db046",
  "bytecode": "0x60e0346200023b57601f620020b238819003918201601f1916830192916001600160401b0391908285118486101762000240578084926040968752833981010360c081126200023b5782516001600160a01b039384821682036200023b576020810151938585168095036200023b5786820151938685168095036200023b57605f190187136200023b57865190818801908111828210176200024057875260608201519065ffffffffffff9182811681036200023b57815260a0608084015193602083019485520151968716958688036200023b577f255fdef0fddc5529a1b63a91df1b4b9621b51dbff15ca57dbd57bd9022ca2ff99589956200010333620002af565b60805260a05260c0526200011662000256565b5116908165ffffffffffff19600754161760075580516008558251918252516020820152a16200014562000256565b15620001e8576200015690620002af565b51611dbb9081620002f7823960805181818161070301528181610811015281816108be0152818161093801528181610b0b01528181610f530152818161114101528181611340015281816114e401526116da015260a051818181610ac7015281816111110152611bdc015260c05181818161036a0152818161066d01528181610d3201528181611b7f0152611c810152f35b815162461bcd60e51b815260206004820152602660248201527f4f776e61626c653a206e6577206f776e657220697320746865207a65726f206160448201526564647265737360d01b6064820152608490fd5b600080fd5b634e487b7160e01b600052604160045260246000fd5b6000546001600160a01b031633036200026b57565b606460405162461bcd60e51b815260206004820152602060248201527f4f776e61626c653a2063616c6c6572206973206e6f7420746865206f776e65726044820152fd5b600080546001600160a01b039283166001600160a01b03198216811783559216907f8be0079c531659141344cd1fd0a4f28419497f9722a3daafe3b4186f6b6457e09080a356fe604060808152600480361015610085575b50361561001c57600080fd5b610059815161002a8161161a565b600d81527f20656d6974206576656e742032000000000000000000000000000000000000006020820152611ccc565b513481527f88a5966d370b9919b20f3e2c13ff65706f196a4e32cc2c12bf57088f8852587460203392a2005b600090813560e01c90816301e33667146115425781630396cb60146114b2578163065c20c81461148057816307d59967146114275781631b9a91a41461139c578163205c287814611311578163626be567146112f2578163715018a61461128b5781637cad17901461126c5781638da5cb5b14611246578163a9a2340914610c21578163ae6fb4f814610b2f578163b0d691fe14610aeb578163b649e07014610aa7578163b9d2df6114610986578163bb9fe6bf14610912578163c23a5cea1461088e578163c399ec88146107dd578163ca56b1e0146107a6578163cb721cfd14610779578163d0e30db0146106ea578163d9a3c81c146106c1578163e7f319af14610691578163eb6d3a111461064d578163f15434361461059a578163f2fde38b146104af578163f465c77e146102ca578163fdf397ee1461020c575063fe80858c036100105790346102085760203660031901126102085760ff816020936001600160a01b036101f5611589565b1681526001855220541690519015158152f35b5080fd5b839150346102c65760203660031901126102c6576001600160a01b03610230611589565b610238611747565b1690818452600160205260ff838520541615610283578054801561027057600019019055825260016020528120805460ff1916905580f35b634e487b7160e01b855260118252602485fd5b606490602084519162461bcd60e51b8352820152601160248201527f546f6b656e207761732072656d6f7665640000000000000000000000000000006044820152fd5b8280fd5b8383346104ac57600319926060368501126102085780359067ffffffffffffffff82116102c6576101608282019583360301126102c6576103096116d0565b60075460e483013592610124019065ffffffffffff166103298288611a44565b6034116104a8576024013560801c811015610465578361034f9102604435019187611a44565b604811610461576034013560601c906001600160a01b0392837f00000000000000000000000000000000000000000000000000000000000000001683146000146103f657506103b490965b6103af886103a783611a77565b309086611a8b565b611a77565b908551966020880152858701521660608501526080840152608083526103d983611652565b6103ec8251938385948552840190611690565b9060208301520390f35b828652600160205260ff87872054161561041e57506104186103b49183611b49565b9661039a565b606490602088519162461bcd60e51b8352820152601160248201527f546f6b656e206e6f7420737570706f72740000000000000000000000000000006044820152fd5b8480fd5b855162461bcd60e51b8152602081850152601b60248201527f54504d3a20706f73744f704761734c696d697420746f6f206c6f7700000000006044820152606490fd5b8580fd5b80fd5b839150346102c65760203660031901126102c6576104cb611589565b906104d4611747565b6001600160a01b038092169283156105315750506000548273ffffffffffffffffffffffffffffffffffffffff19821617600055167f8be0079c531659141344cd1fd0a4f28419497f9722a3daafe3b4186f6b6457e0600080a380f35b906020608492519162461bcd60e51b8352820152602660248201527f4f776e61626c653a206e6577206f776e657220697320746865207a65726f206160448201527f64647265737300000000000000000000000000000000000000000000000000006064820152fd5b905082346102c657806003193601126102c65780519181830183811067ffffffffffffffff821117610638578252359165ffffffffffff8084168403610461577f255fdef0fddc5529a1b63a91df1b4b9621b51dbff15ca57dbd57bd9022ca2ff993825260208201916024358352610610611747565b5116908165ffffffffffff19600754161760075580516008558251918252516020820152a180f35b604182634e487b7160e01b6000525260246000fd5b828434610208578160031936011261020857602090516001600160a01b037f0000000000000000000000000000000000000000000000000000000000000000168152f35b8284346102085780600319360112610208576020906106ba6106b1611589565b60243590611b49565b9051908152f35b8284346102085780600319360112610208576020906106ba6106e1611589565b60243590611c3f565b9050819282600319360112610775576001600160a01b037f00000000000000000000000000000000000000000000000000000000000000001691823b15610770578390602483518095819363b760faf960e01b8352309083015234905af190811561076757506107575750f35b610760906115f0565b6104ac5780f35b513d84823e3d90fd5b505050fd5b5050fd5b5050346104ac57806003193601126104ac575065ffffffffffff6007541660085482519182526020820152f35b82843461020857602036600319011261020857806020926001600160a01b036107cd611589565b1681526002845220549051908152f35b8284346102085781600319360112610208578051926370a0823160e01b845230908401526020836024816001600160a01b037f0000000000000000000000000000000000000000000000000000000000000000165afa918215610883579161084a575b6020925051908152f35b90506020823d821161087b575b816108646020938361166e565b81010312610876576020915190610840565b600080fd5b3d9150610857565b9051903d90823e3d90fd5b9050819234610775576020366003190112610775576108ab611589565b6108b3611747565b6001600160a01b03807f000000000000000000000000000000000000000000000000000000000000000016803b156104a8578592836024928651978895869463611d2e7560e11b865216908401525af190811561076757506107575750f35b905081923461077557826003193601126107755761092e611747565b6001600160a01b037f00000000000000000000000000000000000000000000000000000000000000001691823b1561077057815163bb9fe6bf60e01b81529284918491829084905af190811561076757506107575750f35b839150346102c65760209081600319360112610aa3576001600160a01b036109ac611589565b6109b4611747565b16908185526001835260ff8486205416610a60579060019291818652600283528486205415600014610a41576109eb60055461179f565b90816005556109fa815461179f565b90558186526002835280858720558552600382528385208173ffffffffffffffffffffffffffffffffffffffff198254161790558452528120600160ff1982541617905580f35b610a4b815461179f565b90558452528120805460ff1916600117905580f35b835162461bcd60e51b8152908101839052601160248201527f746f6b656e2077617320656e61626c65640000000000000000000000000000006044820152606490fd5b8380fd5b828434610208578160031936011261020857602090516001600160a01b037f0000000000000000000000000000000000000000000000000000000000000000168152f35b828434610208578160031936011261020857602090516001600160a01b037f0000000000000000000000000000000000000000000000000000000000000000168152f35b828434610208578160031936011261020857825492610b4d846117c4565b93610b5a8351958661166e565b808552610b69601f19916117c4565b0192602093368587013760058054919290600184815b85811115610b9d57875189815280610b99818c018d6115b3565b0390f35b8082526003808a526001600160a01b0390818a852054168452848b528460ff8b86205416151514610bd9575b5050610bd49061179f565b610b7f565b8284999399528a5288832054168a51821015610c0c5781610c04918b8d610bd495891b01015261179f565b96908b610bc9565b603286634e487b7160e01b6000525260246000fd5b828434610208576060366003190112610208576003833510156102085760249081359367ffffffffffffffff808611610461573660238701121561046157858201359081116104615785019436848701116104615760443595610c826116d0565b608082855192610c918461161a565b60068452610cc56020947f686168616861000000000000000000000000000000000000000000000000000086820152611ccc565b03126104a8578482013591610cdc6044820161159f565b92610ce96064830161159f565b917f17ffde6359ce255c678a17b62fba7f276b9187996206563daaab42c2d836d675606060846001600160a01b0380809916961693013565ffffffffffff60075416028c0193877f0000000000000000000000000000000000000000000000000000000000000000169c8d8714958660001461123657915b610d9e888d51610d708161161a565b600a81527f20746f6b656e3a202573000000000000000000000000000000000000000000008c820152611d60565b610ddb818d51610dad8161161a565b600d81527f7072654368617267653a202573000000000000000000000000000000000000008c820152611d1b565b610e18838d51610dea8161161a565b601981527f61637475616c557365724f704665655065724761733a202573000000000000008c820152611d1b565b610e55868d51610e278161161a565b600d81527f20757365724f7053656e646572000000000000000000000000000000000000008c820152611d60565b828082111561121557610e6a9103868961180f565b610ea68b51610e788161161a565b600b81527f20656d6974206576656e740000000000000000000000000000000000000000008a820152611ccc565b8a5191878352888301528a820152a21561105b579086979185516370a0823160e01b90818152308782015283818a81865afa908115611051578a91611020575b5060085410610efc575b50505050505050505080f35b8290888851809481938252308a8301525afa918215611016578892610fe5575b5050813b15610fe157869186839287519485938492632e1a7d4d60e01b8452898401525af18015610fd757908691610fc3575b50507f0000000000000000000000000000000000000000000000000000000000000000164793813b156104a85785928451958693849263b760faf960e01b845230908401525af19081156107675750610faf575b80808080808080610ef0565b610fb8906115f0565b6104ac578082610fa3565b610fcc906115f0565b610461578487610f4f565b84513d88823e3d90fd5b8680fd5b8198508092503d831161100f575b610ffd818361166e565b81010312610876578695518880610f1c565b503d610ff3565b86513d8a823e3d90fd5b809a50848092503d831161104a575b611039818361166e565b81010312610876578998518b610ee6565b503d61102f565b88513d8c823e3d90fd5b84516370a0823160e01b815230858201529082828881845afa9182156110165788926111e6575b5061108d8282611c3f565b600854106110a2575b50505050505050905080f35b8551926110ae84611636565b600284528301863682378351156111d2579188996110ff94928a94526110d3836117dc565b5286519384928392639c1cffbd60e01b845288840152848a84015260a0604484015260a48301906115b3565b306064830152426084830152038183867f0000000000000000000000000000000000000000000000000000000000000000165af18015610fd7576111b0575b507f0000000000000000000000000000000000000000000000000000000000000000164793813b156104a85785928451958693849263b760faf960e01b845230908401525af1908115610767575061119c575b808080808080611096565b6111a5906115f0565b6104ac578082611191565b6111cb903d8088833e6111c3818361166e565b810190611acf565b508661113e565b87603287634e487b7160e01b600052526000fd5b9091508281813d831161120e575b6111fe818361166e565b8101031261087657519089611082565b503d6111f4565b8110611222575b50610e6a565b61123090830330878a611a8b565b8e61121c565b6112409088611b49565b91610d61565b8284346102085781600319360112610208576001600160a01b0360209254169051908152f35b839150346102c657826003193601126102c65760209250549051908152f35b82346104ac57806003193601126104ac576112a4611747565b60006001600160a01b03815473ffffffffffffffffffffffffffffffffffffffff1981168355167f8be0079c531659141344cd1fd0a4f28419497f9722a3daafe3b4186f6b6457e08280a380f35b8284346102085781600319360112610208576020906005549051908152f35b905081923461077557806003193601126107755761132d611589565b611335611747565b6001600160a01b03807f000000000000000000000000000000000000000000000000000000000000000016803b156104a8578592836044928651978895869463040b850f60e31b8652169084015260243560248401525af190811561076757506107575750f35b905082346102c657806003193601126102c657828080806113bb611589565b6113c3611747565b6001600160a01b0360243591165af16113da611967565b50156113e4578280f35b906020606492519162461bcd60e51b8352820152600f60248201527f7769746864726177206661696c656400000000000000000000000000000000006044820152fd5b839150346102c65760203660031901126102c657356006548110156102c6576001600160a01b03906006602094527ff652222313e28459528d920b65115c16c04f3efc82aaedc97be59f3f377c0d3f0154169051908152f35b839150346102c65760203660031901126102c657816020936001600160a01b0392358152600385522054169051908152f35b90508260203660031901126102c65782823563ffffffff8116809103610208576114da611747565b6001600160a01b037f00000000000000000000000000000000000000000000000000000000000000001693843b156102c65760249084519586938492621cb65b60e51b845283015234905af19081156107675750611536575080f35b61153f906115f0565b80f35b90503461020857606036600319011261020857356001600160a01b039081811681036102c65760243591821682036102c65761153f91611580611747565b6044359161180f565b600435906001600160a01b038216820361087657565b35906001600160a01b038216820361087657565b90815180825260208080930193019160005b8281106115d3575050505090565b83516001600160a01b0316855293810193928101926001016115c5565b67ffffffffffffffff811161160457604052565b634e487b7160e01b600052604160045260246000fd5b6040810190811067ffffffffffffffff82111761160457604052565b6060810190811067ffffffffffffffff82111761160457604052565b60a0810190811067ffffffffffffffff82111761160457604052565b90601f8019910116810190811067ffffffffffffffff82111761160457604052565b919082519283825260005b8481106116bc575050826000602080949584010152601f8019910116010190565b60208183018101518483018201520161169b565b6001600160a01b037f000000000000000000000000000000000000000000000000000000000000000016330361170257565b60405162461bcd60e51b815260206004820152601560248201527f53656e646572206e6f7420456e747279506f696e7400000000000000000000006044820152606490fd5b6001600160a01b0360005416330361175b57565b606460405162461bcd60e51b815260206004820152602060248201527f4f776e61626c653a2063616c6c6572206973206e6f7420746865206f776e65726044820152fd5b60001981146117ae5760010190565b634e487b7160e01b600052601160045260246000fd5b67ffffffffffffffff81116116045760051b60200190565b8051600110156117ec5760400190565b634e487b7160e01b600052603260045260246000fd5b8051156117ec5760200190565b916001600160a01b036040519263a9059cbb60e01b6020850152166024830152604482015260448152608081019181831067ffffffffffffffff8411176116045761185c9260405261185e565b565b6001600160a01b0316906118be6040516118778161161a565b6020938482527f5361666545524332303a206c6f772d6c6576656c2063616c6c206661696c6564858301526000808587829751910182855af16118b8611967565b916119a7565b805191821591848315611943575b5050509050156118d95750565b6084906040519062461bcd60e51b82526004820152602a60248201527f5361666545524332303a204552433230206f7065726174696f6e20646964206e60448201527f6f742073756363656564000000000000000000000000000000000000000000006064820152fd5b919381809450010312610208578201519081151582036104ac5750803880846118cc565b3d156119a2573d9067ffffffffffffffff82116116045760405191611996601f8201601f19166020018461166e565b82523d6000602084013e565b606090565b91929015611a0957508151156119bb575090565b3b156119c45790565b60405162461bcd60e51b815260206004820152601d60248201527f416464726573733a2063616c6c20746f206e6f6e2d636f6e74726163740000006044820152606490fd5b825190915015611a1c5750805190602001fd5b60405162461bcd60e51b815260206004820152908190611a40906024830190611690565b0390fd5b903590601e1981360301821215610876570180359067ffffffffffffffff82116108765760200191813603831361087657565b356001600160a01b03811681036108765790565b909261185c93604051936323b872dd60e01b60208601526001600160a01b038092166024860152166044840152606483015260648252611aca82611652565b61185e565b60209081818403126108765780519067ffffffffffffffff821161087657019180601f84011215610876578251611b05816117c4565b93611b13604051958661166e565b818552838086019260051b820101928311610876578301905b828210611b3a575050505090565b81518152908301908301611b2c565b611bd89160009160405191611b5d83611636565b600283526040366020850137611b7283611802565b916001600160a01b0392837f000000000000000000000000000000000000000000000000000000000000000016905282611bab856117dc565b9116905260405180958194829363d06ca61f60e01b845260048401526040602484015260448301906115b3565b03917f0000000000000000000000000000000000000000000000000000000000000000165afa8015611c3357611c1691600091611c1a575b506117dc565b5190565b611c2d913d8091833e6111c3818361166e565b38611c10565b6040513d6000823e3d90fd5b611bd89160009160405191611c5383611636565b600283526040366020850137611c6883611802565b6001600160a01b038093169052611c7e836117dc565b827f000000000000000000000000000000000000000000000000000000000000000016905260405180958194829363d06ca61f60e01b845260048401526040602484015260448301906115b3565b60008091604051611d0881611cfa602082019463104c13eb60e21b8652602060248401526044830190611690565b03601f19810183528261166e565b51906a636f6e736f6c652e6c6f675afa50565b600091908291611d086040518092611d4c6020830195632d839cb360e21b8752604060248501526064840190611690565b90604483015203601f19810183528261166e565b600091908291611d0860405180926001600160a01b03611d99602084019663319af33360e01b8852604060248601526064850190611690565b9116604483015203601f19810183528261166e56fea164736f6c6343000811000a",
  "devdoc": {
    "details": "Inherits from BasePaymaster.",
    "kind": "dev",
    "methods": {
      "addERC20Support(address)": {
        "params": {
          "token": "The address of the ERC20 token to be supported."
        }
      },
      "addStake(uint32)": {
        "params": {
          "unstakeDelaySec": "- the unstake delay for this paymaster. Can only be increased."
        }
      },
      "constructor": {
        "params": {
          "_entryPoint": "The EntryPoint contract used in the Account Abstraction infrastructure.",
          "_luminexRouterV1": "The LuminexRouterV1 contract used for token swaps.",
          "_owner": "The address that will be set as the owner of the contract.",
          "_tokenPaymasterConfig": "The configuration for the Token Paymaster.",
          "_wrappedNative": "The ERC-20 token that wraps the native asset for current chain."
        }
      },
      "estimateNativeToToken(address,uint256)": {
        "params": {
          "amountIn": "amount of native token",
          "token": "ERC20 token address"
        },
        "returns": {
          "amountOut": "amount of ERC20 token receive in exchange with amountIn of native token"
        }
      },
      "estimateTokenToNative(address,uint256)": {
        "params": {
          "amountIn": "amount of ERC20 token",
          "token": "ERC20 token address"
        },
        "returns": {
          "amountOut": "amount of native token receive in exchange with amountIn of ERC20 token"
        }
      },
      "owner()": {
        "details": "Returns the address of the current owner."
      },
      "postOp(uint8,bytes,uint256)": {
        "params": {
          "actualGasCost": "- actual gas used so far (without this postOp call).",
          "context": "- the context value returned by validatePaymasterUserOp",
          "mode": "enum with the following options:      opSucceeded - user operation succeeded.      opReverted  - user op reverted. still has to pay for gas.      postOpReverted - user op succeeded, but caused postOp (in mode=opSucceeded) to revert.                       Now this is the 2nd call, after user's op was deliberately reverted."
        }
      },
      "renounceOwnership()": {
        "details": "Leaves the contract without owner. It will not be possible to call `onlyOwner` functions. Can only be called by the current owner. NOTE: Renouncing ownership will leave the contract without an owner, thereby disabling any functionality that is only available to the owner."
      },
      "setTokenPaymasterConfig((uint48,uint256))": {
        "params": {
          "_tokenPaymasterConfig": "The new configuration struct."
        }
      },
      "transferOwnership(address)": {
        "details": "Transfers ownership of the contract to a new account (`newOwner`). Can only be called by the current owner."
      },
      "validatePaymasterUserOp((address,uint256,bytes,bytes,uint256,uint256,uint256,uint256,uint256,bytes,bytes),bytes32,uint256)": {
        "params": {
          "maxCost": "the maximum cost of this transaction (based on maximum gas and gas price from userOp)",
          "userOp": "the user operation",
          "userOpHash": "hash of the user's request data."
        },
        "returns": {
          "context": "value to send to a postOp      zero length to signify postOp is not required.",
          "validationData": "signature and time-range of this operation, encoded the same as the return value of validateUserOperation      <20-byte> sigAuthorizer - 0 for valid signature, 1 to mark signature failure,         otherwise, an address of an \"authorizer\" contract.      <6-byte> validUntil - last timestamp this operation is valid. 0 for \"indefinite\"      <6-byte> validAfter - first timestamp this operation is valid      Note that the validation code cannot use block.timestamp (or block.number) directly."
        }
      },
      "withdrawEth(address,uint256)": {
        "params": {
          "amount": "The amount of ETH to transfer",
          "recipient": "The address to transfer the ETH to"
        }
      },
      "withdrawStake(address)": {
        "params": {
          "withdrawAddress": "the address to send withdrawn value."
        }
      },
      "withdrawTo(address,uint256)": {
        "params": {
          "amount": "to withdraw",
          "withdrawAddress": "target to send to"
        }
      },
      "withdrawToken(address,address,uint256)": {
        "params": {
          "amount": "The amount of tokens to transfer.",
          "to": "The address to transfer the tokens to.",
          "token": "The ERC20 token to withdraw."
        }
      }
    },
    "title": "TokenPaymaster",
    "version": 1
  },
  "userdoc": {
    "kind": "user",
    "methods": {
      "addERC20Support(address)": {
        "notice": "Adds support for an ERC20 token to be used for charging gas fees."
      },
      "addStake(uint32)": {
        "notice": "add stake for this paymaster. This method can also carry eth value to add to the current stake."
      },
      "constructor": {
        "notice": "Initializes the TokenPaymaster contract with the given parameters."
      },
      "deposit()": {
        "notice": "add a deposit for this paymaster, used for paying for transaction fees"
      },
      "estimateNativeToToken(address,uint256)": {
        "notice": "estimate ERC20 token receive in exchange with amountIn of native token by calling LuminexRouterV1"
      },
      "estimateTokenToNative(address,uint256)": {
        "notice": "estimate native token receive in exchange with amountIn of ERC20 token by calling LuminexRouterV1"
      },
      "getDeposit()": {
        "notice": "return current paymaster's deposit on the entryPoint."
      },
      "postOp(uint8,bytes,uint256)": {
        "notice": "post-operation handler. Must verify sender is the entryPoint"
      },
      "setTokenPaymasterConfig((uint48,uint256))": {
        "notice": "Updates the configuration for the Token Paymaster."
      },
      "unlockStake()": {
        "notice": "unlock the stake, in order to withdraw it. The paymaster can't serve requests once unlocked, until it calls addStake again"
      },
      "validatePaymasterUserOp((address,uint256,bytes,bytes,uint256,uint256,uint256,uint256,uint256,bytes,bytes),bytes32,uint256)": {
        "notice": "payment validation: check if paymaster agrees to pay. Must verify sender is the entryPoint. Revert to reject this request. Note that bundlers will reject this method if it changes the state, unless the paymaster is trusted (whitelisted) The paymaster pre-pays using its deposit, and receive back a refund after the postOp method returns."
      },
      "withdrawEth(address,uint256)": {
        "notice": "For contract owner to withdraw ETH from the contract"
      },
      "withdrawStake(address)": {
        "notice": "withdraw the entire paymaster's stake. stake must be unlocked first (and then wait for the unstakeDelay to be over)"
      },
      "withdrawTo(address,uint256)": {
        "notice": "withdraw value from the deposit"
      },
      "withdrawToken(address,address,uint256)": {
        "notice": "Allows the contract owner to withdraw a specified amount of tokens from the contract."
      }
    },
    "notice": "This Paymaster covers gas fees in exchange for ERC20 tokens charged using allowance pre-issued by ERC-4337 accounts. The contract refunds excess tokens if the actual gas cost is lower than the initially provided amount. The token price cannot be queried in the validation code due to storage access restrictions of ERC-4337. It is theoretically possible the token has depreciated so much since the last 'postOp' the refund becomes negative. The contract reverts the inner user transaction in that case but keeps the charge. The contract also allows honest clients to prepay tokens at a higher price to avoid getting reverted. It also allows updating price configuration and withdrawing tokens by the contract owner.",
    "version": 1
  },
  "storageLayout": {
    "storage": [
      {
        "astId": 2215,
        "contract": "contracts/paymasters/TokenPaymaster.sol:TokenPaymaster",
        "label": "_owner",
        "offset": 0,
        "slot": "0",
        "type": "t_address"
      },
      {
        "astId": 9495,
        "contract": "contracts/paymasters/TokenPaymaster.sol:TokenPaymaster",
        "label": "tokenSupport",
        "offset": 0,
        "slot": "1",
        "type": "t_mapping(t_address,t_bool)"
      },
      {
        "astId": 9499,
        "contract": "contracts/paymasters/TokenPaymaster.sol:TokenPaymaster",
        "label": "tokenToOrdinal",
        "offset": 0,
        "slot": "2",
        "type": "t_mapping(t_address,t_uint256)"
      },
      {
        "astId": 9503,
        "contract": "contracts/paymasters/TokenPaymaster.sol:TokenPaymaster",
        "label": "ordinalToToken",
        "offset": 0,
        "slot": "3",
        "type": "t_mapping(t_uint256,t_address)"
      },
      {
        "astId": 9505,
        "contract": "contracts/paymasters/TokenPaymaster.sol:TokenPaymaster",
        "label": "countTokenSupport",
        "offset": 0,
        "slot": "4",
        "type": "t_uint256"
      },
      {
        "astId": 9507,
        "contract": "contracts/paymasters/TokenPaymaster.sol:TokenPaymaster",
        "label": "totalToken",
        "offset": 0,
        "slot": "5",
        "type": "t_uint256"
      },
      {
        "astId": 9510,
        "contract": "contracts/paymasters/TokenPaymaster.sol:TokenPaymaster",
        "label": "listTokenSupport",
        "offset": 0,
        "slot": "6",
        "type": "t_array(t_address)dyn_storage"
      },
      {
        "astId": 9534,
        "contract": "contracts/paymasters/TokenPaymaster.sol:TokenPaymaster",
        "label": "tokenPaymasterConfig",
        "offset": 0,
        "slot": "7",
        "type": "t_struct(TokenPaymasterConfig)9491_storage"
      }
    ],
    "types": {
      "t_address": {
        "encoding": "inplace",
        "label": "address",
        "numberOfBytes": "20"
      },
      "t_array(t_address)dyn_storage": {
        "base": "t_address",
        "encoding": "dynamic_array",
        "label": "address[]",
        "numberOfBytes": "32"
      },
      "t_bool": {
        "encoding": "inplace",
        "label": "bool",
        "numberOfBytes": "1"
      },
      "t_mapping(t_address,t_bool)": {
        "encoding": "mapping",
        "key": "t_address",
        "label": "mapping(address => bool)",
        "numberOfBytes": "32",
        "value": "t_bool"
      },
      "t_mapping(t_address,t_uint256)": {
        "encoding": "mapping",
        "key": "t_address",
        "label": "mapping(address => uint256)",
        "numberOfBytes": "32",
        "value": "t_uint256"
      },
      "t_mapping(t_uint256,t_address)": {
        "encoding": "mapping",
        "key": "t_uint256",
        "label": "mapping(uint256 => address)",
        "numberOfBytes": "32",
        "value": "t_address"
      },
      "t_struct(TokenPaymasterConfig)9491_storage": {
        "encoding": "inplace",
        "label": "struct TokenPaymaster.TokenPaymasterConfig",
        "members": [
          {
            "astId": 9487,
            "contract": "contracts/paymasters/TokenPaymaster.sol:TokenPaymaster",
            "label": "refundPostopCost",
            "offset": 0,
            "slot": "0",
            "type": "t_uint48"
          },
          {
            "astId": 9490,
            "contract": "contracts/paymasters/TokenPaymaster.sol:TokenPaymaster",
            "label": "minSwapAmount",
            "offset": 0,
            "slot": "1",
            "type": "t_uint256"
          }
        ],
        "numberOfBytes": "64"
      },
      "t_uint256": {
        "encoding": "inplace",
        "label": "uint256",
        "numberOfBytes": "32"
      },
      "t_uint48": {
        "encoding": "inplace",
        "label": "uint48",
        "numberOfBytes": "6"
      }
    }
  }
}