{
  "address": "0xcA7Cd7CB76F750A5Ec9470DF303D752C28CD772d",
  "abi": [
    {
      "inputs": [],
      "stateMutability": "nonpayable",
      "type": "constructor"
    },
    {
      "inputs": [],
      "name": "DER_Split_Error",
      "type": "error"
    },
    {
      "inputs": [],
      "name": "expmod_Error",
      "type": "error"
    },
    {
      "inputs": [],
      "name": "k256Decompress_Invalid_Length_Error",
      "type": "error"
    },
    {
      "inputs": [],
      "name": "k256DeriveY_Invalid_Prefix_Error",
      "type": "error"
    },
    {
      "inputs": [],
      "name": "recoverV_Error",
      "type": "error"
    },
    {
      "inputs": [
        {
          "internalType": "address",
          "name": "_owner",
          "type": "address"
        }
      ],
      "name": "init",
      "outputs": [
        {
          "internalType": "address",
          "name": "",
          "type": "address"
        }
      ],
      "stateMutability": "nonpayable",
      "type": "function"
    },
    {
      "inputs": [],
      "name": "keypairAddress",
      "outputs": [
        {
          "internalType": "address",
          "name": "",
          "type": "address"
        }
      ],
      "stateMutability": "view",
      "type": "function"
    },
    {
      "inputs": [],
      "name": "owner",
      "outputs": [
        {
          "internalType": "address",
          "name": "",
          "type": "address"
        }
      ],
      "stateMutability": "view",
      "type": "function"
    },
    {
      "inputs": [
        {
          "internalType": "string",
          "name": "password",
          "type": "string"
        }
      ],
      "name": "setPassword",
      "outputs": [],
      "stateMutability": "nonpayable",
      "type": "function"
    },
    {
      "inputs": [
        {
          "internalType": "bytes32",
          "name": "digest",
          "type": "bytes32"
        }
      ],
      "name": "sign",
      "outputs": [
        {
          "components": [
            {
              "internalType": "bytes32",
              "name": "r",
              "type": "bytes32"
            },
            {
              "internalType": "bytes32",
              "name": "s",
              "type": "bytes32"
            },
            {
              "internalType": "uint256",
              "name": "v",
              "type": "uint256"
            }
          ],
          "internalType": "struct SignatureRSV",
          "name": "",
          "type": "tuple"
        }
      ],
      "stateMutability": "view",
      "type": "function"
    }
  ],
  "transactionHash": "0xd5e86087b1bd4ebf251ccac8378b2c76894f0cb55a4a4c7aa1bc21ace0e62484",
  "args": [],
  "numDeployments": 1,
  "solcInputHash": "04ca1ceda40f850e7d2a631c976f245b",
  "bytecode": "0x6080806040523461001657610f19908161001c8239f35b600080fdfe60806040526004361015610013575b600080fd5b6000803560e01c90816319ab453c1461007a57508063290bb45314610071578063799cd333146100685780638da5cb5b1461005f5763ccb3c9d11461005757600080fd5b61000e610478565b5061000e610450565b5061000e6102c6565b5061000e610189565b3461018657602036600319011261018657600435906001600160a01b038216809203610186575460ff166101485773ffffffffffffffffffffffffffffffffffffffff1960025416176002556101036100da6100d4610588565b60045590565b6001600160a01b031673ffffffffffffffffffffffffffffffffffffffff196003541617600355565b610115600160ff196000541617600055565b61014461012a6002546001600160a01b031690565b6040516001600160a01b0390911681529081906020820190565b0390f35b62461bcd60e51b6080526020608452601260a4527f416c7265616479496e697469616c697a6564000000000000000000000000000060c45260646080fd5b80fd5b503461000e5760208060031936011261000e5760043567ffffffffffffffff80821161000e573660238301121561000e57816004013590811161000e5760243681838501011161000e576101e96001600160a01b03600254163314610a70565b6001926101ff836101fa8654610abc565b610af6565b600094601f841160011461023d575093829394600093610230575b505050600019600383901b1c191690821b179055005b010135905038808061021a565b91601f1984169561027060016000527fb10e2d527612073b26eecdfd717e6a320cf44b4afac2b0732d9fcbe2b7fa0cf690565b9381905b8882106102ad57505084869710610291575b50505050811b019055005b60001960f88660031b161c199201013516905538808080610286565b8088849786839596890101358155019601920190610274565b503461000e5760208060031936011261000e576004356102e4610b6a565b506103a76001600160a01b036102ff81600254163314610a70565b6003541692600080600454610312610b6a565b5061037860409586928351908782015286815261032e816104b7565b8351908988830152878252610342826104b7565b61039b8551610350816104e0565b87815261038b875196879460808d87019a61036b8c60049052565b87015260a08601906109c5565b601f1995868683030160608701526109c5565b90848483030160808501526109c5565b03908101835282610518565b51907301000000000000000000000000000000000000065afa906103c9610926565b911561040d5750610144936103e06103e892610bd8565b938491610de7565b5191829182919091604080606083019480518452602081015160208501520151910152565b60649083519062461bcd60e51b82526004820152600c60248201527f7369676e3a206661696c656400000000000000000000000000000000000000006044820152fd5b503461000e57600036600319011261000e5760206001600160a01b0360025416604051908152f35b503461000e57600036600319011261000e5760206001600160a01b0360035416604051908152f35b50634e487b7160e01b600052604160045260246000fd5b6040810190811067ffffffffffffffff8211176104d357604052565b6104db6104a0565b604052565b6020810190811067ffffffffffffffff8211176104d357604052565b60e0810190811067ffffffffffffffff8211176104d357604052565b90601f8019910116810190811067ffffffffffffffff8211176104d357604052565b60209067ffffffffffffffff8111610558575b601f01601f19160190565b6105606104a0565b61054d565b602081519101519060208110610579575090565b6000199060200360031b1b1690565b6040805190610596826104e0565b60008252805191600080602092856105bd85820192868452878084015260608301906109c5565b03956105d1601f1997888101835282610518565b51907301000000000000000000000000000000000000015afa6105f2610926565b90156106b1576000816106058293610565565b956106278651918261039b88820195600487528a8084015260608301906109c5565b51907301000000000000000000000000000000000000055afa91610649610926565b921561066e575081816106659261066b94518301019101610a2c565b506106f4565b91565b60649250519062461bcd60e51b82526004820152601b60248201527f67656e207369676e696e67206b6579706169723a206661696c656400000000006044820152fd5b50606491519062461bcd60e51b82526004820152601360248201527f72616e646f6d42797465733a206661696c6564000000000000000000000000006044820152fd5b60218151036108095761070b60218201519161081b565b5160f81c60006002821415806107fe575b6107ec578060405160208101906020825260206040820152602060608201526401000003d01980600781808a80098a090860808301527f3fffffffffffffffffffffffffffffffffffffffffffffffffffffffbfffff0c60a083015260c082015260c0815261078a816104fc565b519060055afa91610799610926565b92156107da576107be6107b86107b16107c795610565565b93846108e8565b60011690565b6107ca57610956565b90565b906107d4906108f5565b90610956565b60405163102875ed60e01b8152600490fd5b60405163ab4be04160e01b8152600490fd5b50600382141561071c565b604051636446a2c560e11b8152600490fd5b8051156108285760200190565b634e487b7160e01b600052603260045260246000fd5b8051600210156108285760220190565b8051600110156108285760210190565b8051600310156108285760230190565b8051600410156108285760240190565b908151811015610828570160200190565b50634e487b7160e01b600052601160045260246000fd5b60040190816004116108b457565b6108bc61088f565b565b90600182018092116108b457565b90600482018092116108b457565b90600282018092116108b457565b919082018092116108b457565b6401000003d019908103919082116108b457565b6000198101919082116108b457565b60200390602082116108b457565b3d15610951573d906109378261053a565b916109456040519384610518565b82523d6000602084013e565b606090565b6001600160a01b039160405190602082019283526040820152604081526060810181811067ffffffffffffffff821117610995575b6040525190201690565b61099d6104a0565b61098b565b60005b8381106109b55750506000910152565b81810151838201526020016109a5565b906020916109de815180928185528580860191016109a2565b601f01601f1916010190565b81601f8201121561000e578051610a008161053a565b92610a0e6040519485610518565b8184526020828401011161000e576107c791602080850191016109a2565b91909160408184031261000e5780519267ffffffffffffffff9384811161000e5781610a599184016109ea565b93602083015190811161000e576107c792016109ea565b15610a7757565b60405162461bcd60e51b815260206004820152600a60248201527f4f6e6c79204f776e6572000000000000000000000000000000000000000000006044820152606490fd5b90600182811c92168015610aec575b6020831014610ad657565b634e487b7160e01b600052602260045260246000fd5b91607f1691610acb565b90601f8211610b03575050565b6001916000908382527fb10e2d527612073b26eecdfd717e6a320cf44b4afac2b0732d9fcbe2b7fa0cf6906020601f850160051c83019410610b60575b601f0160051c01915b828110610b565750505050565b8181558301610b49565b9092508290610b40565b604051906060820182811067ffffffffffffffff821117610b9b575b60405260006040838281528260208201520152565b610ba36104a0565b610b86565b908160031b917f1fffffffffffffffffffffffffffffffffffffffffffffffffffffffffffffff8116036108b457565b90610be1610b6a565b916008815110610d93576001600160f81b0319600360fc1b81610c14610c068561081b565b516001600160f81b03191690565b1603610d9357600160f91b8082610c2d610c068661083e565b1603610d9357610c51610c4b610c45610c068661084e565b60f81c90565b60ff1690565b91610c64610c4b610c45610c068761085e565b9260218411610d9357610c76846108a6565b90610c92610c4b610c45610c06610c8c866108be565b8a61087e565b9360218511610d9357610cb8610cab610c06858a61087e565b6001600160f81b03191690565b03610d935780610cd0610ccb86886108e8565b6108cc565b03610d9357610ce08651916108da565b03610d9357610cee906108da565b9060049060218514610da5575b60218414610d60575b50906020809286010151940101519160208110610d49575b5060208110610d31575b509083526020830152565b610d3d610d4291610918565b610ba8565b1c38610d26565b610d3d610d5891949294610918565b1c9138610d1c565b610d70610c06848896949661087e565b16610d93576020610d8a610d8482946108be565b92610909565b93919250610d04565b6040516386cd05c560e01b8152600490fd5b939084610db4610c068861086e565b16610dcb5750610dc5600591610909565b93610cfb565b6040516386cd05c560e01b8152fd5b506040513d6000823e3d90fd5b9160408101601b8152815191602081016020610e21825160405196888860609194939260808201958252601b602083015260408201520152565b856000968792838052039060015afa15610ed6575b83516001600160a01b038097169687911603610e55575b505050505050565b610ea794610e8b8593601c602096525192516040519384938460609194939260808201958252601c602083015260408201520152565b838052039060015afa15610ec9575b516001600160a01b031690565b03610eb757388080808080610e4d565b604051634532600d60e01b8152600490fd5b610ed1610dda565b610e9a565b610ede610dda565b610e3656fea2646970667358221220a290e5bfd6e486dbc20f03388b9de304b09a1d64b4547b0fdf3aa4c31154f72864736f6c63430008110033",
  "devdoc": {
    "kind": "dev",
    "methods": {},
    "version": 1
  },
  "userdoc": {
    "kind": "user",
    "methods": {},
    "version": 1
  },
  "storageLayout": {
    "storage": [
      {
        "astId": 10290,
        "contract": "contracts/modules/KeyManagementContractRegistryModule/KeyManagement.sol:KeyManagement",
        "label": "_initialized",
        "offset": 0,
        "slot": "0",
        "type": "t_bool"
      },
      {
        "astId": 10292,
        "contract": "contracts/modules/KeyManagementContractRegistryModule/KeyManagement.sol:KeyManagement",
        "label": "_initPassword",
        "offset": 1,
        "slot": "0",
        "type": "t_bool"
      },
      {
        "astId": 10294,
        "contract": "contracts/modules/KeyManagementContractRegistryModule/KeyManagement.sol:KeyManagement",
        "label": "_password",
        "offset": 0,
        "slot": "1",
        "type": "t_string_storage"
      },
      {
        "astId": 10296,
        "contract": "contracts/modules/KeyManagementContractRegistryModule/KeyManagement.sol:KeyManagement",
        "label": "owner",
        "offset": 0,
        "slot": "2",
        "type": "t_address"
      },
      {
        "astId": 10298,
        "contract": "contracts/modules/KeyManagementContractRegistryModule/KeyManagement.sol:KeyManagement",
        "label": "keypairAddress",
        "offset": 0,
        "slot": "3",
        "type": "t_address"
      },
      {
        "astId": 10300,
        "contract": "contracts/modules/KeyManagementContractRegistryModule/KeyManagement.sol:KeyManagement",
        "label": "keypairSecret",
        "offset": 0,
        "slot": "4",
        "type": "t_bytes32"
      }
    ],
    "types": {
      "t_address": {
        "encoding": "inplace",
        "label": "address",
        "numberOfBytes": "20"
      },
      "t_bool": {
        "encoding": "inplace",
        "label": "bool",
        "numberOfBytes": "1"
      },
      "t_bytes32": {
        "encoding": "inplace",
        "label": "bytes32",
        "numberOfBytes": "32"
      },
      "t_string_storage": {
        "encoding": "bytes",
        "label": "string",
        "numberOfBytes": "32"
      }
    }
  }
}