{
  "address": "0xe353c618Ad35031Ca82689Fe3DBe400b84C7F71B",
  "abi": [
    {
      "inputs": [],
      "name": "DER_Split_Error",
      "type": "error"
    },
    {
      "inputs": [
        {
          "internalType": "address",
          "name": "validationModule",
          "type": "address"
        }
      ],
      "name": "WrongValidationModule",
      "type": "error"
    },
    {
      "inputs": [],
      "name": "expmod_Error",
      "type": "error"
    },
    {
      "inputs": [],
      "name": "k256Decompress_Invalid_Length_Error",
      "type": "error"
    },
    {
      "inputs": [],
      "name": "k256DeriveY_Invalid_Prefix_Error",
      "type": "error"
    },
    {
      "inputs": [],
      "name": "recoverV_Error",
      "type": "error"
    },
    {
      "inputs": [
        {
          "internalType": "address",
          "name": "",
          "type": "address"
        },
        {
          "internalType": "address",
          "name": "",
          "type": "address"
        }
      ],
      "name": "_modules",
      "outputs": [
        {
          "internalType": "address",
          "name": "",
          "type": "address"
        }
      ],
      "stateMutability": "view",
      "type": "function"
    },
    {
      "inputs": [],
      "name": "initForSmartAccount",
      "outputs": [
        {
          "internalType": "address",
          "name": "",
          "type": "address"
        }
      ],
      "stateMutability": "nonpayable",
      "type": "function"
    },
    {
      "inputs": [
        {
          "internalType": "bytes32",
          "name": "dataHash",
          "type": "bytes32"
        },
        {
          "internalType": "bytes",
          "name": "moduleSignature",
          "type": "bytes"
        }
      ],
      "name": "isValidSignature",
      "outputs": [
        {
          "internalType": "bytes4",
          "name": "",
          "type": "bytes4"
        }
      ],
      "stateMutability": "view",
      "type": "function"
    },
    {
      "inputs": [
        {
          "internalType": "bytes32",
          "name": "dataHash",
          "type": "bytes32"
        },
        {
          "internalType": "bytes",
          "name": "moduleSignature",
          "type": "bytes"
        },
        {
          "internalType": "address",
          "name": "smartAccount",
          "type": "address"
        }
      ],
      "name": "isValidSignatureForAddress",
      "outputs": [
        {
          "internalType": "bytes4",
          "name": "",
          "type": "bytes4"
        }
      ],
      "stateMutability": "view",
      "type": "function"
    },
    {
      "inputs": [
        {
          "internalType": "address",
          "name": "setupContract",
          "type": "address"
        },
        {
          "internalType": "bytes",
          "name": "setupData",
          "type": "bytes"
        }
      ],
      "name": "setupAndEnableModule",
      "outputs": [
        {
          "internalType": "address",
          "name": "",
          "type": "address"
        }
      ],
      "stateMutability": "nonpayable",
      "type": "function"
    },
    {
      "inputs": [
        {
          "internalType": "bytes",
          "name": "authenticationData",
          "type": "bytes"
        },
        {
          "internalType": "address",
          "name": "smartAccount",
          "type": "address"
        },
        {
          "internalType": "bytes32",
          "name": "digest",
          "type": "bytes32"
        }
      ],
      "name": "sign",
      "outputs": [
        {
          "components": [
            {
              "internalType": "bytes32",
              "name": "r",
              "type": "bytes32"
            },
            {
              "internalType": "bytes32",
              "name": "s",
              "type": "bytes32"
            },
            {
              "internalType": "uint256",
              "name": "v",
              "type": "uint256"
            }
          ],
          "internalType": "struct SignatureRSV",
          "name": "",
          "type": "tuple"
        }
      ],
      "stateMutability": "view",
      "type": "function"
    },
    {
      "inputs": [
        {
          "components": [
            {
              "internalType": "address",
              "name": "sender",
              "type": "address"
            },
            {
              "internalType": "uint256",
              "name": "nonce",
              "type": "uint256"
            },
            {
              "internalType": "bytes",
              "name": "initCode",
              "type": "bytes"
            },
            {
              "internalType": "bytes",
              "name": "callData",
              "type": "bytes"
            },
            {
              "internalType": "uint256",
              "name": "callGasLimit",
              "type": "uint256"
            },
            {
              "internalType": "uint256",
              "name": "verificationGasLimit",
              "type": "uint256"
            },
            {
              "internalType": "uint256",
              "name": "preVerificationGas",
              "type": "uint256"
            },
            {
              "internalType": "uint256",
              "name": "maxFeePerGas",
              "type": "uint256"
            },
            {
              "internalType": "uint256",
              "name": "maxPriorityFeePerGas",
              "type": "uint256"
            },
            {
              "internalType": "bytes",
              "name": "paymasterAndData",
              "type": "bytes"
            },
            {
              "internalType": "bytes",
              "name": "signature",
              "type": "bytes"
            }
          ],
          "internalType": "struct UserOperation",
          "name": "userOp",
          "type": "tuple"
        },
        {
          "internalType": "bytes32",
          "name": "userOpHash",
          "type": "bytes32"
        }
      ],
      "name": "validateUserOp",
      "outputs": [
        {
          "internalType": "uint256",
          "name": "",
          "type": "uint256"
        }
      ],
      "stateMutability": "view",
      "type": "function"
    }
  ],
  "transactionHash": "0x443ccb03a4bef5133e2e3d223c812219cb1da4b4ab257e53923fdc6ede02ba2a",
  "args": [],
  "numDeployments": 2,
  "solcInputHash": "6a8fe44882ab5801e59e7cdd8bdedade",
  "bytecode": "0x6080806040523461001657611452908161001c8239f35b600080fdfe604060808152600436101561001357600080fd5b600090813560e01c9182630bfac3d4146100a557505080631626ba7e1461009c5780635305dd27146100935780635bef82e11461008a5780638a72968c14610081578063f44c339d146100785763fff35b7214610070575b600080fd5b61006b610570565b5061006b610524565b5061006b6104bc565b5061006b610426565b5061006b610366565b5061006b6102e9565b346101da57806003193601126101da576100bf60a0604052565b8060805280825160208101906020825284808201526100f2816100e4606082016108b1565b03601f198101835282610255565b51907301000000000000000000000000000000000000015afa610113610812565b90156101965761017961013761013161012b846105bd565b93610957565b506105e0565b336000908152600160205260409020906001600160a01b03167fffffffffffffffffffffffff0000000000000000000000000000000000000000825416179055565b3360009081526002602052604090205551308152602090f35b0390f35b815162461bcd60e51b815260206004820152601360248201527f72616e646f6d42797465733a206661696c6564000000000000000000000000006044820152606490fd5b80fd5b50634e487b7160e01b600052604160045260246000fd5b60e0810190811067ffffffffffffffff82111761021057604052565b6102186101dd565b604052565b6040810190811067ffffffffffffffff82111761021057604052565b6020810190811067ffffffffffffffff82111761021057604052565b90601f8019910116810190811067ffffffffffffffff82111761021057604052565b60209067ffffffffffffffff8111610295575b601f01601f19160190565b61029d6101dd565b61028a565b81601f8201121561006b578035906102b982610277565b926102c76040519485610255565b8284526020838301011161006b57816000926020809301838601378301015290565b503461006b57604036600319011261006b5760243567ffffffffffffffff811161006b5761032a61032060209236906004016102a2565b3390600435611149565b6040517fffffffff000000000000000000000000000000000000000000000000000000009091168152f35b6001600160a01b0381160361006b57565b503461006b57604036600319011261006b5760043561038481610355565b60243567ffffffffffffffff811161006b576103a49036906004016102a2565b906001600160a01b038116156103e157600082819282602083519301915af1604051903d6000833e156103dd5760405160008152602090f35b3d90fd5b60405162461bcd60e51b815260206004820152601a60248201527f57726f6e67204d6f64756c6520536574757020416464726573730000000000006044820152606490fd5b503461006b57606036600319011261006b5760043567ffffffffffffffff80821161006b573660238301121561006b57816004013590811161006b57366024828401011161006b5761019291610498916024359061048382610355565b61048b610a49565b5060246044359301610b56565b60408051825181526020808401519082015291810151908201529081906060820190565b503461006b57604036600319011261006b5760206004356104dc81610355565b61051a6024356104eb81610355565b6001600160a01b03809316600052600084526040600020906001600160a01b0316600052602052604060002090565b5416604051908152f35b503461006b57606036600319011261006b5760243567ffffffffffffffff811161006b5761032a61055b60209236906004016102a2565b6044359061056882610355565b600435611149565b503461006b5760031960403682011261006b576004359067ffffffffffffffff821161006b5761016090823603011261006b576105b5602091602435906004016110e1565b604051908152f35b6020815191015190602081106105d1575090565b6000199060200360031b1b1690565b60218151036106f5576105f7602182015191610707565b5160f81c60006002821415806106ea575b6106d8578060405160208101906020825260206040820152602060608201526401000003d01980600781808a80098a090860808301527f3fffffffffffffffffffffffffffffffffffffffffffffffffffffffbfffff0c60a083015260c082015260c08152610676816101f4565b519060055afa91610685610812565b92156106c6576106aa6106a461069d6106b3956105bd565b93846107d4565b60011690565b6106b657610842565b90565b906106c0906107e1565b90610842565b60405163102875ed60e01b8152600490fd5b60405163ab4be04160e01b8152600490fd5b506003821415610608565b604051636446a2c560e11b8152600490fd5b8051156107145760200190565b634e487b7160e01b600052603260045260246000fd5b8051600210156107145760220190565b8051600110156107145760210190565b8051600310156107145760230190565b8051600410156107145760240190565b908151811015610714570160200190565b50634e487b7160e01b600052601160045260246000fd5b60040190816004116107a057565b6107a861077b565b565b90600182018092116107a057565b90600482018092116107a057565b90600282018092116107a057565b919082018092116107a057565b6401000003d019908103919082116107a057565b6000198101919082116107a057565b60200390602082116107a057565b3d1561083d573d9061082382610277565b916108316040519384610255565b82523d6000602084013e565b606090565b6001600160a01b039160405190602082019283526040820152604081526060810181811067ffffffffffffffff821117610881575b6040525190201690565b6108896101dd565b610877565b60005b8381106108a15750506000910152565b8181015183820152602001610891565b906080519182815260005b8381106108dc5750826000602080949584010152601f8019910116010190565b8060209160a00151828285010152016108bc565b906020916109098151809281855285808601910161088e565b601f01601f1916010190565b81601f8201121561006b57805161092b81610277565b926109396040519485610255565b8184526020828401011161006b576106b3916020808501910161088e565b90604090815160209061097e816100e48482019760048952878084015260608301906108f0565b60008095819251907301000000000000000000000000000000000000055afa906109a6610812565b9115610a065781518201918481838501940312610a0257818101519067ffffffffffffffff918281116109fe5784846109e192840101610915565b958101519182116109fa576106b3949596500101610915565b8680fd5b8780fd5b8580fd5b60649084519062461bcd60e51b82526004820152601b60248201527f67656e207369676e696e67206b6579706169723a206661696c656400000000006044820152fd5b604051906060820182811067ffffffffffffffff821117610a7a575b60405260006040838281528260208201520152565b610a826101dd565b610a65565b919060408382031261006b57823567ffffffffffffffff811161006b57602091610ab29185016102a2565b9201356106b381610355565b9081602091031261006b5751801515810361006b5790565b906001600160a01b03610af66020929594956040855260408501906108f0565b9416910152565b506040513d6000823e3d90fd5b15610b1157565b60405162461bcd60e51b815260206004820152600e60248201527f56616c69646174652077726f6e670000000000000000000000000000000000006044820152606490fd5b610b669194939294810190610a87565b93906001600160a01b0380951694610bbd610bb087610b98336001600160a01b03166000526000602052604060002090565b906001600160a01b0316600052602052604060002090565b546001600160a01b031690565b1615610c4d576001610bf06020846106b39798610c0d95604051809581948293634948a22560e01b845260048401610ad6565b03915afa908115610c40575b600091610c12575b50151514610b0a565b610c6e565b610c33915060203d8111610c39575b610c2b8183610255565b810190610abe565b38610c04565b503d610c21565b610c48610afd565b610bfc565b6040516326cc3fab60e21b81526001600160a01b0386166004820152602490fd5b6001600160a01b0380600092168252602060018152604091828420541692600282528083610d02610d3182842054610ca4610a49565b5083519087820152868152610cb88161021d565b8351908a88830152878252610ccc8261021d565b610d258551610cda81610239565b878152610d15875196879460808d87019a610cf58c60049052565b87015260a08601906108f0565b601f1995868683030160608701526108f0565b90848483030160808501526108f0565b03908101835282610255565b51907301000000000000000000000000000000000000065afa91610d53610812565b9215610d7057505090610d686106b392610de3565b928391610fe5565b60649250519062461bcd60e51b82526004820152600c60248201527f7369676e3a206661696c656400000000000000000000000000000000000000006044820152fd5b908160031b917f1fffffffffffffffffffffffffffffffffffffffffffffffffffffffffffffff8116036107a057565b90610dec610a49565b916008815110610f9e576001600160f81b0319600360fc1b81610e1f610e1185610707565b516001600160f81b03191690565b1603610f9e57600160f91b8082610e38610e118661072a565b1603610f9e57610e5c610e56610e50610e118661073a565b60f81c90565b60ff1690565b91610e6f610e56610e50610e118761074a565b9260218411610f9e57610e8184610792565b90610e9d610e56610e50610e11610e97866107aa565b8a61076a565b9360218511610f9e57610ec3610eb6610e11858a61076a565b6001600160f81b03191690565b03610f9e5780610edb610ed686886107d4565b6107b8565b03610f9e57610eeb8651916107c6565b03610f9e57610ef9906107c6565b9060049060218514610fb0575b60218414610f6b575b50906020809286010151940101519160208110610f54575b5060208110610f3c575b509083526020830152565b610f48610f4d91610804565b610db3565b1c38610f31565b610f48610f6391949294610804565b1c9138610f27565b610f7b610e11848896949661076a565b16610f9e576020610f95610f8f82946107aa565b926107f5565b93919250610f0f565b6040516386cd05c560e01b8152600490fd5b939084610fbf610e118861075a565b16610fd65750610fd06005916107f5565b93610f06565b6040516386cd05c560e01b8152fd5b9160408101601b815281519160208101602061101f825160405196888860609194939260808201958252601b602083015260408201520152565b856000968792838052039060015afa156110d4575b83516001600160a01b038097169687911603611053575b505050505050565b6110a5946110898593601c602096525192516040519384938460609194939260808201958252601c602083015260408201520152565b838052039060015afa156110c7575b516001600160a01b031690565b036110b55738808080808061104b565b604051634532600d60e01b8152600490fd5b6110cf610afd565b611098565b6110dc610afd565b611034565b90610140820135601e198336030181121561006b57820191823567ffffffffffffffff811161006b5760208401813603811361006b5760206111299261113b96010190610a87565b5090359161113683610355565b611187565b61114457600190565b600090565b906111549291611187565b61117c577fffffffff0000000000000000000000000000000000000000000000000000000090565b630b135d3f60e11b90565b91906001600160a01b0380921660005260016020528160406000205416927f19457468657265756d205369676e6564204d6573736167653a0a33320000000060005280601c52826111e76111df84603c600020611354565b919091611234565b16841461120b576111fb916111df91611354565b161461120657600090565b600190565b50505050600190565b6005111561121e57565b634e487b7160e01b600052602160045260246000fd5b61123d81611214565b806112455750565b61124e81611214565b6001810361129b5760405162461bcd60e51b815260206004820152601860248201527f45434453413a20696e76616c6964207369676e617475726500000000000000006044820152606490fd5b6112a481611214565b600281036112f15760405162461bcd60e51b815260206004820152601f60248201527f45434453413a20696e76616c6964207369676e6174757265206c656e677468006044820152606490fd5b806112fd600392611214565b1461130457565b60405162461bcd60e51b815260206004820152602260248201527f45434453413a20696e76616c6964207369676e6174757265202773272076616c604482015261756560f01b6064820152608490fd5b9060418151146000146113825761137e916020820151906060604084015193015160001a9061138c565b9091565b5050600090600290565b9291907f7fffffffffffffffffffffffffffffff5d576e7357a4501ddfe92f46681b20a083116114105791608094939160ff602094604051948552168484015260408301526060820152600093849182805260015afa15611403575b81516001600160a01b038116156113fd579190565b50600190565b61140b610afd565b6113e8565b5050505060009060039056fea264697066735822122043eaba019da380bc53ef2f94bce8c8e2451c21e78301708c65d8e84d1ffbc4c564736f6c63430008110033",
  "devdoc": {
    "kind": "dev",
    "methods": {},
    "version": 1
  },
  "userdoc": {
    "kind": "user",
    "methods": {},
    "version": 1
  },
  "storageLayout": {
    "storage": [
      {
        "astId": 3241,
        "contract": "contracts/modules/KeyManagementContractRegistryModule/KeyManagement.sol:KeyManagement",
        "label": "_modules",
        "offset": 0,
        "slot": "0",
        "type": "t_mapping(t_address,t_mapping(t_address,t_address))"
      },
      {
        "astId": 3245,
        "contract": "contracts/modules/KeyManagementContractRegistryModule/KeyManagement.sol:KeyManagement",
        "label": "publicAddress",
        "offset": 0,
        "slot": "1",
        "type": "t_mapping(t_address,t_address)"
      },
      {
        "astId": 3249,
        "contract": "contracts/modules/KeyManagementContractRegistryModule/KeyManagement.sol:KeyManagement",
        "label": "privateSecret",
        "offset": 0,
        "slot": "2",
        "type": "t_mapping(t_address,t_bytes32)"
      }
    ],
    "types": {
      "t_address": {
        "encoding": "inplace",
        "label": "address",
        "numberOfBytes": "20"
      },
      "t_bytes32": {
        "encoding": "inplace",
        "label": "bytes32",
        "numberOfBytes": "32"
      },
      "t_mapping(t_address,t_address)": {
        "encoding": "mapping",
        "key": "t_address",
        "label": "mapping(address => address)",
        "numberOfBytes": "32",
        "value": "t_address"
      },
      "t_mapping(t_address,t_bytes32)": {
        "encoding": "mapping",
        "key": "t_address",
        "label": "mapping(address => bytes32)",
        "numberOfBytes": "32",
        "value": "t_bytes32"
      },
      "t_mapping(t_address,t_mapping(t_address,t_address))": {
        "encoding": "mapping",
        "key": "t_address",
        "label": "mapping(address => mapping(address => address))",
        "numberOfBytes": "32",
        "value": "t_mapping(t_address,t_address)"
      }
    }
  }
}