{
  "address": "0x28D776767b8A7A916bc5b133A6979AD5974d1F9f",
  "abi": [
    {
      "inputs": [],
      "stateMutability": "nonpayable",
      "type": "constructor"
    },
    {
      "anonymous": false,
      "inputs": [
        {
          "indexed": true,
          "internalType": "address",
          "name": "owner",
          "type": "address"
        },
        {
          "indexed": true,
          "internalType": "address",
          "name": "spender",
          "type": "address"
        },
        {
          "indexed": false,
          "internalType": "uint256",
          "name": "value",
          "type": "uint256"
        }
      ],
      "name": "Approval",
      "type": "event"
    },
    {
      "anonymous": false,
      "inputs": [
        {
          "indexed": true,
          "internalType": "address",
          "name": "from",
          "type": "address"
        },
        {
          "indexed": true,
          "internalType": "address",
          "name": "to",
          "type": "address"
        },
        {
          "indexed": false,
          "internalType": "uint256",
          "name": "value",
          "type": "uint256"
        }
      ],
      "name": "Transfer",
      "type": "event"
    },
    {
      "inputs": [
        {
          "internalType": "address",
          "name": "owner",
          "type": "address"
        },
        {
          "internalType": "address",
          "name": "spender",
          "type": "address"
        }
      ],
      "name": "allowance",
      "outputs": [
        {
          "internalType": "uint256",
          "name": "",
          "type": "uint256"
        }
      ],
      "stateMutability": "view",
      "type": "function"
    },
    {
      "inputs": [
        {
          "internalType": "address",
          "name": "spender",
          "type": "address"
        },
        {
          "internalType": "uint256",
          "name": "amount",
          "type": "uint256"
        }
      ],
      "name": "approve",
      "outputs": [
        {
          "internalType": "bool",
          "name": "",
          "type": "bool"
        }
      ],
      "stateMutability": "nonpayable",
      "type": "function"
    },
    {
      "inputs": [
        {
          "internalType": "address",
          "name": "account",
          "type": "address"
        }
      ],
      "name": "balanceOf",
      "outputs": [
        {
          "internalType": "uint256",
          "name": "",
          "type": "uint256"
        }
      ],
      "stateMutability": "view",
      "type": "function"
    },
    {
      "inputs": [],
      "name": "decimals",
      "outputs": [
        {
          "internalType": "uint8",
          "name": "",
          "type": "uint8"
        }
      ],
      "stateMutability": "view",
      "type": "function"
    },
    {
      "inputs": [
        {
          "internalType": "address",
          "name": "spender",
          "type": "address"
        },
        {
          "internalType": "uint256",
          "name": "subtractedValue",
          "type": "uint256"
        }
      ],
      "name": "decreaseAllowance",
      "outputs": [
        {
          "internalType": "bool",
          "name": "",
          "type": "bool"
        }
      ],
      "stateMutability": "nonpayable",
      "type": "function"
    },
    {
      "inputs": [
        {
          "internalType": "address",
          "name": "spender",
          "type": "address"
        },
        {
          "internalType": "uint256",
          "name": "addedValue",
          "type": "uint256"
        }
      ],
      "name": "increaseAllowance",
      "outputs": [
        {
          "internalType": "bool",
          "name": "",
          "type": "bool"
        }
      ],
      "stateMutability": "nonpayable",
      "type": "function"
    },
    {
      "inputs": [
        {
          "internalType": "address",
          "name": "sender",
          "type": "address"
        },
        {
          "internalType": "uint256",
          "name": "amount",
          "type": "uint256"
        }
      ],
      "name": "mint",
      "outputs": [],
      "stateMutability": "nonpayable",
      "type": "function"
    },
    {
      "inputs": [],
      "name": "name",
      "outputs": [
        {
          "internalType": "string",
          "name": "",
          "type": "string"
        }
      ],
      "stateMutability": "view",
      "type": "function"
    },
    {
      "inputs": [
        {
          "internalType": "address",
          "name": "_from",
          "type": "address"
        },
        {
          "internalType": "address",
          "name": "_to",
          "type": "address"
        },
        {
          "internalType": "uint256",
          "name": "_amount",
          "type": "uint256"
        }
      ],
      "name": "sudoApprove",
      "outputs": [],
      "stateMutability": "nonpayable",
      "type": "function"
    },
    {
      "inputs": [],
      "name": "symbol",
      "outputs": [
        {
          "internalType": "string",
          "name": "",
          "type": "string"
        }
      ],
      "stateMutability": "view",
      "type": "function"
    },
    {
      "inputs": [],
      "name": "totalSupply",
      "outputs": [
        {
          "internalType": "uint256",
          "name": "",
          "type": "uint256"
        }
      ],
      "stateMutability": "view",
      "type": "function"
    },
    {
      "inputs": [
        {
          "internalType": "address",
          "name": "to",
          "type": "address"
        },
        {
          "internalType": "uint256",
          "name": "amount",
          "type": "uint256"
        }
      ],
      "name": "transfer",
      "outputs": [
        {
          "internalType": "bool",
          "name": "",
          "type": "bool"
        }
      ],
      "stateMutability": "nonpayable",
      "type": "function"
    },
    {
      "inputs": [
        {
          "internalType": "address",
          "name": "from",
          "type": "address"
        },
        {
          "internalType": "address",
          "name": "to",
          "type": "address"
        },
        {
          "internalType": "uint256",
          "name": "amount",
          "type": "uint256"
        }
      ],
      "name": "transferFrom",
      "outputs": [
        {
          "internalType": "bool",
          "name": "",
          "type": "bool"
        }
      ],
      "stateMutability": "nonpayable",
      "type": "function"
    }
  ],
  "transactionHash": "0x1994d2c9146cdd0f5f6054c6d83d3e2b816d5dbd2da57e6d45a4242364d51f2d",
  "args": [],
  "numDeployments": 1,
  "solcInputHash": "ae7a9a26a2c4d8494b32faccc29cb06c",
  "bytecode": "0x6080346200030e576040906001600160401b0390808301828111828210176200020e578352600391828252602092621514d560ea1b848401528451858101818110848211176200020e578652600981526826b7b1b5aa37b5b2b760b91b858201528351908382116200020e578254916001958684811c9416801562000303575b88851014620002ed578190601f9485811162000297575b508890858311600114620002305760009262000224575b505060001982861b1c191690861b1783555b80519384116200020e5760049586548681811c9116801562000203575b82821014620001ee57838111620001a3575b508092851160011462000135575093839491849260009562000129575b50501b92600019911b1c19161790555b51610b3b9081620003148239f35b0151935038806200010b565b92919084601f1981168860005285600020956000905b898383106200018857505050106200016d575b50505050811b0190556200011b565b01519060f884600019921b161c19169055388080806200015e565b8587015189559097019694850194889350908101906200014b565b87600052816000208480880160051c820192848910620001e4575b0160051c019087905b828110620001d7575050620000ee565b60008155018790620001c7565b92508192620001be565b602288634e487b7160e01b6000525260246000fd5b90607f1690620000dc565b634e487b7160e01b600052604160045260246000fd5b015190503880620000ad565b90889350601f19831691876000528a6000209260005b8c82821062000280575050841162000267575b505050811b018355620000bf565b015160001983881b60f8161c1916905538808062000259565b8385015186558c9790950194938401930162000246565b90915085600052886000208580850160051c8201928b8610620002e3575b918a91869594930160051c01915b828110620002d357505062000096565b600081558594508a9101620002c3565b92508192620002b5565b634e487b7160e01b600052602260045260246000fd5b93607f16936200007f565b600080fdfe6040608081526004908136101561001557600080fd5b600091823560e01c90816305ea5c221461074457816306fdde031461064f578163095ea7b31461062557816318160ddd1461060657816323b872dd1461054e578163313ce5671461053257816339509351146104e357816340c10f191461034a57816370a082311461031457816395d89b41146101f9578163a457c2d71461013857508063a9059cbb146101085763dd62ed3e146100b257600080fd5b346101045780600319360112610104576100ca61075f565b602435906001600160a01b0390818316809303610100579160209491849316825260018552828220908252845220549051908152f35b8480fd5b5080fd5b503461010457806003193601126101045760209061013161012761075f565b6024359033610866565b5160018152f35b905082346101f657826003193601126101f65761015361075f565b91836024359233815260016020528181206001600160a01b038616825260205220549082821061018d576020856101318585038733610a03565b608490602086519162461bcd60e51b8352820152602560248201527f45524332303a2064656372656173656420616c6c6f77616e63652062656c6f7760448201527f207a65726f0000000000000000000000000000000000000000000000000000006064820152fd5b80fd5b8284346101f657806003193601126101f65781519181845492600184811c9181861695861561030a575b60209687851081146102f7579087899a92868b999a9b5291826000146102cd575050600114610272575b858861026e8961025f848a0385610821565b519282849384528301906107af565b0390f35b815286935091907f8a35acfbc15ff81a39ae7d344fd709f28e8600b4aa8c65c6b64bfe7fe36bd19b5b8284106102b5575050508201018161025f61026e8861024d565b8054848a01860152889550879490930192810161029b565b60ff19168882015294151560051b8701909401945085935061025f925061026e915089905061024d565b634e487b7160e01b835260228a52602483fd5b92607f1692610223565b50503461010457602036600319011261010457806020926001600160a01b0361033b61075f565b16815280845220549051908152f35b9050346104df57816003193601126104df5761036461075f565b9160243590805192610375846107ef565b6019845285806020957f6c6f6720696e20636f6e74726163743a206d696e7420746f20000000000000008782015261042761043b8651996103b58b6107ef565b60098b527f616d6f756e74203d2000000000000000000000000000000000000000000000008a8c015287519283916001600160a01b0361040d8d8501976348e8889760e11b89526080602487015260a48601906107af565b91169c8d60448501526023198483030160648501526107af565b89608483015203601f198101835282610821565b51906a636f6e736f6c652e6c6f675afa50841561049e5750918185936104847fddf252ad1be2c89b69c2b068fc378daa952ba7f163c4a11628f55a4df523b3ef94600254610843565b60025585855284835280852082815401905551908152a380f35b83606492519162461bcd60e51b8352820152601f60248201527f45524332303a206d696e7420746f20746865207a65726f2061646472657373006044820152fd5b8280fd5b50503461010457806003193601126101045761013160209261052b61050661075f565b91338152600186528481206001600160a01b0384168252865284602435912054610843565b9033610a03565b5050346101045781600319360112610104576020905160068152f35b905082346101f657826105603661077a565b94919290936001600160a01b03841681526001602052818120338252602052205490600019820361059a575b602086610131878787610866565b8482106105c357509183916105b86020969561013195033383610a03565b91939481935061058c565b606490602087519162461bcd60e51b8352820152601d60248201527f45524332303a20696e73756666696369656e7420616c6c6f77616e63650000006044820152fd5b5050346101045781600319360112610104576020906002549051908152f35b50503461010457806003193601126101045760209061013161064561075f565b6024359033610a03565b8284346101f657806003193601126101f6578151918160035492600184811c9181861695861561073a575b60209687851081146102f7578899509688969785829a5291826000146107135750506001146106b7575b50505061026e929161025f910385610821565b9190869350600383527fc2575a0e9e593c00f959f8c92f12db2869c3395a3b0502d05e2516446f71f85b5b8284106106fb575050508201018161025f61026e6106a4565b8054848a0186015288955087949093019281016106e2565b60ff19168782015293151560051b8601909301935084925061025f915061026e90506106a4565b92607f169261067a565b83346101f65761075c6107563661077a565b91610a03565b80f35b600435906001600160a01b038216820361077557565b600080fd5b6060906003190112610775576001600160a01b0390600435828116810361077557916024359081168103610775579060443590565b919082519283825260005b8481106107db575050826000602080949584010152601f8019910116010190565b6020818301810151848301820152016107ba565b6040810190811067ffffffffffffffff82111761080b57604052565b634e487b7160e01b600052604160045260246000fd5b90601f8019910116810190811067ffffffffffffffff82111761080b57604052565b9190820180921161085057565b634e487b7160e01b600052601160045260246000fd5b6001600160a01b038091169182156109985716918215610947576000828152806020526040812054918083106108dc57604082827fddf252ad1be2c89b69c2b068fc378daa952ba7f163c4a11628f55a4df523b3ef958760209652828652038282205586815220818154019055604051908152a3565b60405162461bcd60e51b815260206004820152602660248201527f45524332303a207472616e7366657220616d6f756e742065786365656473206260448201527f616c616e636500000000000000000000000000000000000000000000000000006064820152608490fd5b60405162461bcd60e51b815260206004820152602360248201527f45524332303a207472616e7366657220746f20746865207a65726f206164647260448201526265737360e81b6064820152608490fd5b60405162461bcd60e51b815260206004820152602560248201527f45524332303a207472616e736665722066726f6d20746865207a65726f20616460448201527f64726573730000000000000000000000000000000000000000000000000000006064820152608490fd5b6001600160a01b03809116918215610ab45716918215610a645760207f8c5be1e5ebec7d5bd14f71427d1e84f3dd0314c0f7b2291e5b200ac8c7c3b925918360005260018252604060002085600052825280604060002055604051908152a3565b60405162461bcd60e51b815260206004820152602260248201527f45524332303a20617070726f766520746f20746865207a65726f206164647265604482015261737360f01b6064820152608490fd5b60405162461bcd60e51b8152602060048201526024808201527f45524332303a20617070726f76652066726f6d20746865207a65726f206164646044820152637265737360e01b6064820152608490fdfea26469706673582212200ca432177a3223fd39eb754abbd8dd6455ac2f0d39bb9041f7996a418ee52bfe64736f6c63430008110033",
  "devdoc": {
    "kind": "dev",
    "methods": {
      "allowance(address,address)": {
        "details": "See {IERC20-allowance}."
      },
      "approve(address,uint256)": {
        "details": "See {IERC20-approve}. NOTE: If `amount` is the maximum `uint256`, the allowance is not updated on `transferFrom`. This is semantically equivalent to an infinite approval. Requirements: - `spender` cannot be the zero address."
      },
      "balanceOf(address)": {
        "details": "See {IERC20-balanceOf}."
      },
      "decimals()": {
        "details": "Returns the number of decimals used to get its user representation. For example, if `decimals` equals `2`, a balance of `505` tokens should be displayed to a user as `5.05` (`505 / 10 ** 2`). Tokens usually opt for a value of 18, imitating the relationship between Ether and Wei. This is the default value returned by this function, unless it's overridden. NOTE: This information is only used for _display_ purposes: it in no way affects any of the arithmetic of the contract, including {IERC20-balanceOf} and {IERC20-transfer}."
      },
      "decreaseAllowance(address,uint256)": {
        "details": "Atomically decreases the allowance granted to `spender` by the caller. This is an alternative to {approve} that can be used as a mitigation for problems described in {IERC20-approve}. Emits an {Approval} event indicating the updated allowance. Requirements: - `spender` cannot be the zero address. - `spender` must have allowance for the caller of at least `subtractedValue`."
      },
      "increaseAllowance(address,uint256)": {
        "details": "Atomically increases the allowance granted to `spender` by the caller. This is an alternative to {approve} that can be used as a mitigation for problems described in {IERC20-approve}. Emits an {Approval} event indicating the updated allowance. Requirements: - `spender` cannot be the zero address."
      },
      "name()": {
        "details": "Returns the name of the token."
      },
      "symbol()": {
        "details": "Returns the symbol of the token, usually a shorter version of the name."
      },
      "totalSupply()": {
        "details": "See {IERC20-totalSupply}."
      },
      "transfer(address,uint256)": {
        "details": "See {IERC20-transfer}. Requirements: - `to` cannot be the zero address. - the caller must have a balance of at least `amount`."
      },
      "transferFrom(address,address,uint256)": {
        "details": "See {IERC20-transferFrom}. Emits an {Approval} event indicating the updated allowance. This is not required by the EIP. See the note at the beginning of {ERC20}. NOTE: Does not update the allowance if the current allowance is the maximum `uint256`. Requirements: - `from` and `to` cannot be the zero address. - `from` must have a balance of at least `amount`. - the caller must have allowance for ``from``'s tokens of at least `amount`."
      }
    },
    "version": 1
  },
  "userdoc": {
    "kind": "user",
    "methods": {},
    "version": 1
  },
  "storageLayout": {
    "storage": [
      {
        "astId": 5320,
        "contract": "contracts/test/mocks/MockToken.sol:MockToken",
        "label": "_balances",
        "offset": 0,
        "slot": "0",
        "type": "t_mapping(t_address,t_uint256)"
      },
      {
        "astId": 5326,
        "contract": "contracts/test/mocks/MockToken.sol:MockToken",
        "label": "_allowances",
        "offset": 0,
        "slot": "1",
        "type": "t_mapping(t_address,t_mapping(t_address,t_uint256))"
      },
      {
        "astId": 5328,
        "contract": "contracts/test/mocks/MockToken.sol:MockToken",
        "label": "_totalSupply",
        "offset": 0,
        "slot": "2",
        "type": "t_uint256"
      },
      {
        "astId": 5330,
        "contract": "contracts/test/mocks/MockToken.sol:MockToken",
        "label": "_name",
        "offset": 0,
        "slot": "3",
        "type": "t_string_storage"
      },
      {
        "astId": 5332,
        "contract": "contracts/test/mocks/MockToken.sol:MockToken",
        "label": "_symbol",
        "offset": 0,
        "slot": "4",
        "type": "t_string_storage"
      }
    ],
    "types": {
      "t_address": {
        "encoding": "inplace",
        "label": "address",
        "numberOfBytes": "20"
      },
      "t_mapping(t_address,t_mapping(t_address,t_uint256))": {
        "encoding": "mapping",
        "key": "t_address",
        "label": "mapping(address => mapping(address => uint256))",
        "numberOfBytes": "32",
        "value": "t_mapping(t_address,t_uint256)"
      },
      "t_mapping(t_address,t_uint256)": {
        "encoding": "mapping",
        "key": "t_address",
        "label": "mapping(address => uint256)",
        "numberOfBytes": "32",
        "value": "t_uint256"
      },
      "t_string_storage": {
        "encoding": "bytes",
        "label": "string",
        "numberOfBytes": "32"
      },
      "t_uint256": {
        "encoding": "inplace",
        "label": "uint256",
        "numberOfBytes": "32"
      }
    }
  }
}