{
  "address": "0x4539EFe7d92A91C6e4d95d6d8D377F39B69d1AEa",
  "abi": [
    {
      "inputs": [
        {
          "internalType": "address",
          "name": "_basicImplementation",
          "type": "address"
        },
        {
          "internalType": "address",
          "name": "_newOwner",
          "type": "address"
        }
      ],
      "stateMutability": "nonpayable",
      "type": "constructor"
    },
    {
      "anonymous": false,
      "inputs": [
        {
          "indexed": true,
          "internalType": "address",
          "name": "account",
          "type": "address"
        },
        {
          "indexed": true,
          "internalType": "address",
          "name": "initialAuthModule",
          "type": "address"
        },
        {
          "indexed": true,
          "internalType": "uint256",
          "name": "index",
          "type": "uint256"
        }
      ],
      "name": "AccountCreation",
      "type": "event"
    },
    {
      "anonymous": false,
      "inputs": [
        {
          "indexed": true,
          "internalType": "address",
          "name": "account",
          "type": "address"
        },
        {
          "indexed": true,
          "internalType": "address",
          "name": "initialAuthModule",
          "type": "address"
        }
      ],
      "name": "AccountCreationWithoutIndex",
      "type": "event"
    },
    {
      "anonymous": false,
      "inputs": [
        {
          "indexed": true,
          "internalType": "address",
          "name": "previousOwner",
          "type": "address"
        },
        {
          "indexed": true,
          "internalType": "address",
          "name": "newOwner",
          "type": "address"
        }
      ],
      "name": "OwnershipTransferred",
      "type": "event"
    },
    {
      "inputs": [],
      "name": "accountCreationCode",
      "outputs": [
        {
          "internalType": "bytes",
          "name": "",
          "type": "bytes"
        }
      ],
      "stateMutability": "pure",
      "type": "function"
    },
    {
      "inputs": [
        {
          "internalType": "address",
          "name": "epAddress",
          "type": "address"
        },
        {
          "internalType": "uint32",
          "name": "unstakeDelaySec",
          "type": "uint32"
        }
      ],
      "name": "addStake",
      "outputs": [],
      "stateMutability": "payable",
      "type": "function"
    },
    {
      "inputs": [],
      "name": "basicImplementation",
      "outputs": [
        {
          "internalType": "address",
          "name": "",
          "type": "address"
        }
      ],
      "stateMutability": "view",
      "type": "function"
    },
    {
      "inputs": [
        {
          "internalType": "address",
          "name": "moduleSetupContract",
          "type": "address"
        },
        {
          "internalType": "bytes",
          "name": "moduleSetupData",
          "type": "bytes"
        }
      ],
      "name": "deployAccount",
      "outputs": [
        {
          "internalType": "address",
          "name": "proxy",
          "type": "address"
        }
      ],
      "stateMutability": "nonpayable",
      "type": "function"
    },
    {
      "inputs": [
        {
          "internalType": "address",
          "name": "moduleSetupContract",
          "type": "address"
        },
        {
          "internalType": "bytes",
          "name": "moduleSetupData",
          "type": "bytes"
        },
        {
          "internalType": "uint256",
          "name": "index",
          "type": "uint256"
        }
      ],
      "name": "deployCounterFactualAccount",
      "outputs": [
        {
          "internalType": "address",
          "name": "proxy",
          "type": "address"
        }
      ],
      "stateMutability": "nonpayable",
      "type": "function"
    },
    {
      "inputs": [
        {
          "internalType": "address",
          "name": "moduleSetupContract",
          "type": "address"
        },
        {
          "internalType": "bytes",
          "name": "moduleSetupData",
          "type": "bytes"
        },
        {
          "internalType": "uint256",
          "name": "index",
          "type": "uint256"
        }
      ],
      "name": "getAddressForCounterFactualAccount",
      "outputs": [
        {
          "internalType": "address",
          "name": "_account",
          "type": "address"
        }
      ],
      "stateMutability": "view",
      "type": "function"
    },
    {
      "inputs": [],
      "name": "minimalHandler",
      "outputs": [
        {
          "internalType": "contract DefaultCallbackHandler",
          "name": "",
          "type": "address"
        }
      ],
      "stateMutability": "view",
      "type": "function"
    },
    {
      "inputs": [],
      "name": "owner",
      "outputs": [
        {
          "internalType": "address",
          "name": "",
          "type": "address"
        }
      ],
      "stateMutability": "view",
      "type": "function"
    },
    {
      "inputs": [],
      "name": "renounceOwnership",
      "outputs": [],
      "stateMutability": "nonpayable",
      "type": "function"
    },
    {
      "inputs": [
        {
          "internalType": "address",
          "name": "newOwner",
          "type": "address"
        }
      ],
      "name": "transferOwnership",
      "outputs": [],
      "stateMutability": "nonpayable",
      "type": "function"
    },
    {
      "inputs": [
        {
          "internalType": "address",
          "name": "epAddress",
          "type": "address"
        }
      ],
      "name": "unlockStake",
      "outputs": [],
      "stateMutability": "nonpayable",
      "type": "function"
    },
    {
      "inputs": [
        {
          "internalType": "address",
          "name": "epAddress",
          "type": "address"
        },
        {
          "internalType": "address payable",
          "name": "withdrawAddress",
          "type": "address"
        }
      ],
      "name": "withdrawStake",
      "outputs": [],
      "stateMutability": "nonpayable",
      "type": "function"
    }
  ],
  "args": [
    "0xFB6538B79902686Ed46D28e335552744E3594e56",
    "0xf20cf3923bdd3487ACBe16De1B9516F7454ce651"
  ],
  "numDeployments": 1,
  "solcInputHash": "f5ff703f593963822ecd9aeafaaa4909",
  "bytecode": "0x60c0346101445761171b906001600160401b0390601f38849003908101601f1916820190838211838310176100ea57808391604096879485528339810103126101445761006861005a602061005384610149565b9301610149565b6100633361015d565b61015d565b6001600160a01b03811615610100576080528151906104e690818301908111838210176100ea578291611235833903906000f080156100df5760a0525161109090816101a582396080518181816101ed015281816105a70152818161074601526107ef015260a05181818161039e0152610b7c0152f35b50513d6000823e3d90fd5b634e487b7160e01b600052604160045260246000fd5b825162461bcd60e51b815260206004820152601d60248201527f696d706c656d656e746174696f6e2063616e6e6f74206265207a65726f0000006044820152606490fd5b600080fd5b51906001600160a01b038216820361014457565b600080546001600160a01b039283166001600160a01b03198216811783559216907f8be0079c531659141344cd1fd0a4f28419497f9722a3daafe3b4186f6b6457e09080a356fe60806040526004361015610013575b600080fd5b60003560e01c80632e7a1a831461010357806331c884df146100fa5780633b3cb143146100f157806345171159146100e85780634a1ce599146100df578063715018a6146100d6578063743b1e03146100cd5780638da5cb5b146100c4578063b36f9705146100bb578063daf0dfc8146100b2578063df20ffbc146100a95763f2fde38b146100a157600080fd5b61000e6108a6565b5061000e61076a565b5061000e610725565b5061000e6106a1565b5061000e610679565b5061000e610533565b5061000e6104cb565b5061000e61045f565b5061000e6103c2565b5061000e61037d565b5061000e61031d565b5061000e61018c565b6001600160a01b0381160361000e57565b9181601f8401121561000e5782359167ffffffffffffffff831161000e576020838186019501011161000e57565b90606060031983011261000e576004356101648161010c565b916024359067ffffffffffffffff821161000e576101849160040161011d565b909160443590565b503461000e576102f66102dc6102d06101b16101a73661014b565b9392919091610b54565b6102c1610120916020926101c6848201610a8e565b90808252610bdb858301396040519461024a61025687610214888201956001600160a01b037f0000000000000000000000000000000000000000000000000000000000000000169087610a9e565b0394610228601f19968781018b528a610a5f565b8781519101209260405192839189830195869091604092825260208201520190565b03858101835282610a5f565b519020945190206040517fff000000000000000000000000000000000000000000000000000000000000009481019485523060601b6bffffffffffffffffffffffff191660018601526015850195909552603584015291929182605585015b03908101835282610a5f565b5190206001600160a01b031690565b6001600160a01b031690565b6040516001600160a01b0390911681529081906020820190565b0390f35b60005b83811061030d5750506000910152565b81810151838201526020016102fd565b503461000e57600036600319011261000e5761036f60406101208151906103476020820183610a5f565b8082526020820190610cfb8239825193849260208452518092816020860152858501906102fa565b601f01601f19168101030190f35b503461000e57600036600319011261000e5760206040516001600160a01b037f0000000000000000000000000000000000000000000000000000000000000000168152f35b506000604036600319011261045c576004356103dd8161010c565b816024359163ffffffff8316809303610458576001600160a01b0390610401610991565b169161040e8315156109e9565b823b1561045857602460405180948193621cb65b60e51b8352600483015234905af1801561044b575b61043f575080f35b61044890610a35565b80f35b610453610a81565b610437565b5080fd5b80fd5b503461000e576000602036600319011261045c57806001600160a01b036004356104888161010c565b610490610991565b1661049c8115156109e9565b803b156104c857819060046040518094819363bb9fe6bf60e01b83525af1801561044b5761043f575080f35b50fd5b503461000e5760008060031936011261045c576104e6610991565b806001600160a01b03815473ffffffffffffffffffffffffffffffffffffffff1981168355167f8be0079c531659141344cd1fd0a4f28419497f9722a3daafe3b4186f6b6457e08280a380f35b503461000e57604036600319011261000e576004356105518161010c565b60243567ffffffffffffffff811161000e5761057190369060040161011d565b6101209161058160208401610a8e565b92808452610e1b60208501396105fe604051926105df846105d16001600160a01b0397887f0000000000000000000000000000000000000000000000000000000000000000169060208401610a9e565b03601f198101865285610a5f565b835160009460200185f092858416966105f9881515610b08565b610b54565b805183918161064c575b50506040519485946102f69416917f9a6cbf173278cf7dfadb45414d824f7828c0c94479f1b15e45453653070cf6579080a36001600160a01b031682526020820190565b8296945090602083920182855af193604051943d82873e1561067557935191936102f638610608565b3d85fd5b503461000e57600036600319011261000e5760206001600160a01b0360005416604051908152f35b503461000e576000604036600319011261045c576004356106c18161010c565b81602435916106cf8361010c565b6106d7610991565b6001600160a01b03809116926106ee8415156109e9565b833b156107215760249083604051958694859363611d2e7560e11b85521660048401525af1801561044b5761043f575080f35b8280fd5b503461000e57600036600319011261000e5760206040516001600160a01b037f0000000000000000000000000000000000000000000000000000000000000000168152f35b503461000e5761077c6101a73661014b565b9081519160208082019384209260405193846107a78385830193849091604092825260208201520190565b03946107bb601f1996878101835282610a5f565b519020610120946107cd848701610a8e565b95808752610f3b8588013961081860405191826102b56001600160a01b03998a7f00000000000000000000000000000000000000000000000000000000000000001690898401610a9e565b8051906000940184f591848316610830811515610abc565b8194518061087d575b50604051965086956102f69516917f8967dcaa00d8fcb9bb2b5beff4aaf8c020063512cf08fbe11fec37a1e3a150f29080a46001600160a01b031682526020820190565b82978380939750865af194604051953d82883e156108a2579451939485949338610839565b3d86fd5b503461000e57602036600319011261000e576004356108c48161010c565b6108cc610991565b6001600160a01b0380911680156109265760009182548273ffffffffffffffffffffffffffffffffffffffff198216178455167f8be0079c531659141344cd1fd0a4f28419497f9722a3daafe3b4186f6b6457e08380a380f35b60405162461bcd60e51b815260206004820152602660248201527f4f776e61626c653a206e6577206f776e657220697320746865207a65726f206160448201527f64647265737300000000000000000000000000000000000000000000000000006064820152608490fd5b6001600160a01b036000541633036109a557565b606460405162461bcd60e51b815260206004820152602060248201527f4f776e61626c653a2063616c6c6572206973206e6f7420746865206f776e65726044820152fd5b156109f057565b60405162461bcd60e51b815260206004820152601260248201527f496e76616c6964204550206164647265737300000000000000000000000000006044820152606490fd5b67ffffffffffffffff8111610a4957604052565b634e487b7160e01b600052604160045260246000fd5b90601f8019910116810190811067ffffffffffffffff821117610a4957604052565b506040513d6000823e3d90fd5b90610a9c6040519283610a5f565b565b6020929190610ab48492828151948592016102fa565b019081520190565b15610ac357565b60405162461bcd60e51b815260206004820152601360248201527f437265617465322063616c6c206661696c6564000000000000000000000000006044820152606490fd5b15610b0f57565b60405162461bcd60e51b815260206004820152601260248201527f4372656174652063616c6c206661696c656400000000000000000000000000006044820152606490fd5b60a490610bd7929380604051958693631bc6fec760e11b60208601526001600160a01b0390817f000000000000000000000000000000000000000000000000000000000000000016602487015216604485015260606064850152816084850152848401376000838284010152601f80199101168101036084810184520182610a5f565b9056fe6080346100aa57601f61012038819003918201601f19168301916001600160401b038311848410176100af578084926020946040528339810103126100aa57516001600160a01b0381168082036100aa5715610065573055604051605a90816100c68239f35b60405162461bcd60e51b815260206004820152601e60248201527f496e76616c696420696d706c656d656e746174696f6e206164647265737300006044820152606490fd5b600080fd5b634e487b7160e01b600052604160045260246000fdfe608060405230546000808092368280378136915af43d82803e156020573d90f35b3d90fdfea26469706673582212202f9dc63148dba1d3dd124d2d2e97fadbc207001912c09455222856b9bb7a751664736f6c634300081100336080346100aa57601f61012038819003918201601f19168301916001600160401b038311848410176100af578084926020946040528339810103126100aa57516001600160a01b0381168082036100aa5715610065573055604051605a90816100c68239f35b60405162461bcd60e51b815260206004820152601e60248201527f496e76616c696420696d706c656d656e746174696f6e206164647265737300006044820152606490fd5b600080fd5b634e487b7160e01b600052604160045260246000fdfe608060405230546000808092368280378136915af43d82803e156020573d90f35b3d90fdfea26469706673582212202f9dc63148dba1d3dd124d2d2e97fadbc207001912c09455222856b9bb7a751664736f6c634300081100336080346100aa57601f61012038819003918201601f19168301916001600160401b038311848410176100af578084926020946040528339810103126100aa57516001600160a01b0381168082036100aa5715610065573055604051605a90816100c68239f35b60405162461bcd60e51b815260206004820152601e60248201527f496e76616c696420696d706c656d656e746174696f6e206164647265737300006044820152606490fd5b600080fd5b634e487b7160e01b600052604160045260246000fdfe608060405230546000808092368280378136915af43d82803e156020573d90f35b3d90fdfea26469706673582212202f9dc63148dba1d3dd124d2d2e97fadbc207001912c09455222856b9bb7a751664736f6c634300081100336080346100aa57601f61012038819003918201601f19168301916001600160401b038311848410176100af578084926020946040528339810103126100aa57516001600160a01b0381168082036100aa5715610065573055604051605a90816100c68239f35b60405162461bcd60e51b815260206004820152601e60248201527f496e76616c696420696d706c656d656e746174696f6e206164647265737300006044820152606490fd5b600080fd5b634e487b7160e01b600052604160045260246000fdfe608060405230546000808092368280378136915af43d82803e156020573d90f35b3d90fdfea26469706673582212202f9dc63148dba1d3dd124d2d2e97fadbc207001912c09455222856b9bb7a751664736f6c63430008110033a2646970667358221220cd5c1449bffeee1ac2b29098cedbfef9ee4256c7f41a9b7c67f396f677cb679064736f6c6343000811003360808060405234610016576104ca908161001c8239f35b600080fdfe60806040908082526004918236101561001757600080fd5b600091823560e01c90816223de291461031b57816301ffc9a71461029457508063150b7a021461023d578063a3f4df7e146101d6578063bc197c811461014c578063f23a6e61146100f25763ffa1ad741461007157600080fd5b346100ee57816003193601126100ee578051918183019083821067ffffffffffffffff8311176100db57506100d793508152600582527f312e302e300000000000000000000000000000000000000000000000000000006020830152519182918261041a565b0390f35b634e487b7160e01b815260418552602490fd5b5080fd5b5090346101495760a03660031901126101495761010d6103a1565b506101166103c9565b506084359067ffffffffffffffff8211610149575060209261013a913691016103ec565b50505163f23a6e6160e01b8152f35b80fd5b5090346101495760a0366003190112610149576101676103a1565b506101706103c9565b5067ffffffffffffffff906044358281116100ee576101929036908601610463565b50506064358281116100ee576101ab9036908601610463565b505060843591821161014957506020926101c7913691016103ec565b50505163bc197c8160e01b8152f35b50346100ee57816003193601126100ee578051918183019083821067ffffffffffffffff8311176100db57506100d793508152601882527f44656661756c742043616c6c6261636b2048616e646c657200000000000000006020830152519182918261041a565b509034610149576080366003190112610149576102586103a1565b506102616103c9565b506064359067ffffffffffffffff82116101495750602092610285913691016103ec565b505051630a85bd0160e11b8152f35b83908534610317576020366003190112610317573563ffffffff60e01b81168091036103175760209250630271189760e51b8114908115610306575b81156102f6575b81156102e5575b5015158152f35b6301ffc9a760e01b149050836102de565b6223de2960e01b811491506102d7565b630a85bd0160e11b811491506102d0565b8280fd5b8385346100ee5760c03660031901126100ee576103366103a1565b5061033f6103c9565b5060443573ffffffffffffffffffffffffffffffffffffffff8116036100ee5767ffffffffffffffff9060843582811161039d5761038090369083016103ec565b505060a43591821161031757610398913691016103ec565b505080f35b8380fd5b6004359073ffffffffffffffffffffffffffffffffffffffff821682036103c457565b600080fd5b6024359073ffffffffffffffffffffffffffffffffffffffff821682036103c457565b9181601f840112156103c45782359167ffffffffffffffff83116103c457602083818601950101116103c457565b6020808252825181830181905290939260005b82811061044f57505060409293506000838284010152601f8019910116010190565b81810186015184820160400152850161042d565b9181601f840112156103c45782359167ffffffffffffffff83116103c4576020808501948460051b0101116103c45756fea2646970667358221220f76ef0453a32f5eeb670cda4ed1d0a8ab4ee82bd3b5742f6036dc9dad57afa0b64736f6c63430008110033",
  "devdoc": {
    "author": "Chirag Titiya - <chirag@biconomy.io>",
    "details": "It deploys Smart Accounts as proxies pointing to `basicImplementation` that is immutable.      This allows keeping the same address for the same Smart Account owner on various chains via CREATE2",
    "kind": "dev",
    "methods": {
      "accountCreationCode()": {
        "details": "Allows to retrieve the creation code used for the Proxy deployment.",
        "returns": {
          "_0": "The creation code for the Proxy."
        }
      },
      "deployAccount(address,bytes)": {
        "returns": {
          "proxy": "address of the deployed account"
        }
      },
      "deployCounterFactualAccount(address,bytes,uint256)": {
        "params": {
          "index": "extra salt that allows to deploy more account if needed for same EOA (default 0)"
        }
      },
      "getAddressForCounterFactualAccount(address,bytes,uint256)": {
        "params": {
          "index": "extra salt that allows to deploy more accounts if needed for same EOA (default 0)"
        }
      },
      "owner()": {
        "details": "Returns the address of the current owner."
      },
      "renounceOwnership()": {
        "details": "Leaves the contract without owner. It will not be possible to call `onlyOwner` functions. Can only be called by the current owner. NOTE: Renouncing ownership will leave the contract without an owner, thereby disabling any functionality that is only available to the owner."
      },
      "transferOwnership(address)": {
        "details": "Transfers ownership of the contract to a new account (`newOwner`). Can only be called by the current owner."
      }
    },
    "title": "Smart Account Factory - factory responsible for deploying Smart Accounts using CREATE2 and CREATE",
    "version": 1
  },
  "userdoc": {
    "kind": "user",
    "methods": {
      "deployAccount(address,bytes)": {
        "notice": "Deploys account using create and points it to _implementation"
      },
      "deployCounterFactualAccount(address,bytes,uint256)": {
        "notice": "Deploys account using create2 and points it to basicImplementation"
      },
      "getAddressForCounterFactualAccount(address,bytes,uint256)": {
        "notice": "Allows to find out account address prior to deployment"
      }
    },
    "version": 1
  },
  "storageLayout": {
    "storage": [
      {
        "astId": 5147,
        "contract": "contracts/factory/SmartAccountFactory.sol:SmartAccountFactory",
        "label": "_owner",
        "offset": 0,
        "slot": "0",
        "type": "t_address"
      }
    ],
    "types": {
      "t_address": {
        "encoding": "inplace",
        "label": "address",
        "numberOfBytes": "20"
      }
    }
  }
}