{
  "address": "0x92fC75593134B1554F07bCF93EFbBF2F4c36059f",
  "abi": [
    {
      "inputs": [
        {
          "internalType": "address",
          "name": "_wrappedNative",
          "type": "address"
        }
      ],
      "stateMutability": "nonpayable",
      "type": "constructor"
    },
    {
      "inputs": [
        {
          "internalType": "uint256",
          "name": "amountIn",
          "type": "uint256"
        },
        {
          "internalType": "address[]",
          "name": "path",
          "type": "address[]"
        }
      ],
      "name": "getAmountsOut",
      "outputs": [
        {
          "internalType": "uint256[]",
          "name": "amounts",
          "type": "uint256[]"
        }
      ],
      "stateMutability": "view",
      "type": "function"
    },
    {
      "inputs": [
        {
          "internalType": "uint256",
          "name": "amountIn",
          "type": "uint256"
        },
        {
          "internalType": "uint256",
          "name": "amountOutMin",
          "type": "uint256"
        },
        {
          "internalType": "address[]",
          "name": "path",
          "type": "address[]"
        },
        {
          "internalType": "address",
          "name": "to",
          "type": "address"
        },
        {
          "internalType": "uint256",
          "name": "deadline",
          "type": "uint256"
        }
      ],
      "name": "swapExactTokensForROSE",
      "outputs": [
        {
          "internalType": "uint256[]",
          "name": "amounts",
          "type": "uint256[]"
        }
      ],
      "stateMutability": "nonpayable",
      "type": "function"
    },
    {
      "inputs": [],
      "name": "wrappedNative",
      "outputs": [
        {
          "internalType": "address",
          "name": "",
          "type": "address"
        }
      ],
      "stateMutability": "view",
      "type": "function"
    },
    {
      "stateMutability": "payable",
      "type": "receive"
    }
  ],
  "transactionHash": "0x3fbce964a32f9f4310ba727abc70462fc14a506998285ba3cad09246fdcf966d",
  "args": [
    "0x59ec21Fb665D0788B4bb16f8E67153C344f5D515"
  ],
  "numDeployments": 1,
  "solcInputHash": "1983204556769bc1a61fef6e94b77152",
  "bytecode": "0x60a03461007057601f6106c738819003918201601f19168301916001600160401b038311848410176100755780849260209460405283398101031261007057516001600160a01b03811681036100705760805260405161063b908161008c8239608051818181607101526101120152f35b600080fd5b634e487b7160e01b600052604160045260246000fdfe6080604081815260049182361015610022575b505050361561002057600080fd5b005b600092833560e01c9182639c1cffbd1461033857508163d06ca61f14610099575063eb6d3a11146100535780610012565b34610095578160031936011261009557602090516001600160a01b037f0000000000000000000000000000000000000000000000000000000000000000168152f35b5080fd5b90503461033457816003193601126103345780359260249167ffffffffffffffff918335838111610095576100d1903690840161048d565b969094865194606086019086821090821117610322578752600285526020938486019688368937891561031057610107816104c3565b6001600160a01b03907f000000000000000000000000000000000000000000000000000000000000000082169082168114610278575b60019b8c101561026657908791816101568486016104c3565b161461019b575b50505050505091908495939551948186019282875251809352850195925b8281106101885785870386f35b835187529581019592810192840161017b565b6101b08493876101aa8c6105d2565b526104c3565b168a519283809263313ce56760e01b82525afa90811561025c5760069160ff91879161022f575b50160361021e5764e8d4a510009283810293818504149015171561020d575050610200846105f5565b525b38808080858161015d565b634e487b7160e01b84526011905282fd5b5050610229846105f5565b52610202565b61024f9150883d8a11610255575b61024781836104d7565b81019061050f565b386101d7565b503d61023d565b89513d87823e3d90fd5b634e487b7160e01b8752603284528487fd5b8b600110156102665783888361028f8287016104c3565b168d519283809263313ce56760e01b82525afa9081156103065760069160ff918a916102e9575b50886102c18d6105d2565b5216036102df5764e8d4a5100086046102d98a6105f5565b5261013d565b856102d98a6105f5565b61030091508b3d8d116102555761024781836104d7565b386102b6565b8c513d8a823e3d90fd5b50634e487b7160e01b84526032905282fd5b50634e487b7160e01b83526041845282fd5b8280fd5b848483346103345760a03660031901126103345780359060443567ffffffffffffffff81116104895761036e903690830161048d565b6001600160a01b039190606435838116036104855715610472579061039387926104c3565b1663313ce56760e01b8252818360209889935afa9081156104685760069160ff91879161044b575b5016036104395764e8d4a510009182810292818404149015171561042657506103e49033610528565b90915b8151928392828401908385526060518092528401926080925b82811061040f57505050500390f35b835185528695509381019392810192600101610400565b634e487b7160e01b845260119052602483fd5b506104449033610528565b90916103e7565b6104629150883d8a116102555761024781836104d7565b886103bb565b84513d87823e3d90fd5b634e487b7160e01b865260328352602486fd5b8680fd5b8480fd5b9181601f840112156104be5782359167ffffffffffffffff83116104be576020808501948460051b0101116104be57565b600080fd5b356001600160a01b03811681036104be5790565b90601f8019910116810190811067ffffffffffffffff8211176104f957604052565b634e487b7160e01b600052604160045260246000fd5b908160209103126104be575160ff811681036104be5790565b60405167ffffffffffffffff919060208101838111828210176104f95760405260008080958194828095525af1913d156105cb573d9182116105b7576040519161057c601f8201601f1916602001846104d7565b825260203d92013e5b1561058c57565b60405162461bcd60e51b815260206004820152600360248201526253544560e81b6044820152606490fd5b634e487b7160e01b81526041600452602490fd5b5050610585565b8051156105df5760200190565b634e487b7160e01b600052603260045260246000fd5b8051600110156105df576040019056fea26469706673582212208629c8f97f34029ba63b7c08b1fc8964b34e831ea4932826f684a5d22a5382b564736f6c63430008110033",
  "devdoc": {
    "kind": "dev",
    "methods": {},
    "version": 1
  },
  "userdoc": {
    "kind": "user",
    "methods": {},
    "version": 1
  },
  "storageLayout": {
    "storage": [],
    "types": null
  }
}