{
  "address": "0x5FbDB2315678afecb367f032d93F642f64180aa3",
  "abi": [
    {
      "inputs": [
        {
          "internalType": "uint256",
          "name": "preOpGas",
          "type": "uint256"
        },
        {
          "internalType": "uint256",
          "name": "paid",
          "type": "uint256"
        },
        {
          "internalType": "uint48",
          "name": "validAfter",
          "type": "uint48"
        },
        {
          "internalType": "uint48",
          "name": "validUntil",
          "type": "uint48"
        },
        {
          "internalType": "bool",
          "name": "targetSuccess",
          "type": "bool"
        },
        {
          "internalType": "bytes",
          "name": "targetResult",
          "type": "bytes"
        }
      ],
      "name": "ExecutionResult",
      "type": "error"
    },
    {
      "inputs": [
        {
          "internalType": "uint256",
          "name": "opIndex",
          "type": "uint256"
        },
        {
          "internalType": "string",
          "name": "reason",
          "type": "string"
        }
      ],
      "name": "FailedOp",
      "type": "error"
    },
    {
      "inputs": [
        {
          "internalType": "address",
          "name": "sender",
          "type": "address"
        }
      ],
      "name": "SenderAddressResult",
      "type": "error"
    },
    {
      "inputs": [
        {
          "internalType": "address",
          "name": "aggregator",
          "type": "address"
        }
      ],
      "name": "SignatureValidationFailed",
      "type": "error"
    },
    {
      "inputs": [
        {
          "components": [
            {
              "internalType": "uint256",
              "name": "preOpGas",
              "type": "uint256"
            },
            {
              "internalType": "uint256",
              "name": "prefund",
              "type": "uint256"
            },
            {
              "internalType": "bool",
              "name": "sigFailed",
              "type": "bool"
            },
            {
              "internalType": "uint48",
              "name": "validAfter",
              "type": "uint48"
            },
            {
              "internalType": "uint48",
              "name": "validUntil",
              "type": "uint48"
            },
            {
              "internalType": "bytes",
              "name": "paymasterContext",
              "type": "bytes"
            }
          ],
          "internalType": "struct IEntryPoint.ReturnInfo",
          "name": "returnInfo",
          "type": "tuple"
        },
        {
          "components": [
            {
              "internalType": "uint256",
              "name": "stake",
              "type": "uint256"
            },
            {
              "internalType": "uint256",
              "name": "unstakeDelaySec",
              "type": "uint256"
            }
          ],
          "internalType": "struct IStakeManager.StakeInfo",
          "name": "senderInfo",
          "type": "tuple"
        },
        {
          "components": [
            {
              "internalType": "uint256",
              "name": "stake",
              "type": "uint256"
            },
            {
              "internalType": "uint256",
              "name": "unstakeDelaySec",
              "type": "uint256"
            }
          ],
          "internalType": "struct IStakeManager.StakeInfo",
          "name": "factoryInfo",
          "type": "tuple"
        },
        {
          "components": [
            {
              "internalType": "uint256",
              "name": "stake",
              "type": "uint256"
            },
            {
              "internalType": "uint256",
              "name": "unstakeDelaySec",
              "type": "uint256"
            }
          ],
          "internalType": "struct IStakeManager.StakeInfo",
          "name": "paymasterInfo",
          "type": "tuple"
        }
      ],
      "name": "ValidationResult",
      "type": "error"
    },
    {
      "inputs": [
        {
          "components": [
            {
              "internalType": "uint256",
              "name": "preOpGas",
              "type": "uint256"
            },
            {
              "internalType": "uint256",
              "name": "prefund",
              "type": "uint256"
            },
            {
              "internalType": "bool",
              "name": "sigFailed",
              "type": "bool"
            },
            {
              "internalType": "uint48",
              "name": "validAfter",
              "type": "uint48"
            },
            {
              "internalType": "uint48",
              "name": "validUntil",
              "type": "uint48"
            },
            {
              "internalType": "bytes",
              "name": "paymasterContext",
              "type": "bytes"
            }
          ],
          "internalType": "struct IEntryPoint.ReturnInfo",
          "name": "returnInfo",
          "type": "tuple"
        },
        {
          "components": [
            {
              "internalType": "uint256",
              "name": "stake",
              "type": "uint256"
            },
            {
              "internalType": "uint256",
              "name": "unstakeDelaySec",
              "type": "uint256"
            }
          ],
          "internalType": "struct IStakeManager.StakeInfo",
          "name": "senderInfo",
          "type": "tuple"
        },
        {
          "components": [
            {
              "internalType": "uint256",
              "name": "stake",
              "type": "uint256"
            },
            {
              "internalType": "uint256",
              "name": "unstakeDelaySec",
              "type": "uint256"
            }
          ],
          "internalType": "struct IStakeManager.StakeInfo",
          "name": "factoryInfo",
          "type": "tuple"
        },
        {
          "components": [
            {
              "internalType": "uint256",
              "name": "stake",
              "type": "uint256"
            },
            {
              "internalType": "uint256",
              "name": "unstakeDelaySec",
              "type": "uint256"
            }
          ],
          "internalType": "struct IStakeManager.StakeInfo",
          "name": "paymasterInfo",
          "type": "tuple"
        },
        {
          "components": [
            {
              "internalType": "address",
              "name": "aggregator",
              "type": "address"
            },
            {
              "components": [
                {
                  "internalType": "uint256",
                  "name": "stake",
                  "type": "uint256"
                },
                {
                  "internalType": "uint256",
                  "name": "unstakeDelaySec",
                  "type": "uint256"
                }
              ],
              "internalType": "struct IStakeManager.StakeInfo",
              "name": "stakeInfo",
              "type": "tuple"
            }
          ],
          "internalType": "struct IEntryPoint.AggregatorStakeInfo",
          "name": "aggregatorInfo",
          "type": "tuple"
        }
      ],
      "name": "ValidationResultWithAggregation",
      "type": "error"
    },
    {
      "anonymous": false,
      "inputs": [
        {
          "indexed": true,
          "internalType": "bytes32",
          "name": "userOpHash",
          "type": "bytes32"
        },
        {
          "indexed": true,
          "internalType": "address",
          "name": "sender",
          "type": "address"
        },
        {
          "indexed": false,
          "internalType": "address",
          "name": "factory",
          "type": "address"
        },
        {
          "indexed": false,
          "internalType": "address",
          "name": "paymaster",
          "type": "address"
        }
      ],
      "name": "AccountDeployed",
      "type": "event"
    },
    {
      "anonymous": false,
      "inputs": [],
      "name": "BeforeExecution",
      "type": "event"
    },
    {
      "anonymous": false,
      "inputs": [
        {
          "indexed": true,
          "internalType": "address",
          "name": "account",
          "type": "address"
        },
        {
          "indexed": false,
          "internalType": "uint256",
          "name": "totalDeposit",
          "type": "uint256"
        }
      ],
      "name": "Deposited",
      "type": "event"
    },
    {
      "anonymous": false,
      "inputs": [
        {
          "indexed": true,
          "internalType": "address",
          "name": "aggregator",
          "type": "address"
        }
      ],
      "name": "SignatureAggregatorChanged",
      "type": "event"
    },
    {
      "anonymous": false,
      "inputs": [
        {
          "indexed": true,
          "internalType": "address",
          "name": "account",
          "type": "address"
        },
        {
          "indexed": false,
          "internalType": "uint256",
          "name": "totalStaked",
          "type": "uint256"
        },
        {
          "indexed": false,
          "internalType": "uint256",
          "name": "unstakeDelaySec",
          "type": "uint256"
        }
      ],
      "name": "StakeLocked",
      "type": "event"
    },
    {
      "anonymous": false,
      "inputs": [
        {
          "indexed": true,
          "internalType": "address",
          "name": "account",
          "type": "address"
        },
        {
          "indexed": false,
          "internalType": "uint256",
          "name": "withdrawTime",
          "type": "uint256"
        }
      ],
      "name": "StakeUnlocked",
      "type": "event"
    },
    {
      "anonymous": false,
      "inputs": [
        {
          "indexed": true,
          "internalType": "address",
          "name": "account",
          "type": "address"
        },
        {
          "indexed": false,
          "internalType": "address",
          "name": "withdrawAddress",
          "type": "address"
        },
        {
          "indexed": false,
          "internalType": "uint256",
          "name": "amount",
          "type": "uint256"
        }
      ],
      "name": "StakeWithdrawn",
      "type": "event"
    },
    {
      "anonymous": false,
      "inputs": [
        {
          "indexed": true,
          "internalType": "bytes32",
          "name": "userOpHash",
          "type": "bytes32"
        },
        {
          "indexed": true,
          "internalType": "address",
          "name": "sender",
          "type": "address"
        },
        {
          "indexed": true,
          "internalType": "address",
          "name": "paymaster",
          "type": "address"
        },
        {
          "indexed": false,
          "internalType": "uint256",
          "name": "nonce",
          "type": "uint256"
        },
        {
          "indexed": false,
          "internalType": "bool",
          "name": "success",
          "type": "bool"
        },
        {
          "indexed": false,
          "internalType": "uint256",
          "name": "actualGasCost",
          "type": "uint256"
        },
        {
          "indexed": false,
          "internalType": "uint256",
          "name": "actualGasUsed",
          "type": "uint256"
        }
      ],
      "name": "UserOperationEvent",
      "type": "event"
    },
    {
      "anonymous": false,
      "inputs": [
        {
          "indexed": true,
          "internalType": "bytes32",
          "name": "userOpHash",
          "type": "bytes32"
        },
        {
          "indexed": true,
          "internalType": "address",
          "name": "sender",
          "type": "address"
        },
        {
          "indexed": false,
          "internalType": "uint256",
          "name": "nonce",
          "type": "uint256"
        },
        {
          "indexed": false,
          "internalType": "bytes",
          "name": "revertReason",
          "type": "bytes"
        }
      ],
      "name": "UserOperationRevertReason",
      "type": "event"
    },
    {
      "anonymous": false,
      "inputs": [
        {
          "indexed": true,
          "internalType": "address",
          "name": "account",
          "type": "address"
        },
        {
          "indexed": false,
          "internalType": "address",
          "name": "withdrawAddress",
          "type": "address"
        },
        {
          "indexed": false,
          "internalType": "uint256",
          "name": "amount",
          "type": "uint256"
        }
      ],
      "name": "Withdrawn",
      "type": "event"
    },
    {
      "inputs": [],
      "name": "SIG_VALIDATION_FAILED",
      "outputs": [
        {
          "internalType": "uint256",
          "name": "",
          "type": "uint256"
        }
      ],
      "stateMutability": "view",
      "type": "function"
    },
    {
      "inputs": [
        {
          "internalType": "bytes",
          "name": "initCode",
          "type": "bytes"
        },
        {
          "internalType": "address",
          "name": "sender",
          "type": "address"
        },
        {
          "internalType": "bytes",
          "name": "paymasterAndData",
          "type": "bytes"
        }
      ],
      "name": "_validateSenderAndPaymaster",
      "outputs": [],
      "stateMutability": "view",
      "type": "function"
    },
    {
      "inputs": [
        {
          "internalType": "uint32",
          "name": "unstakeDelaySec",
          "type": "uint32"
        }
      ],
      "name": "addStake",
      "outputs": [],
      "stateMutability": "payable",
      "type": "function"
    },
    {
      "inputs": [
        {
          "internalType": "address",
          "name": "account",
          "type": "address"
        }
      ],
      "name": "balanceOf",
      "outputs": [
        {
          "internalType": "uint256",
          "name": "",
          "type": "uint256"
        }
      ],
      "stateMutability": "view",
      "type": "function"
    },
    {
      "inputs": [
        {
          "internalType": "address",
          "name": "account",
          "type": "address"
        }
      ],
      "name": "depositTo",
      "outputs": [],
      "stateMutability": "payable",
      "type": "function"
    },
    {
      "inputs": [
        {
          "internalType": "address",
          "name": "",
          "type": "address"
        }
      ],
      "name": "deposits",
      "outputs": [
        {
          "internalType": "uint112",
          "name": "deposit",
          "type": "uint112"
        },
        {
          "internalType": "bool",
          "name": "staked",
          "type": "bool"
        },
        {
          "internalType": "uint112",
          "name": "stake",
          "type": "uint112"
        },
        {
          "internalType": "uint32",
          "name": "unstakeDelaySec",
          "type": "uint32"
        },
        {
          "internalType": "uint48",
          "name": "withdrawTime",
          "type": "uint48"
        }
      ],
      "stateMutability": "view",
      "type": "function"
    },
    {
      "inputs": [
        {
          "internalType": "address",
          "name": "account",
          "type": "address"
        }
      ],
      "name": "getDepositInfo",
      "outputs": [
        {
          "components": [
            {
              "internalType": "uint112",
              "name": "deposit",
              "type": "uint112"
            },
            {
              "internalType": "bool",
              "name": "staked",
              "type": "bool"
            },
            {
              "internalType": "uint112",
              "name": "stake",
              "type": "uint112"
            },
            {
              "internalType": "uint32",
              "name": "unstakeDelaySec",
              "type": "uint32"
            },
            {
              "internalType": "uint48",
              "name": "withdrawTime",
              "type": "uint48"
            }
          ],
          "internalType": "struct IStakeManager.DepositInfo",
          "name": "info",
          "type": "tuple"
        }
      ],
      "stateMutability": "view",
      "type": "function"
    },
    {
      "inputs": [
        {
          "internalType": "address",
          "name": "sender",
          "type": "address"
        },
        {
          "internalType": "uint192",
          "name": "key",
          "type": "uint192"
        }
      ],
      "name": "getNonce",
      "outputs": [
        {
          "internalType": "uint256",
          "name": "nonce",
          "type": "uint256"
        }
      ],
      "stateMutability": "view",
      "type": "function"
    },
    {
      "inputs": [
        {
          "internalType": "bytes",
          "name": "initCode",
          "type": "bytes"
        }
      ],
      "name": "getSenderAddress",
      "outputs": [],
      "stateMutability": "nonpayable",
      "type": "function"
    },
    {
      "inputs": [
        {
          "components": [
            {
              "internalType": "address",
              "name": "sender",
              "type": "address"
            },
            {
              "internalType": "uint256",
              "name": "nonce",
              "type": "uint256"
            },
            {
              "internalType": "bytes",
              "name": "initCode",
              "type": "bytes"
            },
            {
              "internalType": "bytes",
              "name": "callData",
              "type": "bytes"
            },
            {
              "internalType": "uint256",
              "name": "callGasLimit",
              "type": "uint256"
            },
            {
              "internalType": "uint256",
              "name": "verificationGasLimit",
              "type": "uint256"
            },
            {
              "internalType": "uint256",
              "name": "preVerificationGas",
              "type": "uint256"
            },
            {
              "internalType": "uint256",
              "name": "maxFeePerGas",
              "type": "uint256"
            },
            {
              "internalType": "uint256",
              "name": "maxPriorityFeePerGas",
              "type": "uint256"
            },
            {
              "internalType": "bytes",
              "name": "paymasterAndData",
              "type": "bytes"
            },
            {
              "internalType": "bytes",
              "name": "signature",
              "type": "bytes"
            }
          ],
          "internalType": "struct UserOperation",
          "name": "userOp",
          "type": "tuple"
        }
      ],
      "name": "getUserOpHash",
      "outputs": [
        {
          "internalType": "bytes32",
          "name": "",
          "type": "bytes32"
        }
      ],
      "stateMutability": "view",
      "type": "function"
    },
    {
      "inputs": [
        {
          "components": [
            {
              "components": [
                {
                  "internalType": "address",
                  "name": "sender",
                  "type": "address"
                },
                {
                  "internalType": "uint256",
                  "name": "nonce",
                  "type": "uint256"
                },
                {
                  "internalType": "bytes",
                  "name": "initCode",
                  "type": "bytes"
                },
                {
                  "internalType": "bytes",
                  "name": "callData",
                  "type": "bytes"
                },
                {
                  "internalType": "uint256",
                  "name": "callGasLimit",
                  "type": "uint256"
                },
                {
                  "internalType": "uint256",
                  "name": "verificationGasLimit",
                  "type": "uint256"
                },
                {
                  "internalType": "uint256",
                  "name": "preVerificationGas",
                  "type": "uint256"
                },
                {
                  "internalType": "uint256",
                  "name": "maxFeePerGas",
                  "type": "uint256"
                },
                {
                  "internalType": "uint256",
                  "name": "maxPriorityFeePerGas",
                  "type": "uint256"
                },
                {
                  "internalType": "bytes",
                  "name": "paymasterAndData",
                  "type": "bytes"
                },
                {
                  "internalType": "bytes",
                  "name": "signature",
                  "type": "bytes"
                }
              ],
              "internalType": "struct UserOperation[]",
              "name": "userOps",
              "type": "tuple[]"
            },
            {
              "internalType": "contract IAggregator",
              "name": "aggregator",
              "type": "address"
            },
            {
              "internalType": "bytes",
              "name": "signature",
              "type": "bytes"
            }
          ],
          "internalType": "struct IEntryPoint.UserOpsPerAggregator[]",
          "name": "opsPerAggregator",
          "type": "tuple[]"
        },
        {
          "internalType": "address payable",
          "name": "beneficiary",
          "type": "address"
        }
      ],
      "name": "handleAggregatedOps",
      "outputs": [],
      "stateMutability": "nonpayable",
      "type": "function"
    },
    {
      "inputs": [
        {
          "components": [
            {
              "internalType": "address",
              "name": "sender",
              "type": "address"
            },
            {
              "internalType": "uint256",
              "name": "nonce",
              "type": "uint256"
            },
            {
              "internalType": "bytes",
              "name": "initCode",
              "type": "bytes"
            },
            {
              "internalType": "bytes",
              "name": "callData",
              "type": "bytes"
            },
            {
              "internalType": "uint256",
              "name": "callGasLimit",
              "type": "uint256"
            },
            {
              "internalType": "uint256",
              "name": "verificationGasLimit",
              "type": "uint256"
            },
            {
              "internalType": "uint256",
              "name": "preVerificationGas",
              "type": "uint256"
            },
            {
              "internalType": "uint256",
              "name": "maxFeePerGas",
              "type": "uint256"
            },
            {
              "internalType": "uint256",
              "name": "maxPriorityFeePerGas",
              "type": "uint256"
            },
            {
              "internalType": "bytes",
              "name": "paymasterAndData",
              "type": "bytes"
            },
            {
              "internalType": "bytes",
              "name": "signature",
              "type": "bytes"
            }
          ],
          "internalType": "struct UserOperation[]",
          "name": "ops",
          "type": "tuple[]"
        },
        {
          "internalType": "address payable",
          "name": "beneficiary",
          "type": "address"
        }
      ],
      "name": "handleOps",
      "outputs": [],
      "stateMutability": "nonpayable",
      "type": "function"
    },
    {
      "inputs": [
        {
          "internalType": "uint192",
          "name": "key",
          "type": "uint192"
        }
      ],
      "name": "incrementNonce",
      "outputs": [],
      "stateMutability": "nonpayable",
      "type": "function"
    },
    {
      "inputs": [
        {
          "internalType": "bytes",
          "name": "callData",
          "type": "bytes"
        },
        {
          "components": [
            {
              "components": [
                {
                  "internalType": "address",
                  "name": "sender",
                  "type": "address"
                },
                {
                  "internalType": "uint256",
                  "name": "nonce",
                  "type": "uint256"
                },
                {
                  "internalType": "uint256",
                  "name": "callGasLimit",
                  "type": "uint256"
                },
                {
                  "internalType": "uint256",
                  "name": "verificationGasLimit",
                  "type": "uint256"
                },
                {
                  "internalType": "uint256",
                  "name": "preVerificationGas",
                  "type": "uint256"
                },
                {
                  "internalType": "address",
                  "name": "paymaster",
                  "type": "address"
                },
                {
                  "internalType": "uint256",
                  "name": "maxFeePerGas",
                  "type": "uint256"
                },
                {
                  "internalType": "uint256",
                  "name": "maxPriorityFeePerGas",
                  "type": "uint256"
                }
              ],
              "internalType": "struct EntryPoint.MemoryUserOp",
              "name": "mUserOp",
              "type": "tuple"
            },
            {
              "internalType": "bytes32",
              "name": "userOpHash",
              "type": "bytes32"
            },
            {
              "internalType": "uint256",
              "name": "prefund",
              "type": "uint256"
            },
            {
              "internalType": "uint256",
              "name": "contextOffset",
              "type": "uint256"
            },
            {
              "internalType": "uint256",
              "name": "preOpGas",
              "type": "uint256"
            }
          ],
          "internalType": "struct EntryPoint.UserOpInfo",
          "name": "opInfo",
          "type": "tuple"
        },
        {
          "internalType": "bytes",
          "name": "context",
          "type": "bytes"
        }
      ],
      "name": "innerHandleOp",
      "outputs": [
        {
          "internalType": "uint256",
          "name": "actualGasCost",
          "type": "uint256"
        }
      ],
      "stateMutability": "nonpayable",
      "type": "function"
    },
    {
      "inputs": [
        {
          "internalType": "address",
          "name": "",
          "type": "address"
        },
        {
          "internalType": "uint192",
          "name": "",
          "type": "uint192"
        }
      ],
      "name": "nonceSequenceNumber",
      "outputs": [
        {
          "internalType": "uint256",
          "name": "",
          "type": "uint256"
        }
      ],
      "stateMutability": "view",
      "type": "function"
    },
    {
      "inputs": [
        {
          "components": [
            {
              "internalType": "address",
              "name": "sender",
              "type": "address"
            },
            {
              "internalType": "uint256",
              "name": "nonce",
              "type": "uint256"
            },
            {
              "internalType": "bytes",
              "name": "initCode",
              "type": "bytes"
            },
            {
              "internalType": "bytes",
              "name": "callData",
              "type": "bytes"
            },
            {
              "internalType": "uint256",
              "name": "callGasLimit",
              "type": "uint256"
            },
            {
              "internalType": "uint256",
              "name": "verificationGasLimit",
              "type": "uint256"
            },
            {
              "internalType": "uint256",
              "name": "preVerificationGas",
              "type": "uint256"
            },
            {
              "internalType": "uint256",
              "name": "maxFeePerGas",
              "type": "uint256"
            },
            {
              "internalType": "uint256",
              "name": "maxPriorityFeePerGas",
              "type": "uint256"
            },
            {
              "internalType": "bytes",
              "name": "paymasterAndData",
              "type": "bytes"
            },
            {
              "internalType": "bytes",
              "name": "signature",
              "type": "bytes"
            }
          ],
          "internalType": "struct UserOperation",
          "name": "op",
          "type": "tuple"
        },
        {
          "internalType": "address",
          "name": "target",
          "type": "address"
        },
        {
          "internalType": "bytes",
          "name": "targetCallData",
          "type": "bytes"
        }
      ],
      "name": "simulateHandleOp",
      "outputs": [],
      "stateMutability": "nonpayable",
      "type": "function"
    },
    {
      "inputs": [
        {
          "components": [
            {
              "internalType": "address",
              "name": "sender",
              "type": "address"
            },
            {
              "internalType": "uint256",
              "name": "nonce",
              "type": "uint256"
            },
            {
              "internalType": "bytes",
              "name": "initCode",
              "type": "bytes"
            },
            {
              "internalType": "bytes",
              "name": "callData",
              "type": "bytes"
            },
            {
              "internalType": "uint256",
              "name": "callGasLimit",
              "type": "uint256"
            },
            {
              "internalType": "uint256",
              "name": "verificationGasLimit",
              "type": "uint256"
            },
            {
              "internalType": "uint256",
              "name": "preVerificationGas",
              "type": "uint256"
            },
            {
              "internalType": "uint256",
              "name": "maxFeePerGas",
              "type": "uint256"
            },
            {
              "internalType": "uint256",
              "name": "maxPriorityFeePerGas",
              "type": "uint256"
            },
            {
              "internalType": "bytes",
              "name": "paymasterAndData",
              "type": "bytes"
            },
            {
              "internalType": "bytes",
              "name": "signature",
              "type": "bytes"
            }
          ],
          "internalType": "struct UserOperation",
          "name": "userOp",
          "type": "tuple"
        }
      ],
      "name": "simulateValidation",
      "outputs": [],
      "stateMutability": "nonpayable",
      "type": "function"
    },
    {
      "inputs": [],
      "name": "unlockStake",
      "outputs": [],
      "stateMutability": "nonpayable",
      "type": "function"
    },
    {
      "inputs": [
        {
          "internalType": "address payable",
          "name": "withdrawAddress",
          "type": "address"
        }
      ],
      "name": "withdrawStake",
      "outputs": [],
      "stateMutability": "nonpayable",
      "type": "function"
    },
    {
      "inputs": [
        {
          "internalType": "address payable",
          "name": "withdrawAddress",
          "type": "address"
        },
        {
          "internalType": "uint256",
          "name": "withdrawAmount",
          "type": "uint256"
        }
      ],
      "name": "withdrawTo",
      "outputs": [],
      "stateMutability": "nonpayable",
      "type": "function"
    },
    {
      "stateMutability": "payable",
      "type": "receive"
    }
  ],
  "transactionHash": "0xe23bf1f0e87c82a86f20bda3d2bcfc055e68b619f85d3a503991aaaffcfdcbd5",
  "args": [],
  "numDeployments": 1,
  "solcInputHash": "f709c68c25992985ca1f95ec5ec0d600",
  "bytecode": "0x60a08060405234620000895760016002556101b98181016001600160401b038111838210176200007357829162004985833903906000f0801562000067576080526040516148f690816200008f8239608051818181610fd8015281816130fc01526133650152f35b6040513d6000823e3d90fd5b634e487b7160e01b600052604160045260246000fd5b600080fdfe60806040526004361015610023575b361561001957600080fd5b61002161430a565b005b60003560e01c80630396cb60146101b35780630bd28e3b146101aa5780631b2e01b8146101a15780631d732756146101985780631fad948c1461018f578063205c28781461018657806335567e1a1461017d5780634b1d7cf5146101745780635287ce121461016b57806370a08231146101625780638f41ec5a14610159578063957122ab146101505780639b249f6914610147578063a61935311461013e578063b760faf914610135578063bb9fe6bf1461012c578063c23a5cea14610123578063d6383f941461011a578063ee219423146101115763fc7e286d0361000e5761010c6115fd565b61000e565b5061010c611458565b5061010c611334565b5061010c6111fc565b5061010c6110da565b5061010c6110b9565b5061010c611098565b5061010c610f74565b5061010c610e0d565b5061010c610df0565b5061010c610d9d565b5061010c610c86565b5061010c610990565b5061010c61091e565b5061010c6107fd565b5061010c610723565b5061010c6105aa565b5061010c6103bc565b5061010c610327565b50602036600319011261030c5760043563ffffffff811680820361030c576103077fa5ae833d0bb1dcd632d98a8b70973e8516812898e19bf27b70071ebc8dc52c0191610246610216336001600160a01b03166000526000602052604060002090565b91610222811515614410565b61023f610236600185015463ffffffff1690565b63ffffffff1690565b111561445c565b54926102e96001600160701b03946102b461026634888460781c16611a54565b966102728815156144a8565b61027e818911156144f4565b61029b8161028a6104cd565b941684906001600160701b03169052565b6001602084015287166001600160701b03166040830152565b63ffffffff83166060820152600060808201526102e4336001600160a01b03166000526000602052604060002090565b614540565b6040805194855263ffffffff90911660208501523393918291820190565b0390a2005b600080fd5b602435906001600160c01b038216820361030c57565b503461030c57602036600319011261030c576004356001600160c01b038116810361030c57610376903360005260016020526040600020906001600160c01b0316600052602052604060002090565b6103808154611c53565b9055005b6001600160a01b0381160361030c57565b602435906103a282610384565b565b60c435906103a282610384565b35906103a282610384565b503461030c57604036600319011261030c5760206104156004356103df81610384565b6001600160a01b036103ef610311565b9116600052600183526040600020906001600160c01b0316600052602052604060002090565b54604051908152f35b50634e487b7160e01b600052604160045260246000fd5b60a0810190811067ffffffffffffffff82111761045157604052565b61045961041e565b604052565b610100810190811067ffffffffffffffff82111761045157604052565b67ffffffffffffffff811161045157604052565b6060810190811067ffffffffffffffff82111761045157604052565b90601f8019910116810190811067ffffffffffffffff82111761045157604052565b604051906103a282610435565b6040519060c0820182811067ffffffffffffffff82111761045157604052565b604051906040820182811067ffffffffffffffff82111761045157604052565b60209067ffffffffffffffff8111610538575b601f01601f19160190565b61054061041e565b61052d565b9291926105518261051a565b9161055f60405193846104ab565b82948184528183011161030c578281602093846000960137010152565b9181601f8401121561030c5782359167ffffffffffffffff831161030c576020838186019501011161030c57565b503461030c576101c036600319011261030c5767ffffffffffffffff60043581811161030c573660238201121561030c576105ef903690602481600401359101610545565b903660231901610180811261030c576101006040519161060e83610435565b1261030c5760405161061f8161045e565b610627610395565b815260443560208201526064356040820152608435606082015260a43560808201526106516103a4565b60a082015260e43560c08201526101043560e082015281526101243560208201526101443560408201526101643560608201526101843560808201526101a43591821161030c576106c5926106ad6106b593369060040161057c565b929091611f81565b6040519081529081906020820190565b0390f35b90604060031983011261030c5760043567ffffffffffffffff9283821161030c578060238301121561030c57816004013593841161030c5760248460051b8301011161030c57602401919060243561072081610384565b90565b503461030c57610732366106c9565b61073d92919261486c565b6107468361172b565b60005b8481106107c657506000927fbb47ee3e183a558b1a2ff0874b079f3fc5478b7454eacf2bfc5af2ff5878f9728480a183915b8583106107965761078c8585611815565b6100216001600255565b9091936001906107bc6107aa8789876117b4565b6107b48886611792565b519088611b60565b019401919061077b565b806107f46107ed6107db600194869896611792565b516107e7848a886117b4565b846128ee565b908361250b565b01929092610749565b503461030c57604036600319011261030c5760043561081b81610384565b6024359060009133835282602052604083206001600160701b03815416928383116108d95784836001600160a01b03829593610889849661086f61086387986108d69c611a3f565b6001600160701b031690565b6001600160701b03166001600160701b0319825416179055565b604080516001600160a01b03831681526020810185905233917fd1c19fbcd4551a5edfb66d43d2e337c04837afda3482b42bdf569a8fccdae5fb91a2165af16108d06117e5565b506147d4565b80f35b60405162461bcd60e51b815260206004820152601960248201527f576974686472617720616d6f756e7420746f6f206c61726765000000000000006044820152606490fd5b503461030c57604036600319011261030c57602060043561093e81610384565b6001600160a01b0361094e610311565b911660005260018252610978816040600020906001600160c01b0316600052602052604060002090565b546040805192901b67ffffffffffffffff1916178152f35b503461030c5761099f366106c9565b6109a761486c565b6000805b838210610b74576109bc915061172b565b7fbb47ee3e183a558b1a2ff0874b079f3fc5478b7454eacf2bfc5af2ff5878f972600080a16000805b848110610ae757505060008093815b818110610a2b5761078c868660007f575ff3acadd5ab348fe1855e217e0f3678f8d767d7494c9f9fefbee2e17cca4d8180a2611815565b610a82610a3982848a611c6f565b610a57610a4b610a4b60208401611cd5565b6001600160a01b031690565b7f575ff3acadd5ab348fe1855e217e0f3678f8d767d7494c9f9fefbee2e17cca4d600080a280611c9f565b906000915b808310610a9f57505050610a9a90611c53565b6109f4565b90919497610ada610ad4610ae092610ace8c8b610ac782610ac18e8b8d6117b4565b92611792565b5191611b60565b90611a54565b99611c53565b95611c53565b9190610a87565b610af2818688611c6f565b6020610b0a610b018380611c9f565b92909301611cd5565b916001600160a01b0360009316905b828410610b325750505050610b2d90611c53565b6109e5565b90919294610ada81610b6785610b60610b4e610b6c968d611792565b51610b5a8c8b8a6117b4565b856128ee565b908b612684565b611c53565b929190610b19565b610b7f828587611c6f565b90610b8a8280611c9f565b92610b9a610a4b60208301611cd5565b916001600160a01b038316610bb26001821415611cdf565b610bd3575b505050610bcd91610bc791611a54565b91611c53565b906109ab565b909592610bec60409996939998959897888101906118c7565b92908a3b1561030c5789938b918a51938492839263e3563a4f60e01b845260049e8f850193610c1a94611e35565b03815a93600094fa9081610c6d575b50610c5757865163086a9f7560e41b81526001600160a01b038a16818a0190815281906020010390fd5b0390fd5b9497509295509093509181610bc7610bcd610bb7565b80610c7a610c809261047b565b80610de5565b38610c29565b503461030c57602036600319011261030c576106c56001600160a01b03600435610caf81610384565b608060409283928351610cc181610435565b600093818580935282602082015282878201528260608201520152168152806020522090610d4965ffffffffffff6001835194610cfd86610435565b80546001600160701b038082168852607082901c60ff161515602089015260789190911c1685870152015463ffffffff8116606086015260201c16608084019065ffffffffffff169052565b5191829182919091608065ffffffffffff8160a08401956001600160701b03808251168652602082015115156020870152604082015116604086015263ffffffff6060820151166060860152015116910152565b503461030c57602036600319011261030c576001600160a01b03600435610dc381610384565b16600052600060205260206001600160701b0360406000205416604051908152f35b600091031261030c57565b503461030c57600036600319011261030c57602060405160018152f35b503461030c57606036600319011261030c57600467ffffffffffffffff813581811161030c57610e40903690840161057c565b905060243591610e4f83610384565b60443590811161030c57610e66903690850161057c565b929091159081610f6a575b50610f1d576014821015610ea7575b610c538360405191829162461bcd60e51b8352820160409060208152600060208201520190565b610eb7610ec392610ebd926121e0565b906121ee565b60601c90565b3b15610ed0573880610e80565b610c539060405191829162461bcd60e51b8352820160609060208152601b60208201527f41413330207061796d6173746572206e6f74206465706c6f796564000000000060408201520190565b610c538360405191829162461bcd60e51b8352820160609060208152601960208201527f41413230206163636f756e74206e6f74206465706c6f7965640000000000000060408201520190565b90503b1538610e71565b503461030c57602036600319011261030c5760043567ffffffffffffffff811161030c57610fa8602491369060040161057c565b604051632b870d1b60e11b8152918291610fc59160048401612364565b036020826001600160a01b0392816000857f0000000000000000000000000000000000000000000000000000000000000000165af1918215611051575b600092611021575b50604051633653dc0360e11b815291166004820152fd5b61104391925060203d811161104a575b61103b81836104ab565b81019061234f565b903861100a565b503d611031565b611059611a1b565b611002565b908161016091031261030c5790565b602060031982011261030c576004359067ffffffffffffffff821161030c576107209160040161105e565b503461030c5760206110b16110ac3661106d565b61209c565b604051908152f35b50602036600319011261030c576100216004356110d581610384565b6143b8565b503461030c576000806003193601126111f9573381528060205260408120600181019063ffffffff8254169081156111b45761116161113b6111799361112d611128855460ff9060701c1690565b61463e565b65ffffffffffff421661468a565b845469ffffffffffff000000001916602082901b69ffffffffffff000000001617909455565b80546eff000000000000000000000000000019169055565b60405165ffffffffffff91909116815233907ffa9b3c14cc825c412c9ed81b3ba365a5b459439403f18829e572ed53a4180f0a90602090a280f35b60405162461bcd60e51b815260206004820152600a60248201527f6e6f74207374616b6564000000000000000000000000000000000000000000006044820152606490fd5b80fd5b503461030c57602036600319011261030c5760043561121a81610384565b6108d66001600160a01b03611242336001600160a01b03166000526000602052604060002090565b926112de61125e61086386546001600160701b039060781c1690565b9461126a8615156146a4565b6112b6600182016112a365ffffffffffff61128f835465ffffffffffff9060201c1690565b1661129b8115156146f0565b42101561473c565b805469ffffffffffffffffffff19169055565b7fffffff0000000000000000000000000000ffffffffffffffffffffffffffffff8154169055565b604080516001600160a01b03831681526020810186905233917fb7c918e0e249f999e965cafeb6c664271b3f4317d296461500e71da39f0cbda391a2600080809581948294165af161132e6117e5565b50614788565b503461030c57606036600319011261030c5767ffffffffffffffff60043581811161030c5761136790369060040161105e565b6024359161137483610384565b60443590811161030c5761138f610c5391369060040161057c565b6113976116a8565b6113a085612438565b6113b36113ad8287612749565b906141d2565b946113c382600092438452611a61565b9643825281936060956001600160a01b038316611424575b50505050608001519361140a60406113fc602084015165ffffffffffff1690565b92015165ffffffffffff1690565b90604051968796630116f59360e71b885260048801611eca565b8395508394965061143e6040949293945180948193611ebc565b03925af190608061144d6117e5565b9291903880806113db565b503461030c576114673661106d565b61146f6116a8565b61147882612438565b6114828183612749565b825160a001519193916114a2906001600160a01b03166142c9565b6142c9565b906114b961149d85516001600160a01b0390511690565b946114c26121a8565b506114f16114d5604095868101906118c7565b906000601483106115f55750610eb761149d92610ebd926121e0565b916114fb916141d2565b80516001600160a01b0316906001600160a01b038216600181149160808801519787810151918860208201516115369065ffffffffffff1690565b91015165ffffffffffff1691606001519261154f6104da565b9a8b5260208b0152841515898b015265ffffffffffff1660608a015265ffffffffffff16608089015260a0880152151590816115ec575b506115a75750610c53925194859463e0cff05f60e01b8652600486016122f5565b9190610c53936115b6846142c9565b6115d06115c16104fa565b6001600160a01b039096168652565b602085015251633ebb2d3960e21b815295869560048701612270565b90501538611586565b9150506142c9565b503461030c57602036600319011261030c576001600160a01b0360043561162381610384565b16600052600060205260a0604060002065ffffffffffff60018254920154604051926001600160701b0390818116855260ff8160701c161515602086015260781c16604084015263ffffffff8116606084015260201c166080820152f35b60209067ffffffffffffffff811161169b575b60051b0190565b6116a361041e565b611694565b604051906116b582610435565b604051608083610100830167ffffffffffffffff81118482101761171e575b60405260009283815283602082015283604082015283606082015283838201528360a08201528360c08201528360e082015281528260208201528260408201528260608201520152565b61172661041e565b6116d4565b9061173582611681565b61174260405191826104ab565b8281528092611753601f1991611681565b019060005b82811061176457505050565b60209061176f6116a8565b82828501015201611758565b50634e487b7160e01b600052603260045260246000fd5b60209181518110156117a7575b60051b010190565b6117af61177b565b61179f565b91908110156117d8575b60051b8101359061015e198136030182121561030c570190565b6117e061177b565b6117be565b3d15611810573d906117f68261051a565b9161180460405193846104ab565b82523d6000602084013e565b606090565b6001600160a01b0316801561188257600080809381935af16118356117e5565b501561183d57565b60405162461bcd60e51b815260206004820152601f60248201527f41413931206661696c65642073656e6420746f2062656e6566696369617279006044820152606490fd5b60405162461bcd60e51b815260206004820152601860248201527f4141393020696e76616c69642062656e656669636961727900000000000000006044820152606490fd5b903590601e198136030182121561030c570180359067ffffffffffffffff821161030c5760200191813603831361030c57565b9081602091031261030c575190565b908060209392818452848401376000828201840152601f01601f1916010190565b60005b83811061193d5750506000910152565b818101518382015260200161192d565b906020916119668151809281855285808601910161192a565b601f01601f1916010190565b9061198c60809161072096946101c0808652850191611909565b9360e081516001600160a01b0380825116602087015260208201516040870152604082015160608701526060820151858701528482015160a087015260a08201511660c086015260c081015182860152015161010084015260208101516101208401526040810151610140840152606081015161016084015201516101808201526101a081840391015261194d565b506040513d6000823e3d90fd5b50634e487b7160e01b600052601160045260246000fd5b91908203918211611a4c57565b6103a2611a28565b91908201809211611a4c57565b905a91816020611a7a60608301519360608101906118c7565b90611a9a856040519586948594630eb993ab60e11b865260048601611972565b03816000305af160009181611b30575b50611b29575060206000803e60005163deaddead60e01b14611ae857611ae2611ad7610720945a90611a3f565b608084015190611a54565b91613ad4565b60408051631101335b60e11b8152600060048201526024810191909152600f60448201526e41413935206f7574206f662067617360881b6064820152608490fd5b9250505090565b611b5291925060203d8111611b59575b611b4a81836104ab565b8101906118fa565b9038611aaa565b503d611b40565b909291925a93806020611b7c60608301519460608101906118c7565b90611b9c866040519586948594630eb993ab60e11b865260048601611972565b03816000305af160009181611c33575b50611c2c575060206000803e60005163deaddead60e01b14611beb57611be5611bda61072095965a90611a3f565b608083015190611a54565b92613d16565b60408051631101335b60e11b8152600481018590526024810191909152600f60448201526e41413935206f7574206f662067617360881b6064820152608490fd5b9450505050565b611c4c91925060203d8111611b5957611b4a81836104ab565b9038611bac565b6001906000198114611c63570190565b611c6b611a28565b0190565b9190811015611c92575b60051b81013590605e198136030182121561030c570190565b611c9a61177b565b611c79565b903590601e198136030182121561030c570180359067ffffffffffffffff821161030c57602001918160051b3603831361030c57565b3561072081610384565b15611ce657565b60405162461bcd60e51b815260206004820152601760248201527f4141393620696e76616c69642061676772656761746f720000000000000000006044820152606490fd5b9035601e198236030181121561030c57016020813591019167ffffffffffffffff821161030c57813603831361030c57565b61072091611d7b81611d6e846103b1565b6001600160a01b03169052565b60208201356020820152611e16611dc7611dac611d9b6040860186611d2b565b610160806040880152860191611909565b611db96060860186611d2b565b908583036060870152611909565b6080840135608084015260a084013560a084015260c084013560c084015260e084013560e08401526101008085013590840152610120611e0981860186611d2b565b9185840390860152611909565b91611e276101409182810190611d2b565b929091818503910152611909565b949391929083604087016040885252606086019360608160051b8801019482600090815b848310611e785750505050505084602061072095968503910152611909565b909192939497605f198b8203018552883561015e1984360301811215611eb85760019184611ea69201611d5d565b98602090810196950193019190611e59565b8280fd5b908092918237016000815290565b92909361072096959260c0958552602085015265ffffffffffff8092166040850152166060830152151560808201528160a0820152019061194d565b15611f0d57565b60405162461bcd60e51b815260206004820152601760248201527f4141393220696e7465726e616c2063616c6c206f6e6c790000000000000000006044820152606490fd5b9060406107209260008152816020820152019061194d565b60409061072093928152816020820152019061194d565b909291925a93611f92303314611f06565b8151946040860151955a61138860608301518901011161208b57610720966000958051611fd9575b50505090611fd3915a9003608084015101943691610545565b91613efb565b611ffb91611ff791611ff285516001600160a01b031690565b61482b565b1590565b612007575b8080611fba565b611fd39291945061201661483d565b90815161202a575b50506001939091612000565b7f1c4fada7374c0a9ee8841fc38afe82932dc0f8e69012e927f061a8bae611a2016001600160a01b03602087015192612081602061206f83516001600160a01b031690565b92015195604051938493169683611f6a565b0390a3388061201e565b63deaddead60e01b60005260206000fd5b6120b26120ac60408301836118c7565b90614820565b906120c36120ac60608301836118c7565b9061215f6120d86120ac6101208401846118c7565b60405194859360208501956101008201359260e08301359260c08101359260a0820135926080830135926001600160a01b0360208201359135168c9693909a999895926101209895926001600160a01b036101408a019d168952602089015260408801526060870152608086015260a085015260c084015260e08301526101008201520152565b0391612173601f19938481018352826104ab565b519020604080516020810192835230918101919091524660608201526080928301815290916121a290826104ab565b51902090565b604051906040820182811067ffffffffffffffff8211176121d3575b60405260006020838281520152565b6121db61041e565b6121c4565b9060141161030c5790601490565b6bffffffffffffffffffffffff19903581811693926014811061221057505050565b60140360031b82901b16169150565b9060c060a061072093805184526020810151602085015260408101511515604085015265ffffffffffff80606083015116606086015260808201511660808501520151918160a0820152019061194d565b92946122d16103a2956122bf6101009599986122ad612299602097610140808c528b019061221f565b9b878a019060208091805184520151910152565b80516060890152602001516080880152565b805160a08701526020015160c0860152565b6001600160a01b0381511660e0850152015191019060208091805184520151910152565b61233e6103a29461232c61231760a0959998969960e0865260e086019061221f565b98602085019060208091805184520151910152565b80516060840152602001516080830152565b019060208091805184520151910152565b9081602091031261030c575161072081610384565b916020610720938181520191611909565b906123976001600160a01b039161072097959694606085526060850191611909565b941660208201526040818503910152611909565b60009060033d116123b857565b905060046000803e60005160e01c90565b600060443d1061072057604051600319913d83016004833e815167ffffffffffffffff918282113d6024840111176124275781840194855193841161242f573d850101602084870101116124275750610720929101602001906104ab565b949350505050565b50949350505050565b61244560408201826118c7565b61245d61245184611cd5565b936101208101906118c7565b9290303b1561030c5760009361248891604051968795869563957122ab60e01b875260048701612375565b0381305afa90816124f8575b506103a25760016124a36123ab565b6308c379a0146124bc575b6124b457565b6103a2611a1b565b6124c46123c9565b806124d0575b506124ae565b805160009250156124ca57604051631101335b60e11b8152908190610c539060048301611f52565b80610c7a6125059261047b565b38612494565b9190612516906126ae565b6001600160a01b0392918316612635576125e657612533906126ae565b9116612597576125405750565b60408051631101335b60e11b815260048101929092526024820152602160448201527f41413332207061796d61737465722065787069726564206f72206e6f742064756064820152606560f81b608482015260a490fd5b60408051631101335b60e11b8152600481018490526024810191909152601460448201527f41413334207369676e6174757265206572726f720000000000000000000000006064820152608490fd5b60408051631101335b60e11b8152600481018590526024810191909152601760448201527f414132322065787069726564206f72206e6f74206475650000000000000000006064820152608490fd5b60408051631101335b60e11b8152600481018690526024810191909152601460448201527f41413234207369676e6174757265206572726f720000000000000000000000006064820152608490fd5b929190612690906126ae565b90926001600160a01b0380809516911603612635576125e657612533905b80156126f4576126bd90614184565b6001600160a01b0365ffffffffffff8060408401511642119081156126e4575b5091511691565b90506020830151164210386126dd565b50600090600090565b1561270457565b60405162461bcd60e51b815260206004820152601860248201527f41413934206761732076616c756573206f766572666c6f7700000000000000006044820152606490fd5b916000915a9381519061275c8282612ae1565b6127658161209c565b60208401526127a36effffffffffffffffffffffffffffff60808401516060850151176040850151176101008401359060e0850135171711156126fd565b6127ac82612b89565b6127b7818584612c3d565b97906127db611ff76127d087516001600160a01b031690565b602088015190614277565b61289f576127e843600052565b6001600160a01b0361280660a060609701516001600160a01b031690565b16612885575b505a810360a0840135106128365760809360c092604087015260608601525a900391013501910152565b60408051631101335b60e11b8152600060048201526024810191909152601e60448201527f41413430206f76657220766572696669636174696f6e4761734c696d697400006064820152608490fd5b909350816128969297508584613675565b9590923861280c565b60408051631101335b60e11b8152600060048201526024810191909152601a60448201527f4141323520696e76616c6964206163636f756e74206e6f6e63650000000000006064820152608490fd5b9290916000925a82516129018184612ae1565b61290a8361209c565b60208501526129486effffffffffffffffffffffffffffff60808301516060840151176040840151176101008601359060e0870135171711156126fd565b61295181612b89565b61295d8186868b612ec6565b9890612981611ff761297686516001600160a01b031690565b602087015190614277565b612a465761298e43600052565b6001600160a01b036129ac60a060609601516001600160a01b031690565b16612a2b575b505a840360a0860135106129de5750604085015260608401526080919060c0905a900391013501910152565b60408051631101335b60e11b815260048101929092526024820152601e60448201527f41413430206f76657220766572696669636174696f6e4761734c696d697400006064820152608490fd5b90925081612a3d92985086868561385f565b969091386129b2565b60408051631101335b60e11b8152600481018490526024810191909152601a60448201527f4141323520696e76616c6964206163636f756e74206e6f6e63650000000000006064820152608490fd5b15612a9c57565b60405162461bcd60e51b815260206004820152601d60248201527f4141393320696e76616c6964207061796d6173746572416e64446174610000006044820152606490fd5b612b4690612afe612af182611cd5565b6001600160a01b03168452565b602081013560208401526080810135604084015260a0810135606084015260c0810135608084015260e081013560c084015261010081013560e08401526101208101906118c7565b908115612b7e57612b70610ebd610eb78460a094612b6b60146103a299981015612a95565b6121e0565b6001600160a01b0316910152565b505060a06000910152565b60a08101516001600160a01b031615612bbe5760c060035b60ff60408401519116606084015102016080830151019101510290565b60c06001612ba1565b612bdf60409295949395606083526060830190611d5d565b9460208201520152565b906103a2602f60405180947f414132332072657665727465643a2000000000000000000000000000000000006020830152612c2d815180926020868601910161192a565b810103600f8101855201836104ab565b916000926000925a93612ccb6020835193612c5f85516001600160a01b031690565b95612c77612c7060408301836118c7565b90846130a7565b60a08601516001600160a01b031690612c8f43600052565b8580936001600160a01b03809416159889612e72575b6060015190860151604051633a871cdd60e01b8152978896879586939060048501612bc7565b03938a1690f1829181612e52575b50612e495750600190612cea6123ab565b6308c379a014612e0e575b50612dbf575b612d08575b50505a900391565b612d25906001600160a01b03166000526000602052604060002090565b612d3961086382546001600160701b031690565b808311612d7057612d69926001600160701b039103166001600160701b03166001600160701b0319825416179055565b3880612d00565b60408051631101335b60e11b8152600060048201526024810191909152601760448201527f41413231206469646e2774207061792070726566756e640000000000000000006064820152608490fd5b60408051631101335b60e11b8152600060048201526024810191909152601660448201527f4141323320726576657274656420286f72204f4f4729000000000000000000006064820152608490fd5b612e166123c9565b9081612e225750612cf5565b610c5391612e309150612be9565b604051631101335b60e11b815291829160048301611f52565b9550612cfb9050565b612e6b91925060203d8111611b5957611b4a81836104ab565b9038612cd9565b9450612ea4610863612e978c6001600160a01b03166000526000602052604060002090565b546001600160701b031690565b8b811115612ebb5750856060835b96915050612ca5565b606087918d03612eb2565b90926000936000935a94612f026020835193612ee985516001600160a01b031690565b95612c77612efa60408301836118c7565b90848c61330d565b03938a1690f1829181613087575b5061307e5750600190612f216123ab565b6308c379a014613041575b50612ff2575b612f40575b5050505a900391565b612f5d906001600160a01b03166000526000602052604060002090565b91612f7261086384546001600160701b031690565b90818311612fa5575082546dffffffffffffffffffffffffffff19169190036001600160701b0316179055388080612f37565b60408051631101335b60e11b815260048101929092526024820152601760448201527f41413231206469646e2774207061792070726566756e640000000000000000006064820152608490fd5b60408051631101335b60e11b8152600481018690526024810191909152601660448201527f4141323320726576657274656420286f72204f4f4729000000000000000000006064820152608490fd5b6130496123c9565b90816130555750612f2c565b86916130619150612be9565b604051631101335b60e11b8152918291610c539160048401611f6a565b9650612f329050565b6130a091925060203d8111611b5957611b4a81836104ab565b9038612f10565b9091806130b357505050565b8151516001600160a01b031692833b6132be57825160600151604051632b870d1b60e11b815290602082806130ec878760048401612364565b038160006001600160a01b0395867f00000000000000000000000000000000000000000000000000000000000000001690f19182156132b1575b600092613291575b5080821695861561324257168095036131f3573b156131a457610ebd610eb77fd51a9c61267aa6196961883ecf5ff2da6619c37dac0fa92122513fb32c032d2d93613178936121e0565b602083810151935160a00151604080516001600160a01b039485168152939091169183019190915290a3565b60408051631101335b60e11b8152600060048201526024810191909152602060448201527f4141313520696e6974436f6465206d757374206372656174652073656e6465726064820152608490fd5b60408051631101335b60e11b8152600060048201526024810191909152602060448201527f4141313420696e6974436f6465206d7573742072657475726e2073656e6465726064820152608490fd5b60408051631101335b60e11b8152600060048201526024810191909152601b60448201527f4141313320696e6974436f6465206661696c6564206f72204f4f4700000000006064820152608490fd5b6132aa91925060203d811161104a5761103b81836104ab565b903861312e565b6132b9611a1b565b613126565b60408051631101335b60e11b8152600060048201526024810191909152601f60448201527f414131302073656e64657220616c726561647920636f6e7374727563746564006064820152608490fd5b9290918161331c575b50505050565b8251516001600160a01b031693843b61352d57835160600151604051632b870d1b60e11b81529060208280613355888860048401612364565b038160006001600160a01b0395867f00000000000000000000000000000000000000000000000000000000000000001690f1918215613520575b600092613500575b508082169687156134b15716809603613462573b156134155750610ebd610eb77fd51a9c61267aa6196961883ecf5ff2da6619c37dac0fa92122513fb32c032d2d936133e2936121e0565b602083810151935160a00151604080516001600160a01b039485168152939091169183019190915290a338808080613316565b60408051631101335b60e11b815260048101929092526024820152602060448201527f4141313520696e6974436f6465206d757374206372656174652073656e6465726064820152608490fd5b60408051631101335b60e11b8152600481018490526024810191909152602060448201527f4141313420696e6974436f6465206d7573742072657475726e2073656e6465726064820152608490fd5b60408051631101335b60e11b8152600481018690526024810191909152601b60448201527f4141313320696e6974436f6465206661696c6564206f72204f4f4700000000006064820152608490fd5b61351991925060203d811161104a5761103b81836104ab565b9038613397565b613528611a1b565b61338f565b60408051631101335b60e11b815260048101929092526024820152601f60448201527f414131302073656e64657220616c726561647920636f6e7374727563746564006064820152608490fd5b1561358157565b60405162461bcd60e51b815260206004820152601f60248201527f4141343120746f6f206c6974746c6520766572696669636174696f6e476173006044820152606490fd5b919060408382031261030c57825167ffffffffffffffff811161030c5783019080601f8301121561030c578151916135fd8361051a565b9161360b60405193846104ab565b8383526020848301011161030c5760209261362b9184808501910161192a565b92015190565b906103a2602f60405180947f414133332072657665727465643a2000000000000000000000000000000000006020830152612c2d815180926020868601910161192a565b9391926060946000946000938051926136a760a08a8601519561369988881161357a565b01516001600160a01b031690565b916136c5836001600160a01b03166000526000602052604060002090565b946136da61086387546001600160701b031690565b96858810613810576001600160a01b0360208a989461371d8a966001600160701b038b61373d9e03166001600160701b03166001600160701b0319825416179055565b0151604051637a32e3bf60e11b8152998a98899788939060048501612bc7565b0395169103f19081839184936137ea575b506137e35750506001906137606123ab565b6308c379a0146137c1575b5061377257565b60408051631101335b60e11b8152600060048201526024810191909152601660448201527f4141333320726576657274656420286f72204f4f4729000000000000000000006064820152608490fd5b6137c96123c9565b90816137d5575061376b565b610c5391612e309150613631565b9450925050565b90925061380991503d8085833e61380181836104ab565b8101906135c6565b913861374e565b60408051631101335b60e11b8152600060048201526024810191909152601e60448201527f41413331207061796d6173746572206465706f73697420746f6f206c6f7700006064820152608490fd5b91949293909360609560009560009382519061388660a08b8401519361369984861161357a565b936138a4856001600160a01b03166000526000602052604060002090565b6138b861086382546001600160701b031690565b8781106139c757926001600160a01b0360208a9896939461371d8a966001600160701b038d6138ff9e9c9a03166001600160701b03166001600160701b0319825416179055565b0395169103f19081839184936139a9575b506139a15750506001906139226123ab565b6308c379a014613982575b506139355750565b60408051631101335b60e11b815260048101929092526024820152601660448201527f4141333320726576657274656420286f72204f4f4729000000000000000000006064820152608490fd5b61398a6123c9565b9081613996575061392d565b613061925050613631565b955093505050565b9092506139c091503d8085833e61380181836104ab565b9138613910565b60408051631101335b60e11b8152600481018c90526024810191909152601e60448201527f41413331207061796d6173746572206465706f73697420746f6f206c6f7700006064820152608490fd5b60031115613a2057565b634e487b7160e01b600052602160045260246000fd5b929190613a546040916002865260606020870152606086019061194d565b930152565b939291906003811015613a2057604091613a5491865260606020870152606086019061194d565b906103a2603660405180947f4141353020706f73744f702072657665727465643a20000000000000000000006020830152613ac4815180926020868601910161192a565b81010360168101855201836104ab565b929190925a93600091805191613ae98361413d565b9260a0810195613b0087516001600160a01b031690565b6001600160a01b0393908481169081613c1d57505050613b2782516001600160a01b031690565b985b5a90030193840297604084019089825110613bce577f49628fd1471006c1482da88028e9ce4dbb080b815c9b0344d39e5a8e6ec1419f94613b736020928c613bc995510390614313565b015194896020613b9b613b8d86516001600160a01b031690565b9a516001600160a01b031690565b9401519785604051968796169a16988590949392606092608083019683521515602083015260408201520152565b0390a4565b60408051631101335b60e11b8152600060048201526024810191909152602060448201527f414135312070726566756e642062656c6f772061637475616c476173436f73746064820152608490fd5b9a918051613c2d575b5050613b29565b6060850151600099509091803b15613d12579189918983613c679560405180978196829563a9a2340960e01b84528c029060048401613a36565b0393f19081613cff575b50613cfa576001613c806123ab565b6308c379a014613cdb575b613c97575b3880613c26565b60408051631101335b60e11b8152600060048201526024810191909152601260448201527110504d4c081c1bdcdd13dc081c995d995c9d60721b6064820152608490fd5b613ce36123c9565b80613cee5750613c8b565b612e30610c5391613a80565b613c90565b80610c7a613d0c9261047b565b38613c71565b8980fd5b9392915a90600092805190613d2a8261413d565b9360a0830196613d4188516001600160a01b031690565b6001600160a01b0395908681169081613e0457505050613d6884516001600160a01b031690565b915b5a9003019485029860408301908a825110613db757507f49628fd1471006c1482da88028e9ce4dbb080b815c9b0344d39e5a8e6ec1419f949392613b73613bc9938c602094510390614313565b60408051631101335b60e11b815260048101929092526024820152602060448201527f414135312070726566756e642062656c6f772061637475616c476173436f73746064820152608490fd5b93918051613e14575b5050613d6a565b606087015160009a509091803b15613ef757918a918a83613e4e9560405180978196829563a9a2340960e01b84528c029060048401613a36565b0393f19081613ee4575b50613edf576001613e676123ab565b6308c379a014613ec2575b613e7e575b3880613e0d565b60408051631101335b60e11b8152600481018d90526024810191909152601260448201527110504d4c081c1bdcdd13dc081c995d995c9d60721b6064820152608490fd5b613eca6123c9565b80613ed55750613e72565b6130618d91613a80565b613e77565b80610c7a613ef19261047b565b38613e58565b8a80fd5b909392915a94805191613f0d8361413d565b9260a0810195613f2487516001600160a01b031690565b6001600160a01b03938185169182613fe557505050613f4a82516001600160a01b031690565b985b5a90030193840297604084019089825110613bce577f49628fd1471006c1482da88028e9ce4dbb080b815c9b0344d39e5a8e6ec1419f94613f966020928c613bc995510390614313565b613f9f88613a16565b015194896020613fb9613b8d86516001600160a01b031690565b940151604080519182529815602082015297880152606087015290821695909116939081906080820190565b9a918151613ff5575b5050613f4c565b8784026140018a613a16565b60028a14614073576060860151823b1561030c5761403b93600080948d6040519788968795869363a9a2340960e01b855260048501613a59565b0393f18015614066575b614053575b505b3880613fee565b80610c7a6140609261047b565b3861404a565b61406e611a1b565b614045565b6060860151823b1561030c576140a593600080948d6040519788968795869363a9a2340960e01b855260048501613a59565b0393f1908161412a575b506141255760016140be6123ab565b6308c379a014614112575b1561404c5760408051631101335b60e11b8152600060048201526024810191909152601260448201527110504d4c081c1bdcdd13dc081c995d995c9d60721b6064820152608490fd5b61411a6123c9565b80613cee57506140c9565b61404c565b80610c7a6141379261047b565b386140af565b60e060c08201519101518082146141615748018082101561415c575090565b905090565b5090565b604051906141728261048f565b60006040838281528260208201520152565b61418c614165565b5065ffffffffffff808260a01c1680156141cb575b604051926141ae8461048f565b6001600160a01b038116845260d01c602084015216604082015290565b50806141a1565b6141e76141ed916141e1614165565b50614184565b91614184565b906001600160a01b03918282511692831561426c575b65ffffffffffff928391826040816020850151169301511693836040816020840151169201511690808410614264575b5080851161425c575b506040519561424a8761048f565b16855216602084015216604082015290565b93503861423c565b925038614233565b815181169350614203565b6001600160a01b0316600052600160205267ffffffffffffffff6142b58260401c6040600020906001600160c01b0316600052602052604060002090565b918254926142c284611c53565b9055161490565b906001600160a01b036142da6121a8565b9216600052600060205263ffffffff600160406000206001600160701b03815460781c1685520154166020830152565b6103a2336143b8565b6001600160a01b0316600052600060205260406000206001600160701b03808254169283018093116143ab575b808311614366576103a292166001600160701b03166001600160701b0319825416179055565b60405162461bcd60e51b815260206004820152601060248201527f6465706f736974206f766572666c6f77000000000000000000000000000000006044820152606490fd5b6143b3611a28565b614340565b6001600160a01b03906143cb3482614313565b168060005260006020527f2da466a7b24304f47e87fa2e1e5a81b9831ce54fec19055ce277ca2f39ba42c460206001600160701b0360406000205416604051908152a2565b1561441757565b60405162461bcd60e51b815260206004820152601a60248201527f6d757374207370656369667920756e7374616b652064656c61790000000000006044820152606490fd5b1561446357565b60405162461bcd60e51b815260206004820152601c60248201527f63616e6e6f7420646563726561736520756e7374616b652074696d65000000006044820152606490fd5b156144af57565b60405162461bcd60e51b815260206004820152601260248201527f6e6f207374616b652073706563696669656400000000000000000000000000006044820152606490fd5b156144fb57565b60405162461bcd60e51b815260206004820152600e60248201527f7374616b65206f766572666c6f770000000000000000000000000000000000006044820152606490fd5b9065ffffffffffff608060016103a29461457a6001600160701b0386511682906001600160701b03166001600160701b0319825416179055565b602085015115156eff000000000000000000000000000082549160701b16806eff00000000000000000000000000001983161783557fffffff000000000000000000000000000000ffffffffffffffffffffffffffff7cffffffffffffffffffffffffffff000000000000000000000000000000604089015160781b16921617178155019263ffffffff60608201511663ffffffff1985541617845501511669ffffffffffff0000000082549160201b169069ffffffffffff000000001916179055565b1561464557565b60405162461bcd60e51b815260206004820152601160248201527f616c726561647920756e7374616b696e670000000000000000000000000000006044820152606490fd5b91909165ffffffffffff80809416911601918211611a4c57565b156146ab57565b60405162461bcd60e51b815260206004820152601460248201527f4e6f207374616b6520746f2077697468647261770000000000000000000000006044820152606490fd5b156146f757565b60405162461bcd60e51b815260206004820152601d60248201527f6d7573742063616c6c20756e6c6f636b5374616b6528292066697273740000006044820152606490fd5b1561474357565b60405162461bcd60e51b815260206004820152601b60248201527f5374616b65207769746864726177616c206973206e6f742064756500000000006044820152606490fd5b1561478f57565b60405162461bcd60e51b815260206004820152601860248201527f6661696c656420746f207769746864726177207374616b6500000000000000006044820152606490fd5b156147db57565b60405162461bcd60e51b815260206004820152601260248201527f6661696c656420746f20776974686472617700000000000000000000000000006044820152606490fd5b816040519182372090565b9060009283809360208451940192f190565b3d610800808211614864575b50604051906020818301016040528082526000602083013e90565b905038614849565b600280541461487b5760028055565b60405162461bcd60e51b815260206004820152601f60248201527f5265656e7472616e637947756172643a207265656e7472616e742063616c6c006044820152606490fdfea26469706673582212205ac2f083d6acbe3270dc30a5673be3e97e963eafc6fd353cef661b5cea10e00764736f6c63430008110033608080604052346100165761019d908161001c8239f35b600080fdfe6080604052600436101561001257600080fd5b6000803560e01c63570e1a361461002857600080fd5b346100ab5760203660031901126100ab5760043567ffffffffffffffff918282116100ab57366023830112156100ab5781600401359283116100ab5736602484840101116100ab576100a761008084602485016100c5565b60405173ffffffffffffffffffffffffffffffffffffffff90911681529081906020820190565b0390f35b80fd5b50634e487b7160e01b600052604160045260246000fd5b90806014116101485767ffffffffffffffff91601319820183811161015a575b60405193600b8401601f19908116603f011685019081118582101761014d575b60405280845260208401903684840111610148576020946000600c819682946014880187378301015251923560601c5af190600051911561014257565b60009150565b600080fd5b6101556100ae565b610105565b6101626100ae565b6100e556fea2646970667358221220add77755b62d8efb61f4322a22e2f5f604e71decda467ccfc90f23a87612ec2564736f6c63430008110033",
  "devdoc": {
    "errors": {
      "FailedOp(uint256,string)": [
        {
          "params": {
            "opIndex": "- index into the array of ops to the failed one (in simulateValidation, this is always zero)",
            "reason": "- revert reason      The string starts with a unique code \"AAmn\", where \"m\" is \"1\" for factory, \"2\" for account and \"3\" for paymaster issues,      so a failure can be attributed to the correct entity.   Should be caught in off-chain handleOps simulation and not happen on-chain.   Useful for mitigating DoS attempts against batchers or for troubleshooting of factory/account/paymaster reverts."
          }
        }
      ],
      "ValidationResult((uint256,uint256,bool,uint48,uint48,bytes),(uint256,uint256),(uint256,uint256),(uint256,uint256))": [
        {
          "params": {
            "factoryInfo": "stake information about the factory (if any)",
            "paymasterInfo": "stake information about the paymaster (if any)",
            "returnInfo": "gas and time-range returned values",
            "senderInfo": "stake information about the sender"
          }
        }
      ],
      "ValidationResultWithAggregation((uint256,uint256,bool,uint48,uint48,bytes),(uint256,uint256),(uint256,uint256),(uint256,uint256),(address,(uint256,uint256)))": [
        {
          "params": {
            "aggregatorInfo": "signature aggregation info (if the account requires signature aggregator)      bundler MUST use it to verify the signature, or reject the UserOperation",
            "factoryInfo": "stake information about the factory (if any)",
            "paymasterInfo": "stake information about the paymaster (if any)",
            "returnInfo": "gas and time-range returned values",
            "senderInfo": "stake information about the sender"
          }
        }
      ]
    },
    "kind": "dev",
    "methods": {
      "addStake(uint32)": {
        "params": {
          "unstakeDelaySec": "the new lock duration before the deposit can be withdrawn."
        }
      },
      "getDepositInfo(address)": {
        "returns": {
          "info": "- full deposit information of given account"
        }
      },
      "getNonce(address,uint192)": {
        "params": {
          "key": "the high 192 bit of the nonce",
          "sender": "the account address"
        },
        "returns": {
          "nonce": "a full nonce to pass for next UserOp with this sender."
        }
      },
      "getSenderAddress(bytes)": {
        "params": {
          "initCode": "the constructor code to be passed into the UserOperation."
        }
      },
      "handleAggregatedOps(((address,uint256,bytes,bytes,uint256,uint256,uint256,uint256,uint256,bytes,bytes)[],address,bytes)[],address)": {
        "params": {
          "beneficiary": "the address to receive the fees",
          "opsPerAggregator": "the operations to execute, grouped by aggregator (or address(0) for no-aggregator accounts)"
        }
      },
      "handleOps((address,uint256,bytes,bytes,uint256,uint256,uint256,uint256,uint256,bytes,bytes)[],address)": {
        "params": {
          "beneficiary": "the address to receive the fees",
          "ops": "the operations to execute"
        }
      },
      "simulateHandleOp((address,uint256,bytes,bytes,uint256,uint256,uint256,uint256,uint256,bytes,bytes),address,bytes)": {
        "params": {
          "op": "the UserOperation to simulate",
          "target": "if nonzero, a target address to call after userop simulation. If called, the targetSuccess and targetResult        are set to the return from that call.",
          "targetCallData": "callData to pass to target address"
        }
      },
      "simulateValidation((address,uint256,bytes,bytes,uint256,uint256,uint256,uint256,uint256,bytes,bytes))": {
        "details": "this method always revert. Successful result is ValidationResult error. other errors are failures.The node must also verify it doesn't use banned opcodes, and that it doesn't reference storage outside the account's data.",
        "params": {
          "userOp": "the user operation to validate."
        }
      },
      "withdrawStake(address)": {
        "params": {
          "withdrawAddress": "the address to send withdrawn value."
        }
      },
      "withdrawTo(address,uint256)": {
        "params": {
          "withdrawAddress": "the address to send withdrawn value.",
          "withdrawAmount": "the amount to withdraw."
        }
      }
    },
    "version": 1
  },
  "userdoc": {
    "errors": {
      "ExecutionResult(uint256,uint256,uint48,uint48,bool,bytes)": [
        {
          "notice": "return value of simulateHandleOp"
        }
      ],
      "FailedOp(uint256,string)": [
        {
          "notice": "a custom revert error of handleOps, to identify the offending op.  NOTE: if simulateValidation passes successfully, there should be no reason for handleOps to fail on it."
        }
      ],
      "SenderAddressResult(address)": [
        {
          "notice": "return value of getSenderAddress"
        }
      ],
      "SignatureValidationFailed(address)": [
        {
          "notice": "error case when a signature aggregator fails to verify the aggregated signature it had created."
        }
      ],
      "ValidationResult((uint256,uint256,bool,uint48,uint48,bytes),(uint256,uint256),(uint256,uint256),(uint256,uint256))": [
        {
          "notice": "Successful result from simulateValidation."
        }
      ],
      "ValidationResultWithAggregation((uint256,uint256,bool,uint48,uint48,bytes),(uint256,uint256),(uint256,uint256),(uint256,uint256),(address,(uint256,uint256)))": [
        {
          "notice": "Successful result from simulateValidation, if the account returns a signature aggregator"
        }
      ]
    },
    "events": {
      "AccountDeployed(bytes32,address,address,address)": {
        "notice": "account \"sender\" was deployed."
      },
      "BeforeExecution()": {
        "notice": "an event emitted by handleOps(), before starting the execution loop. any event emitted before this event, is part of the validation."
      },
      "SignatureAggregatorChanged(address)": {
        "notice": "signature aggregator used by the following UserOperationEvents within this bundle."
      },
      "StakeLocked(address,uint256,uint256)": {
        "notice": "Emitted when stake or unstake delay are modified"
      },
      "StakeUnlocked(address,uint256)": {
        "notice": "Emitted once a stake is scheduled for withdrawal"
      },
      "UserOperationRevertReason(bytes32,address,uint256,bytes)": {
        "notice": "An event emitted if the UserOperation \"callData\" reverted with non-zero length"
      }
    },
    "kind": "user",
    "methods": {
      "SIG_VALIDATION_FAILED()": {
        "notice": "for simulation purposes, validateUserOp (and validatePaymasterUserOp) must return this value in case of signature failure, instead of revert."
      },
      "_validateSenderAndPaymaster(bytes,address,bytes)": {
        "notice": "Called only during simulation. This function always reverts to prevent warm/cold storage differentiation in simulation vs execution."
      },
      "addStake(uint32)": {
        "notice": "add to the account's stake - amount and delay any pending unstake is first cancelled."
      },
      "balanceOf(address)": {
        "notice": "return the deposit (for gas payment) of the account"
      },
      "depositTo(address)": {
        "notice": "add to the deposit of the given account"
      },
      "deposits(address)": {
        "notice": "maps paymaster to their deposits and stakes"
      },
      "getNonce(address,uint192)": {
        "notice": "Return the next nonce for this sender. Within a given key, the nonce values are sequenced (starting with zero, and incremented by one on each userop) But UserOp with different keys can come with arbitrary order."
      },
      "getSenderAddress(bytes)": {
        "notice": "Get counterfactual sender address.  Calculate the sender contract address that will be generated by the initCode and salt in the UserOperation. this method always revert, and returns the address in SenderAddressResult error"
      },
      "getUserOpHash((address,uint256,bytes,bytes,uint256,uint256,uint256,uint256,uint256,bytes,bytes))": {
        "notice": "generate a request Id - unique identifier for this request. the request ID is a hash over the content of the userOp (except the signature), the entrypoint and the chainid."
      },
      "handleAggregatedOps(((address,uint256,bytes,bytes,uint256,uint256,uint256,uint256,uint256,bytes,bytes)[],address,bytes)[],address)": {
        "notice": "Execute a batch of UserOperation with Aggregators"
      },
      "handleOps((address,uint256,bytes,bytes,uint256,uint256,uint256,uint256,uint256,bytes,bytes)[],address)": {
        "notice": "Execute a batch of UserOperations. no signature aggregator is used. if any account requires an aggregator (that is, it returned an aggregator when performing simulateValidation), then handleAggregatedOps() must be used instead."
      },
      "incrementNonce(uint192)": {
        "notice": "Manually increment the nonce of the sender. This method is exposed just for completeness.. Account does NOT need to call it, neither during validation, nor elsewhere, as the EntryPoint will update the nonce regardless. Possible use-case is call it with various keys to \"initialize\" their nonces to one, so that future UserOperations will not pay extra for the first transaction with a given key."
      },
      "innerHandleOp(bytes,((address,uint256,uint256,uint256,uint256,address,uint256,uint256),bytes32,uint256,uint256,uint256),bytes)": {
        "notice": "inner function to handle a UserOperation. Must be declared \"external\" to open a call context, but it can only be called by handleOps."
      },
      "nonceSequenceNumber(address,uint192)": {
        "notice": "The next valid sequence number for a given nonce key."
      },
      "simulateHandleOp((address,uint256,bytes,bytes,uint256,uint256,uint256,uint256,uint256,bytes,bytes),address,bytes)": {
        "notice": "simulate full execution of a UserOperation (including both validation and target execution) this method will always revert with \"ExecutionResult\". it performs full validation of the UserOperation, but ignores signature error. an optional target address is called after the userop succeeds, and its value is returned (before the entire call is reverted) Note that in order to collect the the success/failure of the target call, it must be executed with trace enabled to track the emitted events."
      },
      "simulateValidation((address,uint256,bytes,bytes,uint256,uint256,uint256,uint256,uint256,bytes,bytes))": {
        "notice": "Simulate a call to account.validateUserOp and paymaster.validatePaymasterUserOp."
      },
      "unlockStake()": {
        "notice": "attempt to unlock the stake. the value can be withdrawn (using withdrawStake) after the unstake delay."
      },
      "withdrawStake(address)": {
        "notice": "withdraw from the (unlocked) stake. must first call unlockStake and wait for the unstakeDelay to pass"
      },
      "withdrawTo(address,uint256)": {
        "notice": "withdraw from the deposit."
      }
    },
    "version": 1
  },
  "storageLayout": {
    "storage": [
      {
        "astId": 2610,
        "contract": "@account-abstraction/contracts/core/EntryPoint.sol:EntryPoint",
        "label": "deposits",
        "offset": 0,
        "slot": "0",
        "type": "t_mapping(t_address,t_struct(DepositInfo)3384_storage)"
      },
      {
        "astId": 2474,
        "contract": "@account-abstraction/contracts/core/EntryPoint.sol:EntryPoint",
        "label": "nonceSequenceNumber",
        "offset": 0,
        "slot": "1",
        "type": "t_mapping(t_address,t_mapping(t_uint192,t_uint256))"
      },
      {
        "astId": 3849,
        "contract": "@account-abstraction/contracts/core/EntryPoint.sol:EntryPoint",
        "label": "_status",
        "offset": 0,
        "slot": "2",
        "type": "t_uint256"
      }
    ],
    "types": {
      "t_address": {
        "encoding": "inplace",
        "label": "address",
        "numberOfBytes": "20"
      },
      "t_bool": {
        "encoding": "inplace",
        "label": "bool",
        "numberOfBytes": "1"
      },
      "t_mapping(t_address,t_mapping(t_uint192,t_uint256))": {
        "encoding": "mapping",
        "key": "t_address",
        "label": "mapping(address => mapping(uint192 => uint256))",
        "numberOfBytes": "32",
        "value": "t_mapping(t_uint192,t_uint256)"
      },
      "t_mapping(t_address,t_struct(DepositInfo)3384_storage)": {
        "encoding": "mapping",
        "key": "t_address",
        "label": "mapping(address => struct IStakeManager.DepositInfo)",
        "numberOfBytes": "32",
        "value": "t_struct(DepositInfo)3384_storage"
      },
      "t_mapping(t_uint192,t_uint256)": {
        "encoding": "mapping",
        "key": "t_uint192",
        "label": "mapping(uint192 => uint256)",
        "numberOfBytes": "32",
        "value": "t_uint256"
      },
      "t_struct(DepositInfo)3384_storage": {
        "encoding": "inplace",
        "label": "struct IStakeManager.DepositInfo",
        "members": [
          {
            "astId": 3375,
            "contract": "@account-abstraction/contracts/core/EntryPoint.sol:EntryPoint",
            "label": "deposit",
            "offset": 0,
            "slot": "0",
            "type": "t_uint112"
          },
          {
            "astId": 3377,
            "contract": "@account-abstraction/contracts/core/EntryPoint.sol:EntryPoint",
            "label": "staked",
            "offset": 14,
            "slot": "0",
            "type": "t_bool"
          },
          {
            "astId": 3379,
            "contract": "@account-abstraction/contracts/core/EntryPoint.sol:EntryPoint",
            "label": "stake",
            "offset": 15,
            "slot": "0",
            "type": "t_uint112"
          },
          {
            "astId": 3381,
            "contract": "@account-abstraction/contracts/core/EntryPoint.sol:EntryPoint",
            "label": "unstakeDelaySec",
            "offset": 0,
            "slot": "1",
            "type": "t_uint32"
          },
          {
            "astId": 3383,
            "contract": "@account-abstraction/contracts/core/EntryPoint.sol:EntryPoint",
            "label": "withdrawTime",
            "offset": 4,
            "slot": "1",
            "type": "t_uint48"
          }
        ],
        "numberOfBytes": "64"
      },
      "t_uint112": {
        "encoding": "inplace",
        "label": "uint112",
        "numberOfBytes": "14"
      },
      "t_uint192": {
        "encoding": "inplace",
        "label": "uint192",
        "numberOfBytes": "24"
      },
      "t_uint256": {
        "encoding": "inplace",
        "label": "uint256",
        "numberOfBytes": "32"
      },
      "t_uint32": {
        "encoding": "inplace",
        "label": "uint32",
        "numberOfBytes": "4"
      },
      "t_uint48": {
        "encoding": "inplace",
        "label": "uint48",
        "numberOfBytes": "6"
      }
    }
  }
}