{
  "address": "0xa513E6E4b8f2a923D98304ec87F64353C4D5C853",
  "abi": [
    {
      "inputs": [
        {
          "internalType": "contract IEntryPoint",
          "name": "anEntryPoint",
          "type": "address"
        }
      ],
      "stateMutability": "nonpayable",
      "type": "constructor"
    },
    {
      "inputs": [],
      "name": "AlreadyInitialized",
      "type": "error"
    },
    {
      "inputs": [],
      "name": "BaseImplementationCannotBeZero",
      "type": "error"
    },
    {
      "inputs": [
        {
          "internalType": "address",
          "name": "caller",
          "type": "address"
        }
      ],
      "name": "CallerIsNotAnEntryPoint",
      "type": "error"
    },
    {
      "inputs": [
        {
          "internalType": "address",
          "name": "caller",
          "type": "address"
        }
      ],
      "name": "CallerIsNotEntryPoint",
      "type": "error"
    },
    {
      "inputs": [
        {
          "internalType": "address",
          "name": "caller",
          "type": "address"
        }
      ],
      "name": "CallerIsNotEntryPointOrOwner",
      "type": "error"
    },
    {
      "inputs": [
        {
          "internalType": "address",
          "name": "caller",
          "type": "address"
        }
      ],
      "name": "CallerIsNotEntryPointOrSelf",
      "type": "error"
    },
    {
      "inputs": [
        {
          "internalType": "address",
          "name": "caller",
          "type": "address"
        }
      ],
      "name": "CallerIsNotOwner",
      "type": "error"
    },
    {
      "inputs": [
        {
          "internalType": "address",
          "name": "caller",
          "type": "address"
        }
      ],
      "name": "CallerIsNotSelf",
      "type": "error"
    },
    {
      "inputs": [],
      "name": "DelegateCallsOnly",
      "type": "error"
    },
    {
      "inputs": [],
      "name": "EntryPointCannotBeZero",
      "type": "error"
    },
    {
      "inputs": [],
      "name": "HandlerCannotBeZero",
      "type": "error"
    },
    {
      "inputs": [
        {
          "internalType": "address",
          "name": "implementationAddress",
          "type": "address"
        }
      ],
      "name": "InvalidImplementation",
      "type": "error"
    },
    {
      "inputs": [
        {
          "internalType": "address",
          "name": "caller",
          "type": "address"
        }
      ],
      "name": "MixedAuthFail",
      "type": "error"
    },
    {
      "inputs": [
        {
          "internalType": "address",
          "name": "module",
          "type": "address"
        }
      ],
      "name": "ModuleAlreadyEnabled",
      "type": "error"
    },
    {
      "inputs": [
        {
          "internalType": "address",
          "name": "expectedModule",
          "type": "address"
        },
        {
          "internalType": "address",
          "name": "returnedModule",
          "type": "address"
        },
        {
          "internalType": "address",
          "name": "prevModule",
          "type": "address"
        }
      ],
      "name": "ModuleAndPrevModuleMismatch",
      "type": "error"
    },
    {
      "inputs": [
        {
          "internalType": "address",
          "name": "module",
          "type": "address"
        }
      ],
      "name": "ModuleCannotBeZeroOrSentinel",
      "type": "error"
    },
    {
      "inputs": [
        {
          "internalType": "address",
          "name": "module",
          "type": "address"
        }
      ],
      "name": "ModuleNotEnabled",
      "type": "error"
    },
    {
      "inputs": [],
      "name": "ModulesAlreadyInitialized",
      "type": "error"
    },
    {
      "inputs": [],
      "name": "ModulesSetupExecutionFailed",
      "type": "error"
    },
    {
      "inputs": [],
      "name": "OwnerCanNotBeSelf",
      "type": "error"
    },
    {
      "inputs": [],
      "name": "OwnerCannotBeZero",
      "type": "error"
    },
    {
      "inputs": [],
      "name": "OwnerProvidedIsSame",
      "type": "error"
    },
    {
      "inputs": [],
      "name": "TransferToZeroAddressAttempt",
      "type": "error"
    },
    {
      "inputs": [
        {
          "internalType": "uint256",
          "name": "destLength",
          "type": "uint256"
        },
        {
          "internalType": "uint256",
          "name": "valueLength",
          "type": "uint256"
        },
        {
          "internalType": "uint256",
          "name": "funcLength",
          "type": "uint256"
        },
        {
          "internalType": "uint256",
          "name": "operationLength",
          "type": "uint256"
        }
      ],
      "name": "WrongBatchProvided",
      "type": "error"
    },
    {
      "inputs": [
        {
          "internalType": "bytes",
          "name": "contractSignature",
          "type": "bytes"
        }
      ],
      "name": "WrongContractSignature",
      "type": "error"
    },
    {
      "inputs": [
        {
          "internalType": "uint256",
          "name": "uintS",
          "type": "uint256"
        },
        {
          "internalType": "uint256",
          "name": "contractSignatureLength",
          "type": "uint256"
        },
        {
          "internalType": "uint256",
          "name": "signatureLength",
          "type": "uint256"
        }
      ],
      "name": "WrongContractSignatureFormat",
      "type": "error"
    },
    {
      "inputs": [
        {
          "internalType": "address",
          "name": "moduleAddressProvided",
          "type": "address"
        }
      ],
      "name": "WrongValidationModule",
      "type": "error"
    },
    {
      "anonymous": false,
      "inputs": [
        {
          "indexed": true,
          "internalType": "address",
          "name": "previousHandler",
          "type": "address"
        },
        {
          "indexed": true,
          "internalType": "address",
          "name": "handler",
          "type": "address"
        }
      ],
      "name": "ChangedFallbackHandler",
      "type": "event"
    },
    {
      "anonymous": false,
      "inputs": [
        {
          "indexed": false,
          "internalType": "address",
          "name": "module",
          "type": "address"
        }
      ],
      "name": "DisabledModule",
      "type": "event"
    },
    {
      "anonymous": false,
      "inputs": [
        {
          "indexed": false,
          "internalType": "address",
          "name": "module",
          "type": "address"
        }
      ],
      "name": "EnabledModule",
      "type": "event"
    },
    {
      "anonymous": false,
      "inputs": [
        {
          "indexed": true,
          "internalType": "address",
          "name": "to",
          "type": "address"
        },
        {
          "indexed": true,
          "internalType": "uint256",
          "name": "value",
          "type": "uint256"
        },
        {
          "indexed": true,
          "internalType": "bytes",
          "name": "data",
          "type": "bytes"
        },
        {
          "indexed": false,
          "internalType": "enum Enum.Operation",
          "name": "operation",
          "type": "uint8"
        },
        {
          "indexed": false,
          "internalType": "uint256",
          "name": "txGas",
          "type": "uint256"
        }
      ],
      "name": "ExecutionFailure",
      "type": "event"
    },
    {
      "anonymous": false,
      "inputs": [
        {
          "indexed": true,
          "internalType": "address",
          "name": "module",
          "type": "address"
        }
      ],
      "name": "ExecutionFromModuleFailure",
      "type": "event"
    },
    {
      "anonymous": false,
      "inputs": [
        {
          "indexed": true,
          "internalType": "address",
          "name": "module",
          "type": "address"
        }
      ],
      "name": "ExecutionFromModuleSuccess",
      "type": "event"
    },
    {
      "anonymous": false,
      "inputs": [
        {
          "indexed": true,
          "internalType": "address",
          "name": "to",
          "type": "address"
        },
        {
          "indexed": true,
          "internalType": "uint256",
          "name": "value",
          "type": "uint256"
        },
        {
          "indexed": true,
          "internalType": "bytes",
          "name": "data",
          "type": "bytes"
        },
        {
          "indexed": false,
          "internalType": "enum Enum.Operation",
          "name": "operation",
          "type": "uint8"
        },
        {
          "indexed": false,
          "internalType": "uint256",
          "name": "txGas",
          "type": "uint256"
        }
      ],
      "name": "ExecutionSuccess",
      "type": "event"
    },
    {
      "anonymous": false,
      "inputs": [
        {
          "indexed": true,
          "internalType": "address",
          "name": "oldImplementation",
          "type": "address"
        },
        {
          "indexed": true,
          "internalType": "address",
          "name": "newImplementation",
          "type": "address"
        }
      ],
      "name": "ImplementationUpdated",
      "type": "event"
    },
    {
      "anonymous": false,
      "inputs": [
        {
          "indexed": false,
          "internalType": "address",
          "name": "module",
          "type": "address"
        },
        {
          "indexed": false,
          "internalType": "address",
          "name": "to",
          "type": "address"
        },
        {
          "indexed": false,
          "internalType": "uint256",
          "name": "value",
          "type": "uint256"
        },
        {
          "indexed": false,
          "internalType": "bytes",
          "name": "data",
          "type": "bytes"
        },
        {
          "indexed": false,
          "internalType": "enum Enum.Operation",
          "name": "operation",
          "type": "uint8"
        }
      ],
      "name": "ModuleTransaction",
      "type": "event"
    },
    {
      "anonymous": false,
      "inputs": [
        {
          "indexed": true,
          "internalType": "address",
          "name": "sender",
          "type": "address"
        },
        {
          "indexed": true,
          "internalType": "uint256",
          "name": "value",
          "type": "uint256"
        }
      ],
      "name": "SmartAccountReceivedNativeToken",
      "type": "event"
    },
    {
      "stateMutability": "nonpayable",
      "type": "fallback"
    },
    {
      "inputs": [],
      "name": "VERSION",
      "outputs": [
        {
          "internalType": "string",
          "name": "",
          "type": "string"
        }
      ],
      "stateMutability": "view",
      "type": "function"
    },
    {
      "inputs": [],
      "name": "addDeposit",
      "outputs": [],
      "stateMutability": "payable",
      "type": "function"
    },
    {
      "inputs": [
        {
          "internalType": "address",
          "name": "prevModule",
          "type": "address"
        },
        {
          "internalType": "address",
          "name": "module",
          "type": "address"
        }
      ],
      "name": "disableModule",
      "outputs": [],
      "stateMutability": "nonpayable",
      "type": "function"
    },
    {
      "inputs": [
        {
          "internalType": "address",
          "name": "module",
          "type": "address"
        }
      ],
      "name": "enableModule",
      "outputs": [],
      "stateMutability": "nonpayable",
      "type": "function"
    },
    {
      "inputs": [],
      "name": "entryPoint",
      "outputs": [
        {
          "internalType": "contract IEntryPoint",
          "name": "",
          "type": "address"
        }
      ],
      "stateMutability": "view",
      "type": "function"
    },
    {
      "inputs": [
        {
          "internalType": "address[]",
          "name": "to",
          "type": "address[]"
        },
        {
          "internalType": "uint256[]",
          "name": "value",
          "type": "uint256[]"
        },
        {
          "internalType": "bytes[]",
          "name": "data",
          "type": "bytes[]"
        },
        {
          "internalType": "enum Enum.Operation[]",
          "name": "operations",
          "type": "uint8[]"
        }
      ],
      "name": "execBatchTransactionFromModule",
      "outputs": [
        {
          "internalType": "bool",
          "name": "success",
          "type": "bool"
        }
      ],
      "stateMutability": "nonpayable",
      "type": "function"
    },
    {
      "inputs": [
        {
          "internalType": "address",
          "name": "to",
          "type": "address"
        },
        {
          "internalType": "uint256",
          "name": "value",
          "type": "uint256"
        },
        {
          "internalType": "bytes",
          "name": "data",
          "type": "bytes"
        },
        {
          "internalType": "enum Enum.Operation",
          "name": "operation",
          "type": "uint8"
        },
        {
          "internalType": "uint256",
          "name": "txGas",
          "type": "uint256"
        }
      ],
      "name": "execTransactionFromModule",
      "outputs": [
        {
          "internalType": "bool",
          "name": "success",
          "type": "bool"
        }
      ],
      "stateMutability": "nonpayable",
      "type": "function"
    },
    {
      "inputs": [
        {
          "internalType": "address",
          "name": "to",
          "type": "address"
        },
        {
          "internalType": "uint256",
          "name": "value",
          "type": "uint256"
        },
        {
          "internalType": "bytes",
          "name": "data",
          "type": "bytes"
        },
        {
          "internalType": "enum Enum.Operation",
          "name": "operation",
          "type": "uint8"
        }
      ],
      "name": "execTransactionFromModule",
      "outputs": [
        {
          "internalType": "bool",
          "name": "",
          "type": "bool"
        }
      ],
      "stateMutability": "nonpayable",
      "type": "function"
    },
    {
      "inputs": [
        {
          "internalType": "address",
          "name": "to",
          "type": "address"
        },
        {
          "internalType": "uint256",
          "name": "value",
          "type": "uint256"
        },
        {
          "internalType": "bytes",
          "name": "data",
          "type": "bytes"
        },
        {
          "internalType": "enum Enum.Operation",
          "name": "operation",
          "type": "uint8"
        }
      ],
      "name": "execTransactionFromModuleReturnData",
      "outputs": [
        {
          "internalType": "bool",
          "name": "success",
          "type": "bool"
        },
        {
          "internalType": "bytes",
          "name": "returnData",
          "type": "bytes"
        }
      ],
      "stateMutability": "nonpayable",
      "type": "function"
    },
    {
      "inputs": [
        {
          "internalType": "address",
          "name": "dest",
          "type": "address"
        },
        {
          "internalType": "uint256",
          "name": "value",
          "type": "uint256"
        },
        {
          "internalType": "bytes",
          "name": "func",
          "type": "bytes"
        }
      ],
      "name": "execute",
      "outputs": [],
      "stateMutability": "nonpayable",
      "type": "function"
    },
    {
      "inputs": [
        {
          "internalType": "address[]",
          "name": "dest",
          "type": "address[]"
        },
        {
          "internalType": "uint256[]",
          "name": "value",
          "type": "uint256[]"
        },
        {
          "internalType": "bytes[]",
          "name": "func",
          "type": "bytes[]"
        }
      ],
      "name": "executeBatch",
      "outputs": [],
      "stateMutability": "nonpayable",
      "type": "function"
    },
    {
      "inputs": [
        {
          "internalType": "address[]",
          "name": "dest",
          "type": "address[]"
        },
        {
          "internalType": "uint256[]",
          "name": "value",
          "type": "uint256[]"
        },
        {
          "internalType": "bytes[]",
          "name": "func",
          "type": "bytes[]"
        }
      ],
      "name": "executeBatch_y6U",
      "outputs": [],
      "stateMutability": "nonpayable",
      "type": "function"
    },
    {
      "inputs": [
        {
          "internalType": "address",
          "name": "dest",
          "type": "address"
        },
        {
          "internalType": "uint256",
          "name": "value",
          "type": "uint256"
        },
        {
          "internalType": "bytes",
          "name": "func",
          "type": "bytes"
        }
      ],
      "name": "execute_ncC",
      "outputs": [],
      "stateMutability": "nonpayable",
      "type": "function"
    },
    {
      "inputs": [],
      "name": "getDeposit",
      "outputs": [
        {
          "internalType": "uint256",
          "name": "",
          "type": "uint256"
        }
      ],
      "stateMutability": "view",
      "type": "function"
    },
    {
      "inputs": [],
      "name": "getFallbackHandler",
      "outputs": [
        {
          "internalType": "address",
          "name": "_handler",
          "type": "address"
        }
      ],
      "stateMutability": "view",
      "type": "function"
    },
    {
      "inputs": [],
      "name": "getImplementation",
      "outputs": [
        {
          "internalType": "address",
          "name": "_implementation",
          "type": "address"
        }
      ],
      "stateMutability": "view",
      "type": "function"
    },
    {
      "inputs": [
        {
          "internalType": "address",
          "name": "start",
          "type": "address"
        },
        {
          "internalType": "uint256",
          "name": "pageSize",
          "type": "uint256"
        }
      ],
      "name": "getModulesPaginated",
      "outputs": [
        {
          "internalType": "address[]",
          "name": "array",
          "type": "address[]"
        },
        {
          "internalType": "address",
          "name": "next",
          "type": "address"
        }
      ],
      "stateMutability": "view",
      "type": "function"
    },
    {
      "inputs": [
        {
          "internalType": "address",
          "name": "handler",
          "type": "address"
        },
        {
          "internalType": "address",
          "name": "sessionKeyModuleContract",
          "type": "address"
        },
        {
          "internalType": "address",
          "name": "authModuleSetupContract",
          "type": "address"
        },
        {
          "internalType": "bytes",
          "name": "authModuleSetupData",
          "type": "bytes"
        }
      ],
      "name": "init",
      "outputs": [
        {
          "internalType": "address",
          "name": "authAddress",
          "type": "address"
        }
      ],
      "stateMutability": "nonpayable",
      "type": "function"
    },
    {
      "inputs": [
        {
          "internalType": "address",
          "name": "module",
          "type": "address"
        }
      ],
      "name": "isModuleEnabled",
      "outputs": [
        {
          "internalType": "bool",
          "name": "",
          "type": "bool"
        }
      ],
      "stateMutability": "view",
      "type": "function"
    },
    {
      "inputs": [
        {
          "internalType": "bytes32",
          "name": "dataHash",
          "type": "bytes32"
        },
        {
          "internalType": "bytes",
          "name": "signature",
          "type": "bytes"
        }
      ],
      "name": "isValidSignature",
      "outputs": [
        {
          "internalType": "bytes4",
          "name": "",
          "type": "bytes4"
        }
      ],
      "stateMutability": "view",
      "type": "function"
    },
    {
      "inputs": [
        {
          "internalType": "uint192",
          "name": "_key",
          "type": "uint192"
        }
      ],
      "name": "nonce",
      "outputs": [
        {
          "internalType": "uint256",
          "name": "",
          "type": "uint256"
        }
      ],
      "stateMutability": "view",
      "type": "function"
    },
    {
      "inputs": [
        {
          "internalType": "uint256",
          "name": "",
          "type": "uint256"
        }
      ],
      "name": "noncesDeprecated",
      "outputs": [
        {
          "internalType": "uint256",
          "name": "",
          "type": "uint256"
        }
      ],
      "stateMutability": "view",
      "type": "function"
    },
    {
      "inputs": [],
      "name": "ownerDeprecated",
      "outputs": [
        {
          "internalType": "address",
          "name": "",
          "type": "address"
        }
      ],
      "stateMutability": "view",
      "type": "function"
    },
    {
      "inputs": [
        {
          "internalType": "address",
          "name": "handler",
          "type": "address"
        }
      ],
      "name": "setFallbackHandler",
      "outputs": [],
      "stateMutability": "nonpayable",
      "type": "function"
    },
    {
      "inputs": [
        {
          "internalType": "address",
          "name": "setupContract",
          "type": "address"
        },
        {
          "internalType": "bytes",
          "name": "setupData",
          "type": "bytes"
        }
      ],
      "name": "setupAndEnableModule",
      "outputs": [
        {
          "internalType": "address",
          "name": "",
          "type": "address"
        }
      ],
      "stateMutability": "nonpayable",
      "type": "function"
    },
    {
      "inputs": [
        {
          "internalType": "bytes4",
          "name": "_interfaceId",
          "type": "bytes4"
        }
      ],
      "name": "supportsInterface",
      "outputs": [
        {
          "internalType": "bool",
          "name": "",
          "type": "bool"
        }
      ],
      "stateMutability": "view",
      "type": "function"
    },
    {
      "inputs": [
        {
          "internalType": "address",
          "name": "_implementation",
          "type": "address"
        }
      ],
      "name": "updateImplementation",
      "outputs": [],
      "stateMutability": "nonpayable",
      "type": "function"
    },
    {
      "inputs": [
        {
          "components": [
            {
              "internalType": "address",
              "name": "sender",
              "type": "address"
            },
            {
              "internalType": "uint256",
              "name": "nonce",
              "type": "uint256"
            },
            {
              "internalType": "bytes",
              "name": "initCode",
              "type": "bytes"
            },
            {
              "internalType": "bytes",
              "name": "callData",
              "type": "bytes"
            },
            {
              "internalType": "uint256",
              "name": "callGasLimit",
              "type": "uint256"
            },
            {
              "internalType": "uint256",
              "name": "verificationGasLimit",
              "type": "uint256"
            },
            {
              "internalType": "uint256",
              "name": "preVerificationGas",
              "type": "uint256"
            },
            {
              "internalType": "uint256",
              "name": "maxFeePerGas",
              "type": "uint256"
            },
            {
              "internalType": "uint256",
              "name": "maxPriorityFeePerGas",
              "type": "uint256"
            },
            {
              "internalType": "bytes",
              "name": "paymasterAndData",
              "type": "bytes"
            },
            {
              "internalType": "bytes",
              "name": "signature",
              "type": "bytes"
            }
          ],
          "internalType": "struct UserOperation",
          "name": "userOp",
          "type": "tuple"
        },
        {
          "internalType": "bytes32",
          "name": "userOpHash",
          "type": "bytes32"
        },
        {
          "internalType": "uint256",
          "name": "missingAccountFunds",
          "type": "uint256"
        }
      ],
      "name": "validateUserOp",
      "outputs": [
        {
          "internalType": "uint256",
          "name": "validationData",
          "type": "uint256"
        }
      ],
      "stateMutability": "nonpayable",
      "type": "function"
    },
    {
      "inputs": [
        {
          "internalType": "address payable",
          "name": "withdrawAddress",
          "type": "address"
        },
        {
          "internalType": "uint256",
          "name": "amount",
          "type": "uint256"
        }
      ],
      "name": "withdrawDepositTo",
      "outputs": [],
      "stateMutability": "payable",
      "type": "function"
    },
    {
      "stateMutability": "payable",
      "type": "receive"
    }
  ],
  "transactionHash": "0x134eb8b45cf1cb2603264824d81f9708c3916d303fc7b9dd66b10c6ffe35a0d4",
  "args": [
    "0x5FC8d32690cc91D4c39d9d3abcBD16989F875707"
  ],
  "numDeployments": 1,
  "solcInputHash": "66929e62e058f56fd12897526c075a13",
  "bytecode": "0x60c0346100fc57601f61214d38819003918201601f19168301916001600160401b03831184841017610101578084926020946040528339810103126100fc57516001600160a01b0381168082036100fc573060a052156100ea57608052600160008181526020527fada5013122d395ba3c54772283fb069b10426056ef8ca54750cb9bb552a59e7d80546001600160a01b03191690911790556040516120359081610118823960805181818161080e01528181610a0501528181610aa601528181610dc401528181610e1701528181611041015281816118c0015261191b015260a051816114620152f35b60405163091748f960e21b8152600490fd5b600080fd5b634e487b7160e01b600052604160045260246000fdfe60806040526004361015610030575b361561002857346100235761002161195b565b005b600080fd5b610021611458565b60003560e01c8061189a146101bc57806146801461021f57806301ffc9a71461025e578063025b22bc146102555780631626ba7e1461024c57806321632045146102435780632d9ad53d1461023a5780633a871cdd14610231578063468721a71461022857806347e1da2a1461021f5780634a58db19146102165780634d44560d1461020d5780635229073f146102045780635305dd27146101fb578063610b5925146101f25780636424e9fe146101e9578063856dfd99146101e0578063aaf10f42146101d7578063acfdf503146101ce578063b0d691fe146101c5578063b61d27f6146101bc578063c399ec88146101b3578063cc2f8452146101aa578063d86f2b3c146101a1578063dfdfbd0b14610198578063e009cfde1461018f578063f08a032314610186578063f33623b11461017d5763ffa1ad740361000e576101786113be565b61000e565b50610178611391565b50610178611363565b506101786111ab565b506101786110af565b50610178610fdd565b50610178610edb565b50610178610de8565b506101786102b3565b50610178610da3565b50610178610d00565b50610178610cd9565b50610178610c92565b50610178610c6a565b50610178610c3c565b50610178610bd0565b50610178610b4e565b50610178610a77565b506101786109ed565b50610178610342565b5061017861099f565b506101786107c8565b5061017861076a565b506101786106ab565b5061017861064f565b5061017861049d565b50610178610461565b6001600160a01b0381160361002357565b359061028382610267565b565b9181601f840112156100235782359167ffffffffffffffff8311610023576020838186019501011161002357565b5034610023576060366003190112610023576004356102d181610267565b6044359067ffffffffffffffff8211610023576103076102f8610021933690600401610285565b610300611911565b36916105fa565b9060243590611892565b9181601f840112156100235782359167ffffffffffffffff8311610023576020808501948460051b01011161002357565b50346100235760603660031901126100235767ffffffffffffffff60043581811161002357610375903690600401610311565b906024358381116100235761038e903690600401610311565b93604435908111610023576103a7903690600401610311565b926103b0611911565b84158015610445575b801561043b575b61040f5760005b8581106103d057005b806104096103e96103e46001948a876116ca565b6116e8565b6103f4838b896116ca565b35610403610300858b8a6116f2565b91611892565b016103c7565b5050506084926040519263470c355760e01b845260048401526024830152604482015260006064820152fd5b50838614156103c0565b50858514156103b9565b6001600160e01b031981160361002357565b50346100235760203660031901126100235760206004356104818161044f565b6040516001600160e01b03199091166301ffc9a760e01b148152f35b5034610023576020366003190112610023576004356104bb81610267565b6104c36118b6565b6001600160a01b0380821691821561053057803b15610509573054903055167faa3f731066a578e5f39b4215468d826cdd15373cbc0dfc9cb9bdc649718ef7da600080a3005b604051630c76093760e01b81526001600160a01b03919091166004820152602490fd5b0390fd5b60405162461bcd60e51b815260206004820152601660248201527f416464726573732063616e6e6f74206265207a65726f000000000000000000006044820152606490fd5b50634e487b7160e01b600052604160045260246000fd5b67ffffffffffffffff81116105a057604052565b6105a8610575565b604052565b90601f8019910116810190811067ffffffffffffffff8211176105a057604052565b60209067ffffffffffffffff81116105ed575b601f01601f19160190565b6105f5610575565b6105e2565b929192610606826105cf565b9161061460405193846105ad565b829481845281830111610023578281602093846000960137010152565b9080601f830112156100235781602061064c933591016105fa565b90565b50346100235760403660031901126100235760243567ffffffffffffffff81116100235761068e6106866020923690600401610631565b6004356117b9565b6040516001600160e01b03199091168152f35b6002111561002357565b50346100235760a0366003190112610023576004356106c981610267565b60443567ffffffffffffffff8111610023576106e9903690600401610631565b90606435906106f7826106a1565b6084359160013314801561074b575b61073357602093610723938061072d57505a925b60243590611adf565b6040519015158152f35b9261071a565b6040516321ac7c5f60e01b8152336004820152602490fd5b503360005260006020526001600160a01b036040600020541615610706565b503461002357602036600319011261002357602060043561078a81610267565b6001600160a01b0380911690816001141591826107ae575b50506040519015158152f35b9091506000526000825260406000205416151538806107a2565b503461002357600319606036820112610023576004359067ffffffffffffffff82116100235761016082600401918336030112610023576000906001600160a01b0392837f000000000000000000000000000000000000000000000000000000000000000016330361093e5761084e610846610144869301846114c2565b8101906114f5565b9050169261087f610872856001600160a01b03166000526000602052604060002090565b546001600160a01b031690565b161561091d5760206108b06108de948493604051948580948193637ff9adb960e11b8352602435906004840161157f565b03925af1918215610910575b916108e2575b506108ce604435611676565b6040519081529081906020820190565b0390f35b610903915060203d8111610909575b6108fb81836105ad565b81019061143c565b386108c2565b503d6108f1565b61091861144b565b6108bc565b6040516326cc3fab60e21b81526001600160a01b0384166004820152602490fd5b604051635dac3db760e11b8152336004820152602490fd5b60806003198201126100235760043561096e81610267565b91602435916044359067ffffffffffffffff82116100235761099291600401610631565b9060643561064c816106a1565b5034610023576109ae36610956565b6001939193331480156109ce575b61073357602093610723935a93611adf565b503360005260006020526001600160a01b0360406000205416156109bc565b50600080600319360112610a74576001600160a01b037f00000000000000000000000000000000000000000000000000000000000000001681813b15610a745760405163b760faf960e01b8152306004820152918290602490829034905af18015610a67575b610a5b575080f35b610a649061058c565b80f35b610a6f61144b565b610a53565b80fd5b5060006040366003190112610a7457600435610a9281610267565b610a9a6118b6565b816001600160a01b03807f00000000000000000000000000000000000000000000000000000000000000001692833b15610b025760449083604051958694859363040b850f60e31b855216600484015260243560248401525af18015610a6757610a5b575080f35b8280fd5b60005b838110610b195750506000910152565b8181015183820152602001610b09565b90602091610b4281518092818552858086019101610b06565b601f01601f1916010190565b503461002357610b5d36610956565b90600193929333148015610bb1575b61073357610b7b935a93611adf565b6040519060203d8301016040523d82523d6000602084013e6108de60405192839215158352604060208401526040830190610b29565b503360005260006020526001600160a01b036040600020541615610b6c565b503461002357604036600319011261002357600435610bee81610267565b60243567ffffffffffffffff811161002357602091610c14610c22923690600401610631565b90610c1d6118b6565b611f89565b610c2b81611ced565b6001600160a01b0360405191168152f35b503461002357602036600319011261002357610021600435610c5d81610267565b610c656118b6565b611ced565b50346100235760003660031901126100235760206001600160a01b0360315416604051908152f35b50346100235760003660031901126100235760207f6c9a6c4a39284e37ed1cf53d337577d14212a4870fb976a4366c693b939918d4546001600160a01b0360405191168152f35b503461002357600036600319011261002357602030546001600160a01b0360405191168152f35b50346100235760803660031901126100235767ffffffffffffffff60043581811161002357610d33903690600401610311565b60249291923582811161002357610d4e903690600401610311565b60449491943584811161002357610d69903690600401610311565b91606435958611610023576108de96610d89610d91973690600401610311565b969095611ba7565b60405190151581529081906020820190565b50346100235760003660031901126100235760206040516001600160a01b037f0000000000000000000000000000000000000000000000000000000000000000168152f35b5034610023576000366003190112610023576040516370a0823160e01b815230600482015260209081816024817f00000000000000000000000000000000000000000000000000000000000000006001600160a01b03165afa908115610e77575b600091610e5a575b50604051908152f35b610e719150823d8111610909576108fb81836105ad565b38610e51565b610e7f61144b565b610e49565b90929192604082016040835281518091526060830160208093019160005b84828210610ebe575050506001600160a01b0391509416910152565b84516001600160a01b031684529384019390920191600101610ea2565b503461002357604036600319011261002357600435610ef981610267565b602435610f0581611a1b565b610f1260405191826105ad565b818152601f19610f2183611a1b565b01366020830137610f4a6108726000946001600160a01b03166000526000602052604060002090565b6001600160a01b0381168015159081610fd1575b5080610fc8575b15610fb557610fa961087282610f90610faf94610f828988611a3c565b906001600160a01b03169052565b6001600160a01b03166000526000602052604060002090565b93611a5e565b92610f4a565b908381526108de60405192839283610e84565b50828410610f65565b60019150141538610f5e565b50346100235760203660031901126100235760043577ffffffffffffffffffffffffffffffffffffffffffffffff8116809103610023576108de9060405190631aab3f0d60e11b825230600483015260248201526020816044816001600160a01b037f0000000000000000000000000000000000000000000000000000000000000000165afa9081156110a2575b600091611084575b506040519081529081906020820190565b61109c915060203d8111610909576108fb81836105ad565b38611073565b6110aa61144b565b61106b565b5034610023576080366003190112610023576004356110cd81610267565b6024356110d981610267565b6044356110e581610267565b60643567ffffffffffffffff811161002357611105903690600401610285565b9091600160005260006020526001600160a01b038060406000205416159081159161117e575b5061116d576111476111539361114d936103006108de986119a9565b90611eff565b91611ced565b6040516001600160a01b0390911681529081906020820190565b60405162dc149f60e41b8152600490fd5b90507f6c9a6c4a39284e37ed1cf53d337577d14212a4870fb976a4366c693b939918d4541615153861112b565b5034610023576040366003190112610023576004356111c981610267565b6024356111d581610267565b6111dd6118b6565b6001600160a01b03811680158015611359575b61133857611223611217610872856001600160a01b03166000526000602052604060002090565b6001600160a01b031690565b036112de57806112a97faab4fa2b463f581b2b32cb3b7e3b704b9ce37cc209b5fb4d77e593ace40542769361128e6112746108726112d9966001600160a01b03166000526000602052604060002090565b916001600160a01b03166000526000602052604060002090565b906001600160a01b03166001600160a01b0319825416179055565b6111536112c9826001600160a01b03166000526000602052604060002090565b6001600160a01b03198154169055565b0390a1005b61052c611301610872846001600160a01b03166000526000602052604060002090565b604051633103525b60e21b81526001600160a01b039384166004820152908316602482015292909116604483015281906064820190565b60405163cadb248f60e01b81526001600160a01b0383166004820152602490fd5b50600181146111f0565b50346100235760203660031901126100235761002160043561138481610267565b61138c6118b6565b6119a9565b50346100235760203660031901126100235760043560005260326020526020604060002054604051908152f35b5034610023576000366003190112610023576108de6040516040810181811067ffffffffffffffff82111761142f575b604052600581527f322e302e300000000000000000000000000000000000000000000000000000006020820152604051918291602083526020830190610b29565b611437610575565b6113ee565b90816020910312610023575190565b506040513d6000823e3d90fd5b6001600160a01b037f00000000000000000000000000000000000000000000000000000000000000001630146114b05734337ed05ab44e279ac59e855cb75dc2ae23b200ad994797b6f1f028f96a46ecce02600080a3565b604051633c97166560e21b8152600490fd5b903590601e1981360301821215610023570180359067ffffffffffffffff82116100235760200191813603831361002357565b919060408382031261002357823567ffffffffffffffff811161002357602091611520918501610631565b92013561064c81610267565b9035601e198236030181121561002357016020813591019167ffffffffffffffff821161002357813603831361002357565b908060209392818452848401376000828201840152601f01601f1916010190565b9291906116716115dc602092604087526115ac6040880161159f83610278565b6001600160a01b03169052565b8381013560608801526116616115c5604083018361152c565b9390610160948560808c01526101a08b019161155e565b916116586116046115f0606084018461152c565b603f198d8803810160a08f0152969161155e565b608083013560c08c015260a083013560e08c01528a6101009660c08501358883015261164861012060e087013581850152610140998701358a85015286018661152c565b929091888286030191015261155e565b9381019061152c565b918884030161018089015261155e565b930152565b8061167e5750565b600080808093338219f1503d15610283573d611699816105cf565b906116a760405192836105ad565b8152600060203d92013e565b50634e487b7160e01b600052603260045260246000fd5b91908110156116db575b60051b0190565b6116e36116b3565b6116d4565b3561064c81610267565b909161170b9281101561170f575b60051b8101906114c2565b9091565b6117176116b3565b611700565b919060408382031261002357825167ffffffffffffffff81116100235783019080601f8301121561002357815191611753836105cf565b9161176160405193846105ad565b838352602084830101116100235760209261178191848085019101610b06565b92015161064c81610267565b90816020910312610023575161064c8161044f565b60409061064c939281528160208201520190610b29565b906117cd906020808251830101910161171c565b90916001600160a01b03809216916117fb610872846001600160a01b03166000526000602052604060002090565b1615611871579160209161182593604051809581948293630b135d3f60e11b8452600484016117a2565b03915afa908115611864575b60009161183c575090565b61064c915060203d811161185d575b61185581836105ad565b81019061178d565b503d61184b565b61186c61144b565b611831565b6040516326cc3fab60e21b81526001600160a01b0383166004820152602490fd5b916000928392602083519301915af1604051903d6000833e156118b25750565b3d90fd5b6001600160a01b037f00000000000000000000000000000000000000000000000000000000000000001633141580611907575b6118ef57565b604051634776242160e01b8152336004820152602490fd5b50303314156118e9565b6001600160a01b037f000000000000000000000000000000000000000000000000000000000000000016330361194357565b60405163e6fce6a560e01b8152336004820152602490fd5b507f6c9a6c4a39284e37ed1cf53d337577d14212a4870fb976a4366c693b939918d4548015610021576000808092368280373360601b3652818060143601925af13d82803e156118b2573d90f35b6001600160a01b03808216918215611a09577f6c9a6c4a39284e37ed1cf53d337577d14212a4870fb976a4366c693b939918d49081549155167f06be9a1bea257286cf2afa8205ed494ca9d6a4b41aa58d04238deebada20fb0c600080a3565b60405163dd449f5f60e01b8152600490fd5b60209067ffffffffffffffff8111611a345760051b0190565b6116e3610575565b6020918151811015611a51575b60051b010190565b611a596116b3565b611a49565b6000198114611a6d5760010190565b634e487b7160e01b600052601160045260246000fd5b611a9b90602060405192828480945193849201610b06565b810103902090565b906002821015611ab05752565b634e487b7160e01b600052602160045260246000fd5b60209093929193611adb816040810196611aa3565b0152565b9493929091946002821015611ab05760018203611b8a576000808751602089018488f4955b8615611b54577f81d12fffced46c214dfae8ab8fa0b9f7b69f70c9d500e33f612f2105deb261ee91611b4f611b406001600160a01b0393611a83565b96604051938493169583611ac6565b0390a4565b7f3ddd038f78c876172d5dbfd730b14c9f8692dfa197ef104eaac6df3f85a0874a91611b4f611b406001600160a01b0393611a83565b600080875160208901868589f195611b04565b3561064c816106a1565b9497969391929795909560009887158015611ce3575b8015611cd9575b8015611ccf575b611ca0576001978833148015611c70575b6107335797969594939291906000985b808a10611bff5750505050505050505050565b9091929394959697899b50611c60888888611c5a89869f8f81611c45818e611c3e8f968f97611c386103e483611c529b611c4d9b6116ca565b9c6116ca565b35986116f2565b9890946116ca565b611b9d565b9436916105fa565b91611e30565b9b01989796959493929190611bec565b506001600160a01b03611c99610872336001600160a01b03166000526000602052604060002090565b1615611bdc565b60405163470c355760e01b81526004810189905260248101919091526044810182905260648101869052608490fd5b5085821415611bcb565b5081811415611bc4565b5080881415611bbd565b6001600160a01b0381168015908115611e25575b50611e0257611d29611217610872836001600160a01b03166000526000602052604060002090565b611ddf57600160009081526020527fecdf3a3effea5783a3c4c2140e677577666428d44ed9d474a0b3a4c9943f844090611dda90611da6611d897fada5013122d395ba3c54772283fb069b10426056ef8ca54750cb9bb552a59e7d610872565b61128e836001600160a01b03166000526000602052604060002090565b60016000908152602052611153817fada5013122d395ba3c54772283fb069b10426056ef8ca54750cb9bb552a59e7d61128e565b0390a1565b60405163b29d459560e01b81526001600160a01b03919091166004820152602490fd5b60405163cadb248f60e01b81526001600160a01b03919091166004820152602490fd5b600191501438611d01565b939293611e405a86858585611adf565b948515611ed357611ea8611e9d7f8c014e41cffd68ba64f3e7830b8b2e4ee860509d8deab25ebbcbba2f0405e2da956001600160a01b0395604051968796338852166020870152604086015260a0606086015260a0850190610b29565b916080840190611aa3565b0390a1337f6895c13664aa4f67288b25d7a21d7aaa34916e355fb9b6fae0a139a9085becb8600080a2565b50505050337facd2c8702804128fdb0db2bb49f6d127dd0181c13fd45dbfe16de0930e2bd375600080a2565b90611f0991611f89565b6001600160a01b03811680158015611f7f575b611f67576000526000602052604060002060016001600160a01b0319825416179055600160005261064c816040600020906001600160a01b03166001600160a01b0319825416179055565b6024906040519063cadb248f60e01b82526004820152fd5b5060018114611f1c565b6001600160a01b03811615611fba5781600092918360208194519301915af1604051903d6000833e156118b2575190565b60405162461bcd60e51b815260206004820152601a60248201527f57726f6e67204d6f64756c6520536574757020416464726573730000000000006044820152606490fdfea2646970667358221220cff3a3a36f2f0d3a69e555a32683ff2559d10b0b07d83682045d7528ff80c58e64736f6c63430008110033",
  "devdoc": {
    "author": "Chirag Titiya - <chirag@biconomy.io>, Filipp Makarov - <filipp.makarov@biconomy.io>",
    "details": "This contract is the base for the Smart Account functionality.         - It is modular by nature. UserOp and txns validation happens in Authorization Modules.         - It provides the functionality to execute AA (EIP-4337) userOps. Gnosis style txns removed to a module.         - It allows to receive and manage assets.         - It is responsible for managing the modules and fallbacks.         - The Smart Account can be extended with modules, such as Social Recovery, Session Key and others.",
    "errors": {
      "CallerIsNotAnEntryPoint(address)": [
        {
          "params": {
            "caller": "address that tried to call onlyEntryPoint-protected method"
          }
        }
      ],
      "CallerIsNotEntryPoint(address)": [
        {
          "params": {
            "caller": "address that tried to call _requireFromEntryPoint-protected method"
          }
        }
      ],
      "CallerIsNotEntryPointOrOwner(address)": [
        {
          "params": {
            "caller": "address that tried to call _requireFromEntryPointOrOwner-protected method"
          }
        }
      ],
      "CallerIsNotEntryPointOrSelf(address)": [
        {
          "params": {
            "caller": "address that tried to call _requireFromEntryPointOrSelf-protected method"
          }
        }
      ],
      "CallerIsNotOwner(address)": [
        {
          "params": {
            "caller": "address that tried to call onlyOwner method"
          }
        }
      ],
      "CallerIsNotSelf(address)": [
        {
          "params": {
            "caller": "Caller address"
          }
        }
      ],
      "InvalidImplementation(address)": [
        {
          "params": {
            "implementationAddress": "implementation address provided"
          }
        }
      ],
      "MixedAuthFail(address)": [
        {
          "params": {
            "caller": "address that tried to call mixedAuth-protected method"
          }
        }
      ],
      "ModuleAlreadyEnabled(address)": [
        {
          "params": {
            "module": "Module address provided"
          }
        }
      ],
      "ModuleAndPrevModuleMismatch(address,address,address)": [
        {
          "params": {
            "expectedModule": "expected module at modules[prevModule]",
            "prevModule": "previous module address provided at call",
            "returnedModule": "the module that has been found at modules[prevModule]"
          }
        }
      ],
      "ModuleCannotBeZeroOrSentinel(address)": [
        {
          "params": {
            "module": "Module address provided"
          }
        }
      ],
      "ModuleNotEnabled(address)": [
        {
          "params": {
            "module": "Module address provided"
          }
        }
      ],
      "WrongBatchProvided(uint256,uint256,uint256,uint256)": [
        {
          "params": {
            "destLength": "length of destination contracts array",
            "funcLength": "length of function signatures array",
            "operationLength": "length of operation types array. 0 if there's no operations",
            "valueLength": "length of txn values array"
          }
        }
      ],
      "WrongContractSignature(bytes)": [
        {
          "params": {
            "contractSignature": "the contract signature that has been verified"
          }
        }
      ],
      "WrongContractSignatureFormat(uint256,uint256,uint256)": [
        {
          "params": {
            "contractSignatureLength": "length of a contract signature",
            "signatureLength": "the whole signature length",
            "uintS": "s converted to uint256"
          }
        }
      ],
      "WrongValidationModule(address)": [
        {
          "params": {
            "moduleAddressProvided": "module address taken from signature"
          }
        }
      ]
    },
    "kind": "dev",
    "methods": {
      "addDeposit()": {
        "details": "Deposit more funds for this account in the entryPoint"
      },
      "constructor": {
        "details": "Constructor that sets the entry point contract.      _modules[SENTINEL_MODULES] = SENTINEL_MODULES protects implementation from initialization",
        "params": {
          "anEntryPoint": "The address of the entry point contract."
        }
      },
      "disableModule(address,address)": {
        "details": "Removes a module from the allowlist.",
        "params": {
          "module": "Module to be removed.",
          "prevModule": "Module that pointed to the module to be removed in the linked list"
        }
      },
      "enableModule(address)": {
        "details": "Adds a module to the allowlist.",
        "params": {
          "module": "Module to be allow-listed."
        }
      },
      "entryPoint()": {
        "details": "Returns the current entry point used by this account.This function should be implemented by the subclass to return the current entry point used by this account.",
        "returns": {
          "_0": "EntryPoint as an `IEntryPoint` interface."
        }
      },
      "execBatchTransactionFromModule(address[],uint256[],bytes[],uint8[])": {
        "details": "Allows a Module to execute a batch of Smart Account transactions without any further confirmations.",
        "params": {
          "data": "Data payload of module transaction.",
          "operations": "Operation type of module transaction.",
          "to": "Destination address of module transaction.",
          "value": "Ether value of module transaction."
        }
      },
      "execTransactionFromModule(address,uint256,bytes,uint8,uint256)": {
        "details": "Allows a Module to execute a Smart Account transaction without any further confirmations.",
        "params": {
          "data": "Data payload of module transaction.",
          "operation": "Operation type of module transaction.",
          "to": "Destination address of module transaction.",
          "value": "Ether value of module transaction."
        }
      },
      "execTransactionFromModuleReturnData(address,uint256,bytes,uint8)": {
        "details": "Allows a Module to execute a wallet transaction without any further confirmations and returns data",
        "params": {
          "data": "Data payload of module transaction.",
          "operation": "Operation type of module transaction.",
          "to": "Destination address of module transaction.",
          "value": "Ether value of module transaction."
        }
      },
      "execute(address,uint256,bytes)": {
        "details": "Interface function with the standard name for execute_ncC",
        "params": {
          "dest": "Address of the contract to call",
          "func": "Data of the transaction",
          "value": "Amount of native tokens to send along with the transaction"
        }
      },
      "executeBatch(address[],uint256[],bytes[])": {
        "details": "Interface function with the standard name for executeBatch_y6U",
        "params": {
          "dest": "Addresses of the contracts to call",
          "func": "Data of the transactions",
          "value": "Amounts of native tokens to send along with the transactions"
        }
      },
      "executeBatch_y6U(address[],uint256[],bytes[])": {
        "details": "Execute a sequence of transactions",
        "params": {
          "dest": "Addresses of the contracts to call",
          "func": "Data of the transactions",
          "value": "Amounts of native tokens to send along with the transactions"
        }
      },
      "execute_ncC(address,uint256,bytes)": {
        "details": "Execute a transaction (called by entryPoint)",
        "params": {
          "dest": "Address of the contract to call",
          "func": "Data of the transaction",
          "value": "Amount of native tokens to send along with the transaction"
        }
      },
      "getDeposit()": {
        "details": "Check current account deposit in the entryPoint"
      },
      "getImplementation()": {
        "details": "Returns the address of the implementation contract associated with this contract."
      },
      "getModulesPaginated(address,uint256)": {
        "details": "Returns array of modules. Useful for a widget",
        "params": {
          "pageSize": "Maximum number of modules that should be returned.",
          "start": "Start of the page."
        },
        "returns": {
          "array": "Array of modules.",
          "next": "Start of the next page."
        }
      },
      "init(address,address,address,bytes)": {
        "details": "Initialize the Smart Account with required states",
        "params": {
          "authModuleSetupContract": "Contract, that setups initial auth module for this smart account. It can be a module factory or a registry module that serves several smart accounts",
          "authModuleSetupData": "modules setup data (a standard calldata for the module setup contract)",
          "handler": "Default fallback handler provided in Smart Account",
          "sessionKeyModuleContract": "Contract, that enables session key module"
        }
      },
      "isModuleEnabled(address)": {
        "details": "Returns if a module is enabled",
        "returns": {
          "_0": "True if the module is enabled"
        }
      },
      "isValidSignature(bytes32,bytes)": {
        "details": "Forwards the validation to the module specified in the signature",
        "params": {
          "dataHash": "32 bytes hash of the data signed on the behalf of address(msg.sender)",
          "signature": "Signature byte array associated with dataHash"
        },
        "returns": {
          "_0": "bytes4 value."
        }
      },
      "nonce(uint192)": {
        "details": "This method returns the next sequential nonce.",
        "returns": {
          "_0": "nonce the account nonce."
        }
      },
      "setFallbackHandler(address)": {
        "details": "Sets the fallback handler.",
        "params": {
          "handler": "Handler to be set."
        }
      },
      "setupAndEnableModule(address,bytes)": {
        "details": "Setups module for this Smart Account and enables it."
      },
      "supportsInterface(bytes4)": {
        "params": {
          "_interfaceId": "The interface identifier, as specified in ERC165"
        },
        "returns": {
          "_0": "`true` if the contract implements `_interfaceID`"
        }
      },
      "updateImplementation(address)": {
        "params": {
          "_implementation": "New wallet implementation"
        }
      },
      "validateUserOp((address,uint256,bytes,bytes,uint256,uint256,uint256,uint256,uint256,bytes,bytes),bytes32,uint256)": {
        "params": {
          "missingAccountFunds": "the amount of funds required to pay to EntryPoint to pay for the userOp execution.",
          "userOp": "validate the userOp.signature field",
          "userOpHash": "convenient field: the hash of the request, to check the signature against          (also hashes the entrypoint and chain id)"
        },
        "returns": {
          "validationData": "signature and time-range of this operation      <20-byte> sigAuthorizer - 0 for valid signature, 1 to mark signature failure,         otherwise, an address of an \"authorizer\" contract.      <6-byte> validUntil - last timestamp this operation is valid. 0 for \"indefinite\"      <6-byte> validAfter - first timestamp this operation is valid      If no time-range in account, return SIG_VALIDATION_FAILED (1) for signature failure.      Note that the validation code cannot use block.timestamp (or block.number) directly."
        }
      },
      "withdrawDepositTo(address,uint256)": {
        "details": "Withdraw value from the account's deposit",
        "params": {
          "amount": "to withdraw",
          "withdrawAddress": "target to send to"
        }
      }
    },
    "title": "SmartAccount - EIP-4337 compatible smart contract wallet.",
    "version": 1
  },
  "userdoc": {
    "errors": {
      "AlreadyInitialized()": [
        {
          "notice": "Throws if trying to initialize a Smart Account that has already been initialized"
        }
      ],
      "BaseImplementationCannotBeZero()": [
        {
          "notice": "Throws if zero address has been provided as Base Implementation address"
        }
      ],
      "CallerIsNotAnEntryPoint(address)": [
        {
          "notice": "Throws at onlyEntryPoint when msg.sender is not an EntryPoint set for this Smart Account"
        }
      ],
      "CallerIsNotEntryPoint(address)": [
        {
          "notice": "Throws at _requireFromEntryPoint when msg.sender is not an EntryPoint"
        }
      ],
      "CallerIsNotEntryPointOrOwner(address)": [
        {
          "notice": "Throws at _requireFromEntryPointOrOwner when msg.sender is not an EntryPoint neither an owner"
        }
      ],
      "CallerIsNotEntryPointOrSelf(address)": [
        {
          "notice": "Throws at _requireFromEntryPointOrSelf when msg.sender is not an EntryPoint neither self"
        }
      ],
      "CallerIsNotOwner(address)": [
        {
          "notice": "Throws at onlyOwner when msg.sender is not an owner"
        }
      ],
      "CallerIsNotSelf(address)": [
        {
          "notice": "Throws when the caller is not address(this)"
        }
      ],
      "DelegateCallsOnly()": [
        {
          "notice": "Thrown when the function that must be called only via delegatecall is called directly"
        }
      ],
      "EntryPointCannotBeZero()": [
        {
          "notice": "Throws if zero address has been provided as Entry Point address"
        }
      ],
      "HandlerCannotBeZero()": [
        {
          "notice": "Throws if zero address has been provided as Fallback Handler address"
        }
      ],
      "InvalidImplementation(address)": [
        {
          "notice": "Throws if there is no code at implementationAddress"
        }
      ],
      "MixedAuthFail(address)": [
        {
          "notice": "Throws at mixedAuth when msg.sender is not an owner neither _self"
        }
      ],
      "ModuleAlreadyEnabled(address)": [
        {
          "notice": "Throws when trying to enable module that has already been enabled"
        }
      ],
      "ModuleAndPrevModuleMismatch(address,address,address)": [
        {
          "notice": "Throws when module and previous module mismatch"
        }
      ],
      "ModuleCannotBeZeroOrSentinel(address)": [
        {
          "notice": "Throws when address(0) or SENTINEL_MODULES constant has been provided as a module address"
        }
      ],
      "ModuleNotEnabled(address)": [
        {
          "notice": "Throws when trying to execute transaction from module that is not enabled"
        }
      ],
      "ModulesAlreadyInitialized()": [
        {
          "notice": "Throws when trying to initialize module manager that already been initialized"
        }
      ],
      "ModulesSetupExecutionFailed()": [
        {
          "notice": "Throws when a delegatecall in course of module manager initialization has failed"
        }
      ],
      "OwnerCanNotBeSelf()": [
        {
          "notice": "Thrown when trying to use address of the Smart Account as an owner for itself"
        }
      ],
      "OwnerCannotBeZero()": [
        {
          "notice": "Throws if trying to change an owner of a SmartAccount to the zero address"
        }
      ],
      "OwnerProvidedIsSame()": [
        {
          "notice": "Thrown when trying to use current owner as a new owner in a _setOwner() call"
        }
      ],
      "TransferToZeroAddressAttempt()": [
        {
          "notice": "Throws when if trying to transfer to zero address"
        }
      ],
      "WrongBatchProvided(uint256,uint256,uint256,uint256)": [
        {
          "notice": "Throws when data for executeBatchCall provided in wrong format (i.e. empty array or lengths mismatch)"
        }
      ],
      "WrongContractSignature(bytes)": [
        {
          "notice": "Throws if isValidSignature for the conrtact signature and data hash differs from EIP1271 Magic Value"
        }
      ],
      "WrongContractSignatureFormat(uint256,uint256,uint256)": [
        {
          "notice": "Throws if contract signature is provided in frong format"
        }
      ],
      "WrongValidationModule(address)": [
        {
          "notice": "Throws when module address taken from signature is not enabled"
        }
      ]
    },
    "kind": "user",
    "methods": {
      "disableModule(address,address)": {
        "notice": "This can only be done via a wallet transaction.Disables the module `module` for the wallet."
      },
      "enableModule(address)": {
        "notice": "This can only be done via a userOp or a selfcall.Enables the module `module` for the wallet."
      },
      "executeBatch_y6U(address[],uint256[],bytes[])": {
        "notice": "Name is optimized for this method to be cheaper to be called"
      },
      "execute_ncC(address,uint256,bytes)": {
        "notice": "Name is optimized for this method to be cheaper to be called"
      },
      "getImplementation()": {
        "notice": "The implementation address is stored in the contract's storage slot with index 0."
      },
      "init(address,address,address,bytes)": {
        "notice": "devs need to make sure it is only callable once by initializer or state check restrictionsany further implementations that introduces a new state must have a reinit methodreinitialization is not possible, as _initialSetupModules reverts if the account is already initialized         which is when there is at least one enabled module"
      },
      "isValidSignature(bytes32,bytes)": {
        "notice": "Implementation of ISignatureValidator (see `interfaces/ISignatureValidator.sol`)"
      },
      "nonce(uint192)": {
        "notice": "Provides 2D nonce functionality by allowing to use a nonce of a specific key."
      },
      "setFallbackHandler(address)": {
        "notice": "This can only be done via a UserOp sent by EntryPoint."
      },
      "setupAndEnableModule(address,bytes)": {
        "notice": "This can only be done via userOp or a selfcall.Enables the module `module` for the wallet."
      },
      "supportsInterface(bytes4)": {
        "notice": "Query if a contract implements an interface"
      },
      "updateImplementation(address)": {
        "notice": "All the new implementations MUST have this method!Updates the implementation of the base wallet"
      },
      "validateUserOp((address,uint256,bytes,bytes,uint256,uint256,uint256,uint256,uint256,bytes,bytes),bytes32,uint256)": {
        "notice": "Validates the userOp."
      }
    },
    "version": 1
  },
  "storageLayout": {
    "storage": [
      {
        "astId": 7870,
        "contract": "contracts/smart-account/SmartAccount.sol:SmartAccount",
        "label": "_modules",
        "offset": 0,
        "slot": "0",
        "type": "t_mapping(t_address,t_address)"
      },
      {
        "astId": 7874,
        "contract": "contracts/smart-account/SmartAccount.sol:SmartAccount",
        "label": "__gap",
        "offset": 0,
        "slot": "1",
        "type": "t_array(t_uint256)24_storage"
      },
      {
        "astId": 7790,
        "contract": "contracts/smart-account/SmartAccount.sol:SmartAccount",
        "label": "__gap",
        "offset": 0,
        "slot": "25",
        "type": "t_array(t_uint256)24_storage"
      },
      {
        "astId": 7060,
        "contract": "contracts/smart-account/SmartAccount.sol:SmartAccount",
        "label": "ownerDeprecated",
        "offset": 0,
        "slot": "49",
        "type": "t_address"
      },
      {
        "astId": 7064,
        "contract": "contracts/smart-account/SmartAccount.sol:SmartAccount",
        "label": "noncesDeprecated",
        "offset": 0,
        "slot": "50",
        "type": "t_mapping(t_uint256,t_uint256)"
      }
    ],
    "types": {
      "t_address": {
        "encoding": "inplace",
        "label": "address",
        "numberOfBytes": "20"
      },
      "t_array(t_uint256)24_storage": {
        "base": "t_uint256",
        "encoding": "inplace",
        "label": "uint256[24]",
        "numberOfBytes": "768"
      },
      "t_mapping(t_address,t_address)": {
        "encoding": "mapping",
        "key": "t_address",
        "label": "mapping(address => address)",
        "numberOfBytes": "32",
        "value": "t_address"
      },
      "t_mapping(t_uint256,t_uint256)": {
        "encoding": "mapping",
        "key": "t_uint256",
        "label": "mapping(uint256 => uint256)",
        "numberOfBytes": "32",
        "value": "t_uint256"
      },
      "t_uint256": {
        "encoding": "inplace",
        "label": "uint256",
        "numberOfBytes": "32"
      }
    }
  }
}